:020000040800F2
:1000000000000A2001530008254D0008294D000872
:100010002D4D0008314D0008354D00085D53000896
:100020000000000000000000000000000D51010869
:10003000394D000800000000C5500108692D010875
:100040005D5300085D5300085D5300085D530008D0
:100050005D5300085D5300085D5300085D530008C0
:100060005D5300085D5300085D5300085D530008B0
:100070005D5300085D5300085D5300085D530008A0
:100080005D5300085D5300085D5300085D53000890
:100090005D5300085D5300085D5300085D53000880
:1000A0005D5300085D5300085D5300083D4D000896
:1000B000494D00085D5300085D5300085D5300087A
:1000C0005D5300085D5300085D5300085D53000850
:1000D000000000005D5300085D5300085D530008F8
:1000E0005D5300085D5300085D5300085D53000830
:1000F0005D5300085D5300085D5300085D53000820
:100100005D5300085D5300085D5300085D5300080F
:100110005D5300085D5300085D5300085D530008FF
:10012000554D00085D530008614D00086D4D0008F5
:100130005D5300085D5300085D5300085D530008DF
:100140005D5300085D5300085D5300085D530008CF
:100150005D5300085D5300085D5300085D530008BF
:100160005D5300085D530008794D00085D53000899
:100170005D5300085D530008854D0008914D00084F
:100180005D5300085D5300085D5300085D5300088F
:100190005D5300085D5300085D5300085D5300087F
:1001A0005D5300085D5300085D5300085D5300086F
:1001B0005D5300085D5300085D5300085D5300085F
:1001C0005D5300085D5300085D5300085D5300084F
:1001D0005D5300085D530008000000005D530008F7
:1001E0005D5300085D53000800000000000000009F
:1001F0005D53000800000000000000005D5300088F
:100200005D5300085D5300085D53000800000000C6
:10021000000000005D530008000000005D5300086E
:100220009D4D00085D530008A94D00085D5300086E
:100230005D5300085D5300085D5300085D530008DE
:0C0240005D5300085D5300085D5300088A
:1002500010B5054C237833B9044B13B10448AFF300
:1002600000800123237010BD600200200000000008
:1002700004F2050808B5034B1BB103490348AFF36B
:10028000008008BD000000006402002004F20508A0
:10029000034613F8012B002AFBD1181A01387047C6
:1002A00070B54FF0FF0C4CF4E06C1CEA11541DBF0C
:1002B0001CEA135594EA0C0F95EA0C0F00F0DEF8D7
:1002C0002C4481EA030621EA4C5123EA4C5350EABC
:1002D000013518BF52EA033541F4801143F480130D
:1002E00038D0A0FB02CE4FF00005E1FB02E506F09E
:1002F0000042E0FB03E54FF00006E1FB03569CF0F3
:10030000000F18BF4EF0010EA4F1FF04B6F5007FF8
:1003100064F5407404D25FEA4E0E6D4146EB06066A
:1003200042EAC62141EA55514FEAC52040EA5E50F3
:100330004FEACE2EB4F1FD0C88BFBCF5E06F1ED89D
:10034000BEF1004F08BF5FEA500E50F1000041EBD4
:10035000045170BD06F0004646EA010140EA020081
:1003600081EA0301B4EB5C04C2BFD4EB0C0541EAA3
:10037000045170BD41F480114FF0000E013C00F3B8
:10038000AB8014F1360FDEBF002001F0004170BDDC
:10039000C4F10004203C35DA0C341BDC04F11404F5
:1003A000C4F1200500FA05F320FA04F001FA05F281
:1003B00040EA020001F0004221F0004110EBD3704E
:1003C00021FA04F642EB06015EEA430E08BF20EA7A
:1003D000D37070BDC4F10C04C4F1200500FA04F31D
:1003E00020FA05F001FA04F240EA020001F00041AF
:1003F00010EBD37041F100015EEA430E08BF20EA22
:10040000D37070BDC4F1200500FA05F24EEA020E69
:1004100020FA04F301FA05F243EA020321FA04F098
:1004200001F0004121FA04F220EA020000EBD3704F
:100430005EEA430E08BF20EAD37070BD94F0000F4F
:100440000FD101F00046400041EB010111F4801F83
:1004500008BF013CF7D041EA060195F0000F18BF34
:10046000704703F00046520043EB030313F4801F70
:1004700008BF013DF7D043EA0603704794EA0C0F2A
:100480000CEA135518BF95EA0C0F0CD050EA410640
:1004900018BF52EA4306D1D181EA030101F00041BD
:1004A0004FF0000070BD50EA410606BF10461946E5
:1004B00052EA430619D094EA0C0F02D150EA0136F1
:1004C00013D195EA0C0F05D152EA03361CBF104632
:1004D00019460AD181EA030101F0004141F0FE41D1
:1004E00041F470014FF0000070BD41F0FE4141F455
:1004F000780170BD81F0004102E000BF83F000434D
:1005000030B54FEA41044FEA430594EA050F08BFAE
:1005100090EA020F1FBF54EA000C55EA020C7FEA72
:10052000645C7FEA655C00F0E2804FEA5454D4EBEF
:100530005555B8BF6D420CDD2C4480EA020281EAB9
:10054000030382EA000083EA010180EA020281EAF1
:100550000303362D88BF30BD11F0004F4FEA013143
:100560004FF4801C4CEA113102D0404261EB410152
:1005700013F0004F4FEA03334CEA133302D05242D8
:1005800063EB430394EA050F00F0A780A4F1010494
:10059000D5F1200E0DDB02FA0EFC22FA05F28018CE
:1005A00041F1000103FA0EF2801843FA05F35941B4
:1005B0000EE0A5F120050EF1200E012A03FA0EFC33
:1005C00028BF4CF0020C43FA05F3C01851EBE3715D
:1005D00001F0004507D54FF0000EDCF1000C7EEB7A
:1005E00000006EEB0101B1F5801F1BD3B1F5001FB8
:1005F0000CD349085FEA30004FEA3C0C04F10104D7
:100600004FEA445212F5800F80F09A80BCF1004FFF
:1006100008BF5FEA500C50F1000041EB045141EA81
:10062000050130BD5FEA4C0C404141EB0101013C4A
:1006300028BFB1F5801FE9D291F0000F04BF014639
:100640000020B1FA81F308BF2033A3F10B03B3F10B
:1006500020020CDA0C3208DD02F1140CC2F10C029B
:1006600001FA0CF021FA02F10CE002F11402D8BFF9
:10067000C2F1200C01FA02F120FA0CFCDCBF41EAC5
:100680000C019040E41AA2BF01EB0451294330BD94
:100690006FEA04041F3C1CDA0C340EDC04F1140471
:1006A000C4F1200220FA04F001FA02F340EA030048
:1006B00021FA04F345EA030130BDC4F10C04C4F18E
:1006C000200220FA02F001FA04F340EA030029466E
:1006D00030BD21FA04F0294630BD94F0000F83F4B8
:1006E000801306BF81F480110134013D4EE77FEA9B
:1006F000645C18BF7FEA655C29D094EA050F08BFE7
:1007000090EA020F05D054EA000C04BF19461046C7
:1007100030BD91EA030F1EBF0021002030BD5FEA0B
:10072000545C05D14000494128BF41F0004130BD33
:1007300014F580043CBF01F5801130BD01F0004587
:1007400045F0FE4141F470014FF0000030BD7FEAFA
:10075000645C1ABF194610467FEA655C1CBF0B46F5
:10076000024650EA013406BF52EA033591EA030F0C
:1007700041F4002130BD00BF90F0000F04BF002104
:10078000704730B54FF4806404F132044FF0000537
:100790004FF0000150E700BF90F0000F04BF0021B0
:1007A000704730B54FF4806404F1320410F0004516
:1007B00048BF40424FF000013EE700BF42004FEA11
:1007C000E2014FEA31014FEA02701FBF12F07F438E
:1007D00093F07F4F81F06051704732F07F4208BF45
:1007E000704793F07F4F04BF41F40021704730B54C
:1007F0004FF4607401F0004521F000411CE700BF98
:1008000050EA010208BF704730B54FF000050AE01A
:1008100050EA010208BF704730B511F0004502D51B
:10082000404261EB41014FF4806404F132045FEA1D
:10083000915C3FF4D8AE4FF003025FEADC0C18BFC6
:1008400003325FEADC0C18BF033202EBDC02C2F1B8
:10085000200300FA03FC20FA02F001FA03FE40EA4A
:100860000E0021FA02F11444BDE600BF4A0011D285
:1008700012F5001211D20DD56FF47873B3EB6252FA
:100880000ED44FEAC12343F0004343EA505323FA06
:1008900002F070474FF00000704750EA013002D17B
:1008A0004FF0FF3070474FF0000070477BB972B9CE
:1008B0000029BEBF00204FF0004106E008BF00281D
:1008C0001CBF6FF000414FF0FF3000F0FDB9ADF1FB
:1008D000080C6DE904CE002909DB002B1ADB00F0BF
:1008E0004DF8DDF804E0DDE9022304B07047404232
:1008F00061EB4101002B1BDB00F040F8DDF804E068
:10090000DDE9022304B0404261EB4101524263EB56
:1009100043037047524263EB430300F02FF8DDF8C6
:1009200004E0DDE9022304B0404261EB410170477D
:10093000524263EB430300F021F8DDF804E0DDE907
:10094000022304B0524263EB4303704753B94AB9E0
:10095000002908BF00281CBF4FF0FF314FF0FF30C7
:1009600000F0B2B9ADF1080C6DE904CE00F006F864
:10097000DDF804E0DDE9022304B070472DE9F04F13
:100980008C46099E04460F46002B48D18A421546E4
:100990005ED9B2FA82F33BB1C3F120029F409D4081
:1009A0009C4020FA02F217434FEA154E1FFA85FCCD
:1009B000220CB7FBFEF10EFB117701FB0CF042EAB3
:1009C0000742904207D9AA1801F1FF3702D290429C
:1009D00000F258813946121AA4B2B2FBFEF00EFBA7
:1009E000102200FB0CFC44EA0244A4450BD92C194C
:1009F00000F1FF322CBF01270027A44502D9002FA8
:100A000000F04381104640EA0140A4EB0C040021B1
:100A10001EB1DC400023C6E90043BDE8F08F8B42E5
:100A200006D90EB1C6E9000100210846BDE8F08FE5
:100A3000B3FA83F1002951D16345C0F01681824297
:100A400040F213810846002EE7D0C6E90047E4E7EC
:100A5000002A00F0AF80B2FA82F3002B40F0C2808F
:100A60008A1A4FEA154EAFB20121200CB2FBFEFCF0
:100A70000EFB1C2240EA024207FB0CF090420ED90A
:100A8000AA180CF1FF382CBF4FF001094FF00009F4
:100A9000904203D9B9F1000F00F0F080C446121A59
:100AA000A4B2B2FBFEF00EFB102200FB07F744EAF3
:100AB0000244A7420ED92C1900F1FF322CBF4FF08F
:100AC000010E4FF0000EA74203D9BEF1000F00F057
:100AD000D2801046E41B40EA0C4099E7C1F12005A2
:100AE0008B400CFA01F400FA01F922FA05F72CFA0E
:100AF00005FC8A401F4320FA05F3380C23431FFAF4
:100B000087FE1C0CBCFBF0F800FB18CC44EA0C443C
:100B100008FB0EFCA4450ED93C1908F1FF3A2CBF86
:100B20004FF0010B4FF0000BA44503D9BBF1000FB0
:100B300000F0B880D046A4EB0C041FFA83FCB4FB91
:100B4000F0F300FB134403FB0EFE4CEA0444A645FD
:100B50000ED93C1903F1FF302CBF4FF0010C4FF0C0
:100B6000000CA64503D9BCF1000F00F09F8003469E
:100B700043EA0840A4EB0E04A0FB02EC6445734674
:100B8000E04602D307D1F14505D2BEEB02036CEB80
:100B9000070C0138E0465EB1B9EB030264EB0804D0
:100BA00004FA05F522FA01F3CC401D43C6E90054CE
:100BB000002132E742082F464B08AC4642EAC17298
:100BC000AE46C407110C92B241EA034142EA014227
:100BD000B1FBF5F1B3FBF5F01F23A2EB0C0241EAE8
:100BE000004142E79D40C3F1200299409C402CFA0D
:100BF00002FC4FEA154E20FA02F2AFB2BCFBFEF83F
:100C00000A430EFB18CC110C41EA0C4108FB07FC0F
:100C10008C4550D9691808F1FF302CBF4FF00109FD
:100C20004FF000098C4502D9B9F1000F30D0A1EB8B
:100C30000C01B1FBFEF808FB07FC0EFB181192B289
:100C400042EA0142624534D2AA1808F1FF312CBFB2
:100C50004FF001094FF000096245BED2B9F1000F13
:100C6000BBD1A8F102012A44B7E7841A6CEB030256
:100C700001201746E7E62C4402382BE7ACF1020CC2
:100C80002A440CE702392A44A5E62C440238BAE685
:100C9000A5EB0C0CA8F102006144B1FBFEF808FBC7
:100CA00007FCCAE7A8F102083C4444E7023B3C4485
:100CB0005EE7414691E7A1EB0C014046B1FBFEF82F
:100CC00008FB07FCB9E700BF704700BF0C4A136878
:100CD0000133052B136000D8704710B5094C82B062
:100CE000206848B100240A234FF4FA7205210094C9
:100CF0001EF0B4FF02B010BD01F0C4F92068F1E7A6
:100D00007C0200200C03002030B5002083B015F0D9
:100D1000EFFB244C1221206015F076FC00202568A2
:100D200048F09AFD03468DF80030C3F30721C3F362
:100D300007438DF802308DF80110009900222846F3
:100D40001CF06AFB0020256848F086FD03468DF8FC
:100D50000430C3F30721C3F307438DF806308DF841
:100D600005100022019928461CF074FB206854F0FD
:100D7000E1FC0D4D0D49286054F064FF0022286805
:100D80000025114617F002FC094B4FF4FA71094A8D
:100D900009481D604BF0F0FD206803B0BDE830400D
:100DA0001FF098B9840200208002002048F2050854
:100DB0007C02002000000020CD0C000808B549F09E
:100DC00097F9042802D0092800D008BD024B186802
:100DD000BDE808405BF0FEB8B402002008B549F059
:100DE00087F9042802D0092800D008BD024B1868F2
:100DF000BDE808405BF0EEB8B002002008B549F04D
:100E000077F9042802D0092800D008BD024B1868E1
:100E1000BDE808405BF0DEB8AC02002008B549F040
:100E200067F9042802D0092800D008BD024B1868D1
:100E3000BDE808405BF092B8B402002008B549F064
:100E400057F9042802D0092800D008BD024B1868C1
:100E5000BDE808405BF082B8B002002008B549F058
:100E600047F9042802D0092800D008BD024B1868B1
:100E7000BDE808405BF072B8AC0200202DE9F041FB
:100E8000514884B04AF024FC50494F484AF010FFC2
:100E90006FF07F4048F0E0FC0346C3F30721C3F343
:100EA00007428DF80C308DF80E20DFF83C818DF86C
:100EB0000D10039944484AF0EBFED8F8000056F0B4
:100EC00013FA0446002156F0CFFA2046012156F0CD
:100ED00075FB20463E4956F013FA20210091042369
:100EE000D8F800100122204619F0A2F8D8F8000026
:100EF0005AF0E4FE374C40F6FF72002120605AF0B1
:100F000079FF0022206804215AF00CFF206800219C
:100F10005AF096FF206801215AF04EFF2068002108
:100F20005AF0D8FE2068402117F056FB1822802185
:100F3000206817F02BFB206817F06AFF0746D8F8E7
:100F4000000052F019F9002506463A46394617F0D6
:100F5000A3FB0095052330462168142219F068F898
:100F60002A46304618491CF0B3F92A4630461A4939
:100F70001CF086FA2B462A461849304617F0A0F88E
:100F8000D8F8000052F0F8F806463A46394617F00D
:100F900083FB6FF00403216830461122009519F09D
:100FA00047F82A46304608491CF092F92A4630464E
:100FB0000B491CF065FA2B462A463046094904B015
:100FC000BDE8F04117F07CB8A0020020647D0D0858
:100FD00064FA0C08B402002074FA0C081D0E000814
:100FE00078FA0C08BD0D0008B80200202DE9F04188
:100FF000514884B04AF06CFB50494F484AF058FEC3
:101000006FF07F4048F028FC0346C3F30721C3F389
:1010100007428DF80C308DF80E20DFF83C818DF8FA
:101020000D10039944484AF033FED8F8000056F0FA
:101030005BF90446002156F017FA2046012156F0CC
:10104000BDFA20463E4956F05BF960210091042329
:10105000D8F800100122204618F0EAFFD8F8000066
:101060005AF02CFE374C40F6FF72002120605AF0F7
:10107000C1FE0022206804215AF054FE206800219D
:101080005AF0DEFE206801215AF096FE2068002109
:101090005AF020FE2068402117F09EFA5822802145
:1010A000206817F073FA206817F0B2FE0746D8F8E8
:1010B000000052F061F8002506463A46394617F01E
:1010C000EBFA0095052330462168142218F0B0FF92
:1010D0002A46304618491CF0FBF82A4630461A4981
:1010E0001CF0CEF92B462A461849304616F0E8FF88
:1010F000D8F8000052F040F806463A46394617F054
:10110000CBFA6FF00403216830461122009518F0E5
:101110008FFF2A46304608491CF0DAF82A46304646
:101120000B491CF0ADF92B462A463046094904B05C
:10113000BDE8F04116F0C4BF94020020647D0D08A4
:101140007CFA0C08B002002074FA0C083D0E00086E
:1011500078FA0C08DD0D0008B80200202DE9F041F6
:10116000514884B04AF0B4FA50494F484AF0A0FDC3
:101170006FF07F4048F070FB0346C3F30721C3F3D1
:1011800007428DF80C308DF80E20DFF83C818DF889
:101190000D10039944484AF07BFDD8F8000056F042
:1011A000A3F80446002156F05FF92046012156F0CD
:1011B00005FA20463E4956F0A3F89E2100910423EB
:1011C000D8F800100122204618F032FFD8F80000AD
:1011D0005AF074FD374C40F6FF72002120605AF03F
:1011E00009FE0022206804215AF09CFD206800219D
:1011F0005AF026FE206801215AF0DEFD2068002109
:101200005AF068FD2068402117F0E6F99822802105
:10121000206817F0BBF9206817F0FAFD0746D8F8E8
:10122000000051F0A9FF002506463A46394617F05E
:1012300033FA0095052330462168142218F0F8FE91
:101240002A46304618491CF043F82A4630461A49C7
:101250001CF016F92B462A461849304616F030FF86
:10126000D8F8000051F088FF06463A46394617F094
:1012700013FA6FF00403216830461122009518F02C
:10128000D7FE2A46304608491CF022F82A46304646
:101290000B491CF0F5F82B462A463046094904B0A4
:1012A000BDE8F04116F00CBF88020020647D0D08F7
:1012B0008CFA0C08AC02002074FA0C085D0E0008D1
:1012C00078FA0C08FD0D0008B802002030B50020A7
:1012D00083B015F00DF91E4C1221206015F094F921
:1012E0000020256848F0B8FA03468DF80030C3F3B3
:1012F0000721C3F307438DF802308DF801100099E0
:10130000002228461CF088F80020256848F0A4FA3E
:1013100003468DF80430C3F30721C3F307438DF868
:1013200006308DF805100022284601991CF092F82D
:10133000FFF7A4FDFFF75AFEFFF710FF206800F04B
:1013400001FE206803B0BDE830401EF0C3BE00BF00
:10135000B802002008B548F0CBFE042802D00928C6
:1013600000D008BD024B1868BDE808405AF032BEF4
:101370000403002008B548F0BBFE042802D0092869
:1013800000D008BD024B1868BDE808405AF022BEE4
:101390000803002008B548F0ABFE042802D0092855
:1013A00000D008BD024B1868BDE808405AF012BED4
:1013B000FC02002008B548F09BFE042802D0092852
:1013C00000D008BD024B1868BDE808405AF002BEC4
:1013D0000003002008B548F08BFE042802D009283D
:1013E00000D008BD024B1868BDE808405AF0F2BDB5
:1013F000F402002008B548F07BFE042802D009283A
:1014000000D008BD024B1868BDE808405AF0E2BDA4
:10141000F802002008B548F06BFE042802D0092825
:1014200000D008BD024B1868BDE808405AF0D2BD94
:10143000EC02002008B548F05BFE042802D0092821
:1014400000D008BD024B1868BDE808405AF0C2BD84
:10145000F002002008B548F04BFE042802D009280D
:1014600000D008BD024B1868BDE808405AF076BDB0
:101470000403002008B548F03BFE042802D00928E8
:1014800000D008BD024B1868BDE808405AF066BDA0
:101490000803002008B548F02BFE042802D00928D4
:1014A00000D008BD024B1868BDE808405AF056BD90
:1014B000FC02002008B548F01BFE042802D00928D1
:1014C00000D008BD024B1868BDE808405AF046BD80
:1014D0000003002008B548F00BFE042802D00928BC
:1014E00000D008BD024B1868BDE808405AF036BD70
:1014F000F402002008B548F0FBFD042802D00928BA
:1015000000D008BD024B1868BDE808405AF026BD5F
:10151000F802002008B548F0EBFD042802D00928A5
:1015200000D008BD024B1868BDE808405AF016BD4F
:10153000EC02002008B548F0DBFD042802D00928A1
:1015400000D008BD024B1868BDE808405AF006BD3F
:10155000F002002010B582B048F0CAFD0A2801D080
:1015600002B010BD084C40F21D22084B084904206F
:10157000009449F0D9F91EF0F9FE1CF0D7FA02B038
:10158000BDE8104001F04CBFB8FA0C0868310D08F6
:101590009CFA0C0810B582B048F0AAFD0A2801D0C8
:1015A00002B010BD084C40F21122084B084904203B
:1015B000009449F0B9F91EF0D9FE1CF0B7FA02B058
:1015C000BDE8104001F0CCBCB8FA0C0854310D084D
:1015D0009CFA0C0810B582B048F08AFD0A2801D0A8
:1015E00002B010BD084C40F20522084B0849042007
:1015F000009449F099F91EF0B9FE1CF097FA02B078
:10160000BDE81040FFF762BEB8FA0C0840310D0883
:101610009CFA0C0810B582B048F06AFD0A2801D087
:1016200002B010BD084C40F2F912084B08490420E2
:10163000009449F079F91EF099FE1CF077FA02B097
:10164000BDE8104001F0C8BAB8FA0C082C310D08FA
:101650009CFA0C082DE9F041814884B04AF038F832
:1016600080497F484AF024FB6FF07F4048F0F4F84F
:101670000346C3F30721C3F307427B4E8DF80C30BA
:101680008DF80E208DF80D10039975484AF000FB77
:10169000306855F029FE0446002155F0E5FE20464D
:1016A000012155F08BFF2046704955F029FE0A2193
:1016B0000091002331680222204618F0B9FC3068FE
:1016C0005AF0FCFA6A4D4822002128605AF092FB39
:1016D0000022286803215AF025FB286800215AF0CF
:1016E000AFFB286801215AF067FB286800215AF0F7
:1016F000F1FA2868402116F06FFF1822502128685F
:1017000016F044FF286817F083FB8046306851F0DC
:1017100033FD002407464246414616F0BDFF0094C3
:10172000052338462968142218F082FC22463846E0
:101730004B491BF0CDFD224638464E491BF0A0FE1A
:10174000234622464C49384616F0BAFC306851F020
:1017500013FD07464246414616F09EFF6FF0040314
:10176000296838461122009418F062FC2246384657
:101770003B491BF0ADFD2246384640491BF080FE38
:10178000234622463E49384616F09AFC30685AF005
:1017900095FA3C4D2146482228605AF02BFB224600
:1017A000286803215AF0BEFA214628685AF048FBFF
:1017B000286801215AF000FB214628685AF08AFA6D
:1017C0002868402116F008FF18224FF4AF712868EE
:1017D00016F0DCFE286817F01BFB8046306851F0DD
:1017E000CBFC07464246414616F056FF00940523BF
:1017F00038462968142218F01BFC2246384618493E
:101800001BF066FD224638461A491BF039FE234676
:1018100022461D49384616F053FC306851F0ACFCA6
:1018200006464246414616F037FF6FF0040329682A
:1018300030461122009418F0FBFB2246304608493E
:101840001BF046FD224630460C491BF019FE23468C
:10185000224630460D4904B0BDE8F04116F030BCD8
:10186000E0020020647D0D080C030020C0FA0C0883
:101870000803002074FA0C087514000878FA0C08A4
:1018800075130008040300205514000855130008C0
:101890002DE9F041814884B049F01AFF80497F4822
:1018A0004AF006FA6FF07F4047F0D6FF0346C3F3D5
:1018B0000721C3F307427B4E8DF80C308DF80E20C4
:1018C0008DF80D10039975484AF0E2F9306855F02B
:1018D0000BFD0446002155F0C7FD2046012155F0BF
:1018E0006DFE2046704955F00BFD4C2202230092FC
:1018F00031681A46204618F09BFB30685AF0DEF932
:101900006A4D4822002128605AF074FA00222868A3
:1019100003215AF007FA286800215AF091FA286842
:1019200001215AF049FA286800215AF0D3F92868B1
:10193000402116F051FE58225021286816F026FE4C
:10194000286817F065FA8046306851F015FC0024CD
:1019500007464246414616F09FFE0094052338464E
:101960002968142218F064FB224638464B491BF0C4
:10197000AFFC224638464E491BF082FD23462246E4
:101980004C49384616F09CFB306851F0F5FB074691
:101990004246414616F080FE6FF00403296838463F
:1019A0001122009418F044FB224638463B491BF0B4
:1019B0008FFC2246384640491BF062FD23462246F2
:1019C0003E49384616F07CFB30685AF077F93C4DBA
:1019D0002146482228605AF00DFA22462868032141
:1019E0005AF0A0F9214628685AF02AFA28680121FD
:1019F0005AF0E2F9214628685AF06CF9286840212B
:101A000016F0EAFD58224FF4AF71286816F0BEFDBB
:101A1000286817F0FDF98046306851F0ADFB0746A5
:101A20004246414616F038FE0094052338462968A0
:101A3000142218F0FDFA2246384618491BF048FCDB
:101A4000224638461A491BF01BFD234622461D49F3
:101A5000384616F035FB306851F08EFB064642469C
:101A6000414616F019FE6FF0040329683046112232
:101A7000009418F0DDFA2246304608491BF028FC95
:101A8000224630460C491BF0FBFC234622463046DA
:101A90000D4904B0BDE8F04116F012BBD40200209D
:101AA000647D0D080C030020D4FA0C08000300200C
:101AB00074FA0C08B514000878FA0C08B51300087D
:101AC000FC02002095140008951300082DE9F04150
:101AD000814884B049F0FCFD80497F484AF0E8F82D
:101AE0006FF07F4047F0B8FE0346C3F30721C3F30E
:101AF00007427B4E8DF80C308DF80E208DF80D10BE
:101B0000039975484AF0C4F8306855F0EDFB044677
:101B1000002155F0A9FC2046012155F04FFD20463B
:101B2000704955F0EDFB96210091042331680222A3
:101B3000204618F07DFA30685AF0C0F86A4D482205
:101B4000002128605AF056F90022286803215AF033
:101B5000E9F8286800215AF073F9286801215AF041
:101B60002BF9286800215AF0B5F82868402116F0B2
:101B700033FD98225021286816F008FD286817F0D8
:101B800047F98046306851F0F7FA0024074642468C
:101B9000414616F081FD0094052338462968142239
:101BA00018F046FA224638464B491BF091FB224674
:101BB00038464E491BF064FC234622464C493846C1
:101BC00016F07EFA306851F0D7FA07464246414691
:101BD00016F062FD6FF00403296838461122009464
:101BE00018F026FA224638463B491BF071FB224684
:101BF000384640491BF044FC234622463E493846BD
:101C000016F05EFA30685AF059F83C4D21464822E9
:101C100028605AF0EFF82246286803215AF082F82B
:101C2000214628685AF00CF9286801215AF0C4F8B6
:101C3000214628685AF04EF82868402116F0CCFC5E
:101C400098224FF4AF71286816F0A0FC286817F0AE
:101C5000DFF88046306851F08FFA07464246414629
:101C600016F01AFD0094052338462968142218F04E
:101C7000DFF92246384618491BF02AFB224638462F
:101C80001A491BF0FDFB234622461D49384616F033
:101C900017FA306851F070FA06464246414616F08F
:101CA000FBFC6FF00403296830461122009418F001
:101CB000BFF92246304608491BF00AFB224630464F
:101CC0000C491BF0DDFB2346224630460D4904B08B
:101CD000BDE8F04116F0F4B9C8020020647D0D089B
:101CE0000C030020E8FA0C08F802002074FA0C0833
:101CF000F514000878FA0C08F5130008F402002027
:101D0000D5140008D51300082DE9F041814884B0AE
:101D100049F0DEFC80497F4849F0CAFF6FF07F4000
:101D200047F09AFD0346C3F30721C3F307427B4EF6
:101D30008DF80C308DF80E208DF80D100399754834
:101D400049F0A6FF306855F0CFFA0446002155F05F
:101D50008BFB2046012155F031FC2046704955F09F
:101D6000CFFAD2210091072331680222204618F0D1
:101D70005FF9306859F0A2FF6A4D482200212860BF
:101D80005AF038F800222868032159F0CBFF286860
:101D900000215AF055F8286801215AF00DF82868FA
:101DA000002159F097FF2868402116F015FCD82231
:101DB0005021286816F0EAFB286817F029F88046B9
:101DC000306851F0D9F9002407464246414616F0E2
:101DD00063FC0094052338462968142218F028F97A
:101DE000224638464B491BF073FA224638464E4984
:101DF0001BF046FB234622464C49384616F060F954
:101E0000306851F0B9F907464246414616F044FCA5
:101E10006FF00403296838461122009418F008F97D
:101E2000224638463B491BF053FA22463846404981
:101E30001BF026FB234622463E49384616F040F961
:101E4000306859F03BFF3C4D21464822286059F04C
:101E5000D1FF22462868032159F064FF21462868F3
:101E600059F0EEFF2868012159F0A6FF21462868A5
:101E700059F030FF2868402116F0AEFBD8224FF40D
:101E8000AF71286816F082FB286816F0C1FF804603
:101E9000306851F071F907464246414616F0FCFBA6
:101EA0000094052338462968142218F0C1F8224608
:101EB000384618491BF00CFA224638461A491BF0DE
:101EC000DFFA234622461D49384616F0F9F83068F5
:101ED00051F052F906464246414616F0DDFB6FF0DE
:101EE0000403296830461122009418F0A1F8224614
:101EF000304608491BF0ECF9224630460C491BF0ED
:101F0000BFFA2346224630460D4904B0BDE8F041F1
:101F100016F0D6B8BC020020647D0D080C0300202A
:101F2000FCFA0C08F002002074FA0C0835150008C1
:101F300078FA0C0835140008EC020020151500088A
:101F40001514000870B582B0044651F015F900234D
:101F50006FF02F0506461A46404916F0B1F81423D3
:101F60000D2221463046009518F062F8304655F0B3
:101F7000BBF906463A4955F0C3F9304618F054FC0F
:101F8000204651F0F9F8002306461A46354916F066
:101F900097F882230D2221463046009518F048F824
:101FA000304655F0A1F906462F4955F0A9F93046BB
:101FB00018F03AFC204651F0DFF8002306461A4696
:101FC0002A4916F07DF800230E222146304600955E
:101FD00018F02EF8304655F087F90646244955F09A
:101FE0008FF9304618F020FC204651F0C5F8002348
:101FF00006461A461F4916F063F86FF08B030F224E
:1020000021463046009518F013F8304655F06CF92B
:102010000646194955F074F9304618F005FC20467B
:1020200051F0AAF8002306461A46144916F048F85B
:102030006FF03B030F2221463046009517F0F8FF62
:10204000304655F051F904460D4955F059F92046EE
:1020500002B0BDE8704018F0E7BB00BF11210008D6
:1020600014FB0C08151600081CFB0C08D5150008FD
:1020700024FB0C089515000828FB0C0855150008D2
:102080002CFB0C0830B5002083B014F031FA1F4C43
:102090001221206014F0B8FA0020256847F0DCFB1C
:1020A00003468DF80030C3F30721C3F307438DF8CF
:1020B00002308DF801100099002228461BF0ACF97F
:1020C0000020256847F0C8FB03468DF80430C3F3B1
:1020D0000721C3F307438DF806308DF80510002261
:1020E000284601991BF0B6F9FFF7B4FAFFF7D0FBC9
:1020F000FFF70AFEFFF7EAFC2068FFF723FF2068DE
:1021000003B0BDE830401DF0E5BF00BF0C03002068
:1021100010B582B047F0ECFF0A2801D002B010BD24
:10212000084C40F2ED12084B08490420009448F096
:10213000FBFB1EF01BF91BF0F9FC02B0BDE81040E0
:10214000FFF7A0BFB8FA0C0818310D089CFA0C086C
:1021500038B5054647F0CCFF0446284647F0C6FF91
:10216000232C00D038BD0421BDE8384014F008BE4F
:1021700038B5054647F0BCFF0446284647F0B6FF91
:10218000232C00D038BD0421BDE8384014F0F8BD40
:1021900038B5054647F0ACFF0446284647F0A6FF91
:1021A000232C00D038BD0421BDE8384014F0E8BD30
:1021B00038B5054647F09CFF0446284647F096FF91
:1021C000232C00D038BD0421BDE8384014F0D8BD20
:1021D00038B5054647F08CFF0446284647F086FF91
:1021E000232C00D038BD0421BDE8384014F0C8BD10
:1021F00038B5054647F07CFF0446284647F076FF91
:10220000232C00D038BD0421BDE8384014F0B8BDFF
:1022100038B5054647F06CFF0446284647F066FF90
:10222000232C00D038BD0421BDE8384014F0A8BDEF
:1022300038B5054647F05CFF0446284647F056FF90
:10224000232C00D038BD0421BDE8384014F098BDDF
:1022500038B5054647F04CFF0446284647F046FF90
:10226000232C00D038BD0421BDE8384014F088BDCF
:10227000F0B5354885B049F02BFA6FF07F4047F054
:10228000EBFA0346C3F30721C3F307428DF80C3082
:102290002E4D8DF80E208DF80D1003992A4849F027
:1022A000F7FC286855F020F8294C002226492060C8
:1022B0001BF00EF82068274955F022F80222012170
:1022C000206816F063F928685AF022FA0023224C9D
:1022D0001A462249206015F0F3FE2068082114F008
:1022E0002DF92068042114F025FA1E2230212068DF
:1022F00016F04CF9286854F0F7FF06460027002234
:1023000011491AF0E5FF3046154954F0F9FF0097DE
:10231000052321681422304617F08AFE286854F0FD
:10232000E3FF05463A4608491AF0D2FF28460D4910
:1023300054F0E6FF21686FF004031122284600974D
:1023400017F076FE05B0F0BD7C030020B00300203E
:10235000A803002034FB0C08AC0300205121000826
:1023600040FB0C0848FB0C08F0B5354885B049F037
:10237000AFF96FF07F4047F06FFA0346C3F30721D0
:10238000C3F307428DF80C302E4D8DF80E208DF8DA
:102390000D1003992A4849F07BFC286854F0A4FFEB
:1023A000294C0022264920601AF092FF2068274914
:1023B00054F0A6FF46220121206816F0E7F82868AD
:1023C0005AF0A6F90023224C1A462249206015F043
:1023D00077FE2068082114F0B1F82068042114F079
:1023E000A9F95E223021206816F0D0F8286854F050
:1023F0007BFF06460027002211491AF069FF30468C
:10240000154954F07DFF00970523216814223046BA
:1024100017F00EFE286854F067FF05463A46084953
:102420001AF056FF28460D4954F06AFF21686FF0F4
:10243000040311222846009717F0FAFD05B0F0BDFD
:1024400070030020B0030020A80300204CFB0C0800
:10245000A40300207121000840FB0C0848FB0C0875
:10246000F0B5354885B049F033F96FF07F4047F05B
:10247000F3F90346C3F30721C3F307428DF80C3089
:102480002E4D8DF80E208DF80D1003992A4849F035
:10249000FFFB286854F028FF294C002226492060C1
:1024A0001AF016FF2068274954F02AFF86220121DE
:1024B000206816F06BF828685AF02AF90023224C9D
:1024C0001A462249206015F0FBFD2068082114F00F
:1024D00035F82068042114F02DF99E22302120685F
:1024E00016F054F8286854F0FFFE06460027002234
:1024F00011491AF0EDFE3046154954F001FF0097DE
:10250000052321681422304617F092FD286854F004
:10251000EBFE05463A4608491AF0DAFE28460D4910
:1025200054F0EEFE21686FF0040311222846009754
:1025300017F07EFD05B0F0BD64030020B00300205D
:10254000A803002054FB0C08A003002091210008E0
:1025500040FB0C0848FB0C08F0B5354885B049F045
:10256000B7F86FF07F4047F077F90346C3F30721D0
:10257000C3F307428DF80C302E4D8DF80E208DF8E8
:102580000D1003992A4849F083FB286854F0ACFEEB
:10259000294C0022264920601AF09AFE206827491B
:1025A00054F0AEFEC9220121206815F0EFFF286823
:1025B0005AF0AEF80023224C1A462249206015F04A
:1025C0007FFD2068082113F0B9FF2068042114F072
:1025D000B1F8DE223021206815F0D8FF286854F0C9
:1025E00083FE06460027002211491AF071FE30468C
:1025F000154954F085FE00970523216814223046C2
:1026000017F016FD286854F06FFE05463A46084953
:102610001AF05EFE28460D4954F072FE21686FF0F4
:10262000040311222846009717F002FD05B0F0BD03
:1026300058030020B0030020A80300205CFB0C0816
:102640009C030020B121000840FB0C0848FB0C084B
:10265000F0B5364885B049F03BF86FF07F4047F061
:10266000FBF80346C3F30721C3F307428DF80C3090
:102670002F4D8DF80E208DF80D1003992B4849F041
:1026800007FB286854F030FE2A4C002227492060BE
:102690001AF01EFE2068284954F032FE02224FF440
:1026A000A571206815F072FF28685AF031F80023F0
:1026B000224C1A462249206015F002FD20680821AC
:1026C00013F03CFF2068042114F034F81E224FF46C
:1026D000B971206815F05AFF286854F005FE0646C7
:1026E0000027002211491AF0F3FD3046154954F035
:1026F00007FE0097052321681422304617F098FC46
:10270000286854F0F1FD05463A4608491AF0E0FD04
:1027100028460D4954F0F4FD21686FF0040311229E
:102720002846009717F084FC05B0F0BD4C0300204C
:10273000B0030020A803002068FB0C0898030020C9
:10274000D121000840FB0C0848FB0C08F0B53648C6
:1027500085B048F0BDFF6FF07F4047F07DF803463D
:10276000C3F30721C3F307428DF80C302F4D8DF8CA
:102770000E208DF80D1003992B4849F089FA28682E
:1027800054F0B2FD2A4C0022274920601AF0A0FD27
:102790002068284954F0B4FD46224FF4A571206802
:1027A00015F0F4FE286859F0B3FF0023224C1A46B6
:1027B0002249206015F084FC2068082113F0BEFE39
:1027C0002068042113F0B6FF5E224FF4B97120682F
:1027D00015F0DCFE286854F087FD0646002700222D
:1027E00011491AF075FD3046154954F089FD0097DE
:1027F000052321681422304617F01AFC286854F08B
:1028000073FD05463A4608491AF062FD28460D490F
:1028100054F076FD21686FF00403112228460097DA
:1028200017F006FC05B0F0BD40030020B003002007
:10283000A803002078FB0C0894030020F121000875
:1028400040FB0C0848FB0C08F0B5364885B048F052
:102850003FFF6FF07F4046F0FFFF0346C3F30721C1
:10286000C3F307428DF80C302F4D8DF80E208DF8F4
:102870000D1003992B4849F00BFA286854F034FDE9
:102880002A4C0022274920601AF022FD206828499E
:1028900054F036FD86224FF4A571206815F076FEBF
:1028A000286859F035FF0023224C1A46224920603F
:1028B00015F006FC2068082113F040FE2068042172
:1028C00013F038FF9E224FF4B971206815F05EFEB8
:1028D000286854F009FD06460027002211491AF025
:1028E000F7FC3046154954F00BFD0097052321688D
:1028F0001422304617F09CFB286854F0F5FC05467E
:102900003A4608491AF0E4FC28460D4954F0F8FC10
:1029100021686FF0040311222846009717F088FB06
:1029200005B0F0BD34030020B0030020A803002050
:1029300080FB0C08900300201122000840FB0C08CB
:1029400048FB0C08F0B5364885B048F0C1FE6FF082
:102950007F4046F081FF0346C3F30721C3F30742DC
:102960008DF80C302F4D8DF80E208DF80D10039939
:102970002B4849F08DF9286854F0B6FC2A4C002207
:10298000274920601AF0A4FC2068284954F0B8FCBC
:10299000C9224FF4A571206815F0F8FD286859F098
:1029A000B7FE0023224C1A462249206015F088FB0E
:1029B0002068082113F0C2FD2068042113F0BAFE3C
:1029C000DE224FF4B971206815F0E0FD286854F05C
:1029D0008BFC06460027002211491AF079FC30468C
:1029E000154954F08DFC00970523216814223046C8
:1029F00017F01EFB286854F077FC05463A46084954
:102A00001AF066FC28460D4954F07AFC21686FF0F4
:102A1000040311222846009717F00AFB05B0F0BD09
:102A200028030020B0030020A803002088FB0C0826
:102A30008C0300203122000840FB0C0848FB0C08E6
:102A4000F0B5354885B048F043FE6FF07F4046F062
:102A500003FF0346C3F30721C3F307428DF80C308D
:102A60002E4D8DF80E208DF80D1003992A4849F04F
:102A70000FF9286854F038FC294C002226492060C0
:102A80001AF026FC2068274954F03AFC0222B921AA
:102A9000206815F07BFD286859F03AFE0023224C8F
:102AA0001A462249206015F00BFB2068082113F01C
:102AB00045FD2068042113F03DFE1E22D52120682B
:102AC00015F064FD286854F00FFC0646002700222C
:102AD00011491AF0FDFB3046154954F011FC0097DE
:102AE000052321681422304617F0A2FA286854F012
:102AF000FBFB05463A4608491AF0EAFB28460D4911
:102B000054F0FEFB21686FF0040311222846009761
:102B100017F08EFA05B0F0BD1C030020B0030020B2
:102B2000A803002094FB0C08880300205122000811
:102B3000A0FB0C08A8FB0C0830B5234883B048F074
:102B4000C7FD0221204849F06BF8122048F092F9A5
:102B50000346C3F30721C3F307428DF804308DF811
:102B600006208DF805100199184D174849F064F8B2
:102B70000121154849F05AF8286855F0D9FB044658
:102B80000222134955F0E0FB204600220E491AF0BC
:102B90009FFB04223221204615F0F8FC286855F0EE
:102BA000C7FB044602220B4955F0CEFB204600220B
:102BB00005491AF08DFB04229621204603B0BDE89A
:102BC000304015F0E3BC00BF10030020B00300202C
:102BD000140000200400002030B5002083B013F062
:102BE00087FC254C1221206013F00EFD0020256883
:102BF00046F032FE03468DF80030C3F30721C3F3DD
:102C000007438DF802308DF8011000990022284604
:102C10001AF002FC0020256846F01EFE03468DF8DF
:102C20000430C3F30721C3F307438DF806308DF852
:102C300005100022284601991AF00CFCFFF718FB3A
:102C4000FFF792FBFFF70CFCFFF786FCFFF774FF22
:102C5000FFF7FEFCFFF77AFDFFF7F6FDFFF772FEC8
:102C6000FFF7EEFE2068FFF76DF9206803B0BDE8BE
:102C700030401DF02FBA00BFB003002010B582B065
:102C800047F036FA0A2803D023280BD002B010BD33
:102C90006A22064C0420064B0649009447F044FE85
:102CA00002B010BD6D22044CF4E700BFB8FA0C0866
:102CB000D0310D08ACFB0C08C4FB0C0810B582B079
:102CC00047F016FA0A2803D023280BD002B010BD13
:102CD0005922064C0420064B0649009447F024FE76
:102CE00002B010BD5C22044CF4E700BFB8FA0C0837
:102CF000BC310D08ACFB0C08D4FB0C0810B582B03D
:102D000047F0F6F90A2803D023280BD002B010BDF3
:102D10004822064C0420064B0649009447F004FE66
:102D200002B010BD4B22044CF4E700BFB8FA0C0807
:102D3000A8310D08ACFB0C08E4FB0C0810B582B000
:102D400047F0D6F90A2803D023280BD002B010BDD3
:102D50003722064C0420064B0649009447F0E4FD58
:102D600002B010BD3A22044CF4E700BFB8FA0C08D8
:102D700094310D08ACFB0C08F4FB0C0810B582B0C4
:102D800047F0B6F90A2801D002B010BD044CA922C0
:102D90000420044B0449009447F0C6FD02B010BD66
:102DA00004FC0C087C310D08ACFB0C0838B54A4D0E
:102DB0004A4C286850F0E0F9002349491A4620603F
:102DC00015F07EF92068082113F0B8FB20686FF039
:102DD000404115F031FC6FF013036FF0B30209218D
:102DE000206815F0F1FE206854F07EFA04463D4953
:102DF00054F086FA204617F017FD286850F0BCF909
:102E00000023394C1A463949206015F059F92068D9
:102E1000082113F093FB20686FF0404115F00CFC83
:102E20006FF013036FF03B020921206815F0CCFE10
:102E3000206854F059FA04462D4954F061FA2046AE
:102E400017F0F2FC286850F097F90023294C1A4635
:102E50002949206015F034F92068082113F06EFB31
:102E600020686FF0404115F0E7FB6FF013033C2240
:102E70000921206815F0A8FE206854F035FA0446B0
:102E80001E4954F03DFA204617F0CEFC286850F059
:102E900073F900231A4C1A461A49206015F010F9EC
:102EA0002068082113F04AFB20686FF0404115F0BC
:102EB000C3FB6FF01303B4220921206815F084FED0
:102EC000206854F011FA04460F4954F019FA2046CC
:102ED000BDE8384017F0A8BCD4030020CC03002084
:102EE0003D2D000814FC0C08D0030020FD2C000828
:102EF0001CFC0C08C8030020BD2C000824FC0C0896
:102F0000C40300207D2C00082CFC0C08104B10B5CD
:102F1000186850F031F900230E4C1A460E49206013
:102F200015F0CEF820686FF0404115F085FB0122C6
:102F30002068114615F02AFB206854F0D5F90446A4
:102F4000064954F0DDF92046BDE8104017F06CBC8E
:102F5000D4030020C00300207D2D000834FC0C08A1
:102F600030B5002087B013F0C3FA384C122120602E
:102F700013F04AFB0020256846F06EFC03468DF8EE
:102F80000C30C3F30721C3F307438DF80E308DF8DF
:102F90000D100399002228461AF03EFA00202568F9
:102FA00046F05AFC03468DF81030C3F30721C3F3F3
:102FB00007438DF812308DF811100022049928462D
:102FC0001AF048FA224848F083FB2249204848F08A
:102FD0006FFE6FF07F4046F03FFC0346C3F30722CD
:102FE0008DF81430C3F307438DF816308DF8152093
:102FF0000599174848F04CFE206854F075F90546CD
:10300000002154F031FA2846012154F0D7FA28461D
:10301000114954F075F9284600220D491AF058F963
:103020001E21009100230B222846216817F000F88A
:10303000FFF76CFFFFF7BAFE2068FEF783FF2068FA
:1030400007B0BDE830401DF045B800BFD4030020F4
:10305000B4030020647D0D083CFC0C0808B547F063
:1030600047F8042802D0092800D008BD024B186890
:10307000BDE8084058F0AEBFFC03002010B547F093
:1030800037F8042802D0092800D010BD0A4C206867
:1030900058F0A0FF206858F011FFBDE8104001462D
:1030A000064A074B82FB012CCA17C2EB6C1205487B
:1030B0001A6000F033BF00BF000400201F85EB51F1
:1030C000240000204CFC0C0810B547F011F804282F
:1030D00002D0092800D010BD0A4C206858F03EFFED
:1030E000206858F0EBFEBDE810400146064A074B49
:1030F00082FB012CCA17C2EB6C1205481A6000F063
:103100000DBF00BF000400201F85EB5124000020EC
:103110004CFC0C0808B546F0EBFF042802D0092847
:1031200000D008BD024B1868BDE8084058F016BF33
:10313000FC0300202DE9F041524884B048F0C8FA61
:103140005149504848F0B4FD6FF07F4046F084FB91
:103150000346C3F30721C3F307428DF80C308DF803
:103160000E20DFF844818DF80D100399454848F092
:103170008FFDD8F8000054F0B7F80446002154F051
:1031800073F92046012154F019FA20463F4954F0C2
:10319000B7F8182100910223D8F800100122204628
:1031A00016F046FFD8F8000058F088FD384C42F67B
:1031B0003A224FF4C851206058F01CFE03222068C8
:1031C000052158F0AFFD2068002158F039FE206835
:1031D0000A2158F0F1FD2F4B2068196858F07AFD4C
:1031E0002068502115F0F8F930225021206815F0A0
:1031F000CDF9206815F00CFE0746D8F800004FF016
:10320000BBFF002506463A46394615F045FA0095BB
:10321000052330462168142216F00AFF2A4630465C
:1032200018491AF055F82A4630461B491AF028F971
:103230002B462A461949304614F042FFD8F80000C0
:103240004FF09AFF06463A46394615F025FA6FF0D8
:103250000403216830461122009516F0E9FE2A4643
:10326000304608491AF034F82A4630460C491AF01C
:1032700007F92B462A4630460A4904B0BDE8F0411A
:1032800014F01EBFE4030020647D0D0860FC0C08F0
:10329000000400202400002074FA0C08C930000843
:1032A00078FA0C087D300008040400202DE9F04174
:1032B000524884B048F00CFA5149504848F0F8FCA4
:1032C0006FF07F4046F0C8FA0346C3F30721C3F30B
:1032D00007428DF80C308DF80E20DFF840818DF814
:1032E0000D100399454848F0D3FCD8F8000053F07E
:1032F000FBFF0446002154F0B7F82046012154F0AA
:103300005DF920463F4953F0FBFF6C2100910223F9
:10331000D8F800100122204616F08AFED8F80000E6
:1033200058F0CCFC384C40F6B8324FF47A7120603B
:1033300058F060FD03222068052158F0F3FC206856
:10334000002158F07DFD20680A2158F035FD2068E5
:103350004FF47A7158F0BEFC2068502115F03CF90A
:1033600084225021206815F011F9206815F050FDD5
:103370000746D8F800004FF0FFFE002506463A4603
:10338000394615F089F90095052330462168142245
:1033900016F04EFE2A463046184919F099FF2A4683
:1033A00030461A491AF06CF82B462A46184930461E
:1033B00014F086FED8F800004FF0DEFE06463A46CE
:1033C000394615F069F96FF004032168304611227F
:1033D000009516F02DFE2A463046084919F078FF70
:1033E0002A4630460B491AF04BF82B462A463046FF
:1033F000094904B0BDE8F04114F062BED8030020D2
:10340000647D0D087CFC0C08FC03002074FA0C0899
:103410001531000878FA0C085D300008040400201B
:1034200030B5002087B013F063F8374C12212060CC
:1034300013F0EAF80020256846F00EFA03468DF8EE
:103440000C30C3F30721C3F307438DF80E308DF81A
:103450000D1003990022284619F0DEFF0020256890
:1034600046F0FAF903468DF81030C3F30721C3F391
:1034700007438DF812308DF8111000220499284668
:1034800019F0E8FF214848F023F921491F4848F086
:103490000FFC6FF07F4046F0DFF90346C3F30722CD
:1034A0008DF81430C3F307438DF816308DF81520CE
:1034B0000599164848F0ECFB206853F015FF0546C7
:1034C000002153F0D1FF2846012154F077F8284617
:1034D000104953F015FF284600220C4919F0F8FE58
:1034E0000222009200232846216816F0A1FDFFF772
:1034F00021FEFFF7DBFE2068FEF724FD206807B001
:10350000BDE830401CF0E6BD04040020F0030020BC
:10351000647D0D0894FC0C08034670B50E460E49F8
:1035200014465BBA02225D200B8000F075F9254637
:10353000044608B1204670BD2A465D20074900F0C8
:1035400085F904460028F5D12A46304603495BF048
:10355000F5FD204670BD00BF6C060020A4050020CC
:1035600030B585B004AB03E9070000F03DF9002257
:103570000221444802F01EFC00224FF480714248B0
:1035800002F018FC0A2000F045F9002202213D4813
:1035900002F010FC022000F03DF90122022139481E
:1035A00002F008FC0A2000F035F900F009F9642067
:1035B00000F030F944F28103344902225D200B808F
:1035C00000F02AF908B105B030BD314C0422214683
:1035D0005D2000F03BF90028F5D121682D4B022237
:1035E000196048F244102C49FFF796FF0028EAD1F1
:1035F0002A4B03F1B80113F8012F10449942C0B2CD
:10360000F9D14FF48F432649404281F8B80025484C
:10361000BA22851E20F8023C5BF090FDBC225D20A2
:10362000294600F0F9F80028CDD14FF4814C102341
:1036300003225D202946A5F800C0AB7000F0ECF82D
:103640000028C0D1C8200FF069FC8123022229463E
:103650005D202B8000F0E0F80028B4D101225D202D
:103660000B4900F0F3F80028ADD1BA2248F2470028
:103670000D4B24780D491C7005B0BDE83040FFF7B4
:103680004BBF00BF00080242000402426C0600204B
:10369000A405002098050020D00400202F00002061
:1036A000300000206E0600202800002008040020C2
:1036B0000B4670B58AB028220021054668461C4694
:1036C0005BF0AFFC44F681632D4902225D200B8044
:1036D00000F0A2F810B100200AB070BD294E0122FE
:1036E00031465D2000F0B2F80028F4D196F90020B0
:1036F0003378002AEFDA03F00F032370013B042B29
:103700000FD9002344F681651D4903225D200D80F9
:103710008B7000F081F82078003818BF01200AB0C3
:1037200070BD45F28103164902225D200B8000F036
:1037300073F80028E5D122786946D2005D2002F0B6
:10374000F80200F083F80028DBD12378002BD8D0D2
:103750000246A81CD300DBB26B445E78197841EABC
:10376000062125F82210D9789B7843EA012320F816
:10377000223021780132D3B29942EBD8C1E700BFA1
:103780006C060020A4050020002310B586B00C466E
:1037900001A80DF10301CDE90133CDE90333059310
:1037A000FFF786FF38B1BDF80630BDF80420C3F539
:1037B000F073C4E9093284F8200006B010BD00BFE0
:1037C00000234FF4807200B587B0054801A9CDE908
:1037D0000123CDE90333059302F020FA07B000BDC1
:1037E000000402420000000000239FED077B00B5AB
:1037F00087B0694606488DED007BCDE9023304931E
:1038000002F00CFA07B000BD00010000010000004A
:103810000004024201F0DCBD844610B54FF0FF34D5
:1038200082B04FEA4C0C134607480A4600940CF04D
:10383000FE0102F0ADFC28B10238C0B201288CBFF5
:103840000120022002B010BD487A0020844610B545
:103850004FF0FF3482B04FEA4C0C134607480A463B
:1038600000940CF0FE0102F04FFD28B10238C0B206
:1038700001288CBF0120022002B010BD487A002030
:1038800010B5002282B004464FF480510C4802F07B
:1038900091FA002240210B4802F08CFA01230DF12D
:1038A00007011A4608488DF8074008F041FC01223C
:1038B0004FF48051024802B0BDE8104002F07ABADD
:1038C0000004024200080242A07C002010B5012240
:1038D00082B0044640210D4802F06CFA00224FF4F9
:1038E00080510B4802F066FA01230DF107011A46D8
:1038F00008488DF8074008F01BFC01224FF4805166
:10390000034802B0BDE8104002F054BA0008024279
:1039100000040242A07C0020F8B5074616460D467A
:103920001C462A20FFF7ACFF380AFFF7CFFFF8B29A
:10393000FFF7CCFF300AFFF7C9FFF0B2FFF7C6FF71
:103940002B20FFF79DFF280AFFF7C0FFE8B2FFF723
:10395000BDFF200AFFF7BAFFE0B2FFF7B7FFBDE8EF
:10396000F8402C20FFF78CBF012208B511460C4807
:1039700002F020FA142001F02BFD0022012108485A
:1039800002F018FA642001F023FD012204481146D8
:1039900002F010FABDE80840642001F019BD00BF34
:1039A0000008024208B5FFF7DFFF0120FFF768FFBC
:1039B000642001F00DFD2820FFF762FFF720FFF7DC
:1039C0005FFFA920FFF782FF5120FFF77FFF2C2028
:1039D000FFF77CFF8220FFF779FFC020FFF750FF41
:1039E0001120FFF773FF0920FFF770FFC120FFF7D9
:1039F00047FF4120FFF76AFFC520FFF741FF002086
:103A0000FFF764FF0A20FFF761FF8020FFF75EFFEA
:103A1000B120FFF735FFB020FFF758FF1120FFF767
:103A200055FFB420FFF72CFF0220FFF74FFFB62011
:103A3000FFF726FF0220FFF749FF4220FFF746FF6E
:103A4000B720FFF71DFFC620FFF740FFBE20FFF79E
:103A500017FF0020FFF73AFF0420FFF737FFE920A8
:103A6000FFF70EFF0020FFF731FF3620FFF708FFBA
:103A7000E020FFF72BFF3A20FFF702FF6620FFF759
:103A800025FFE020FFF7FCFE0020FFF71FFF0720C7
:103A9000FFF71CFF0F20FFF719FF0D20FFF716FFA0
:103AA0001B20FFF713FF0A20FFF710FF3C20FFF752
:103AB0000DFF7820FFF70AFF4A20FFF707FF0720D6
:103AC000FFF704FF0E20FFF701FF0920FFF7FEFEBE
:103AD0001B20FFF7FBFE1E20FFF7F8FE0F20FFF76D
:103AE000F5FEE120FFF7CCFE0020FFF7EFFE2220DD
:103AF000FFF7ECFE2420FFF7E9FE0620FFF7E6FEC5
:103B00001220FFF7E3FE0720FFF7E0FE3620FFF765
:103B1000DDFE4720FFF7DAFE4720FFF7D7FE06203D
:103B2000FFF7D4FE0A20FFF7D1FE0720FFF7CEFEF5
:103B30003020FFF7CBFE3720FFF7C8FE0F20FFF73E
:103B4000C5FE2120FFF79CFE1120FFF799FE78208B
:103B500001F03EFCBDE808402920FFF791BE00BF00
:103B60002DE9F04701EB4106B6F5167F054600AF9B
:103B70003BD20C46012240212F4802F01BF90022C3
:103B80004FF480512D4802F015F92B0AE908EA009C
:103B900003F0F805E31D23F00703ADEB030DE84642
:103BA00001F0FC01D2B2002C44D043460020033087
:103BB000A0421D7059709A7003F10303F7D3B6FB4E
:103BC000F4F9A64204FB196A28D20A2341461FFAD7
:103BD0008AF21B4808F0ACFA01224FF480511748D2
:103BE00002F0E8F8BD46BDE8F08701224021124806
:103BF00002F0E0F800224FF48051104802F0DAF8A9
:103C0000E908EA002B0AADF5167D4FF41674E84674
:103C100003F0F80501F0FC01D2B2C6E70025A4B21A
:103C20000A23224641460648013508F081FAA94593
:103C3000F6D8CAE7FFDE00BF0008024200040242D5
:103C4000A07C0020002170B504460A4E0A4D32883F
:103C50002B8808469BB292B2FFF75EFE3388298814
:103C60009BB289B22046BDE8704003FB01F1FFF72B
:103C700077BF00BFEA000020EC000020F8B5064640
:103C800008460D46174645F0BFFB0446284645F05A
:103C9000C1FB00FB04F4AB892A89A9882888FFF7B7
:103CA0003BFE012240210E4802F084F804EB44045C
:103CB00000224FF480510B4802F07CF84FF0FF33A4
:103CC0003946A2B2084808F033FA064801224FF4F8
:103CD000805102F06FF83046BDE8F8401BF014BF89
:103CE0000008024200040242A07C002010B50446F5
:103CF000012205484FF4805102F05CF82046BDE8EF
:103D000010401BF001BF00BF00040242F8B50BF0E9
:103D1000FBF9614B197800293AD0604800F0FEF8B1
:103D20005F4900225F480EF0BBF95F4C01462070EE
:103D3000002800F099805D4800F0F0F85C4A5D4989
:103D40005D480EF097FE2070002861D05B4800F0BF
:103D5000E5F85B4D5B49012228460EF0F5F9014676
:103D60002070002838D0584800F0D8F801F02AFB1D
:103D70000346564E56490122514833600EF0E4F98D
:103D80000146207040B1BDE8F840524800F0C6B886
:103D9000514800F0C3F8C3E701F014FB0346326852
:103DA0004E499B1A2A694E480A602178336000F018
:103DB000B5F84C494FF400724B4B41480EF0DEFB16
:103DC0000146207000285DD0484800F0A7F8BDE803
:103DD000F8403B480EF01ABE28460EF00DFD014695
:103DE0002A693E4E42483260217000F097F83D4902
:103DF00028463D4B32680EF0C1FB0146207000287A
:103E000036D03C4800F08AF82D480EF0FFFDADE7B3
:103E1000394800F083F8264B384F1B68186A5E89D2
:103E2000023806FB00F0FCF7A7FC0022344BFCF73D
:103E300037FAFCF71BFD05461E4B324A1968156020
:103E400001FB06F0FCF798FC00222D4BFCF728FA4A
:103E5000FCF70CFD02462C4EAB1A29462B483A6063
:103E6000336000F05BF874E7294800F057F865E725
:103E700032681C4927485BF061F91A49264800F06E
:103E80004DF8C1E72448174900F048F8BDE8F8406C
:103E90000B480EF0BBBD00BFC88600209CFC0C0880
:103EA000C48600208884002070070020C8FC0C080D
:103EB000740900206C070020F0260D0808FD0C088E
:103EC0003082002078FD0C0888FD0C085C0700207B
:103ED0002CFE0C0838FE0C08B4FC0C085807002017
:103EE00060FE0C087407002054070020A4FE0C0894
:103EF000B4FD0C0808FE0C0824FD0C086407002023
:103F00000000E03F68070020600700203CFD0C082F
:103F1000ECFC0C0834070020ECFD0C080FB482B058
:103F200003AB019302B004B0704700BF704700BFFD
:103F300008B511F025FA094C01F044FA2368C01ABB
:103F4000FA2807D901F03EFA034604210448236009
:103F500001F036FF0A200EF0E1FFEDE7980900209E
:103F60000004024208B50A200EF0D8FFFBE700BFAC
:103F700010B51D4B82B093E80700FFF7F1FAFFF789
:103F8000C5FE43F06FFA4FF4A0714FF4F0701BF0D0
:103F9000E5FA164C0F2120601BF078FD0020009000
:103FA0004FF46153124A206812491BF05BFC2068F1
:103FB00011491BF061FD0F2120681BF067FD3EF0E9
:103FC0003BF9044601213EF0A1F920460B493EF0A1
:103FD000A5F90B4846F0A2FCFCF796FE48F0BAFCA7
:103FE00005200EF09BFFF9E7F00000209C0900205F
:103FF000A0090020E04100207D3C0008893700082E
:104000002D3F0008704700BF0022014B1A60704727
:1040100094090020014B1868704700BF94090020E4
:1040200010B519480EF098FF0246184B18481A6050
:104030000EF092FF0121174B174A186008460FF047
:104040006DF80121154B164A186008460FF066F806
:104050000446144B0021144A14481C600EF004FF5F
:104060000446134B0021134A13481C600EF0FCFE5B
:104070000446124B0021124A12481C600EF0F4FE56
:10408000114B186010BD00BF14320D0884090020C8
:1040900004320D0880090020F4310D087C0900204D
:1040A000E4310D08780900206C320D08313F00081A
:1040B0009009002048320D08653F00088C09002057
:1040C00024320D08713F000888090020044B026863
:1040D0009A4200D07047034B1868FFF707BE00BF35
:1040E000003800409C0900200023012207480849AD
:1040F00010B5C0E9053301608380026201F07EFAE9
:1041000000B910BDBDE8104000F0AABA207A002026
:10411000003002400A4B02689A4200D07047094BB7
:1041200082B0D3F8882042F48052C3F88820D3F8B4
:10413000883003F480530193019B02B0704700BFA5
:1041400000300240000C024400B5104B83B0D3F89D
:104150008800002240F00100C3F88800D3F88830BE
:10416000052103F0010301931B20019B01F054F989
:104170001B2001F08BF9002205211C2001F04CF9D5
:104180001C2003B05DF804EB01F080B9000C024480
:1041900070B500248CB0CDE90644CDE908444C4B01
:1041A0000A94D3F88C20432142F00402C3F88C20F7
:1041B000D3F88C20474802F004020192019AD3F808
:1041C0008C20012542F08002C3F88C20D3F88C208B
:1041D000022602F080020292029AD3F88C2042F06A
:1041E0000102C3F88C20D3F88C2002F00102039264
:1041F000039AD3F88C2042F00202C3F88C20D3F843
:104200008C2002F002020492049AD3F88C2042F02F
:104210000802C3F88C20D3F88C30224603F0080340
:104220000593059B01F0C6FD224604212A4801F0B2
:10423000C1FD01224FF48051274801F0BBFD4FF42E
:104240000052002306A92348CDE90623089401F073
:10425000E5FC432306A91F48CDE90635CDE908460C
:1042600001F0DCFC042306A91B48CDE90635CDE9A5
:10427000084601F0D3FC4FF48053CDE90635032303
:1042800006A915480993089401F0C8FC4FF4807200
:10429000002306A91148CDE90623089501F0BEFCCC
:1042A0004FF4005306A90D480693CDE9094407963B
:1042B000089501F0B3FC4FF48072094B064806A93B
:1042C000CDE90623089401F0A9FC0CB070BD00BF35
:1042D000000C0244000802420004024200000242B4
:1042E000000011100023012210B51748174C18497F
:1042F000C4E90232C4E900012046C4E90433C4E938
:104300000633236201F0EAFE50B900210F4802F0A3
:10431000B9F868B900210D4802F0DEF880B910BD87
:1043200000F09EF90021094802F0ACF80028F1D015
:1043300000F096F90021054802F0CEF80028EED0F2
:10434000BDE8104000F08CB900540040487A0020CD
:10435000DB3FB00000000000002310B51C4A0168DC
:1043600088B09142CDE90233CDE90433069301D000
:1043700008B010BD03209FED147B0422154C02A948
:10438000D4F88C3043F00203C4F88C30D4F88C306D
:10439000059003F0020300930F48009B8DED027B14
:1043A000069201F03BFCD4F89C3043F40013C4F8AF
:1043B0009C30D4F89C3003F400130193019B08B0A7
:1043C00010BD00BFAFF30080C0000000120000006D
:1043D00000540040000C02440004024208B50020D2
:1043E00002F0A4F818B902F0B5F830B908BD00F031
:1043F00037F902F0AFF80028F8D0BDE8084000F027
:104400002FB900BFF0B59DB05022002108A85AF086
:1044100008FE0023CDE90233CDE90433CDE90633AC
:10442000254A136943F030031361136903F0300325
:104430000193019B53691B07FCD502F0ADFF1F4A96
:104440000524D2F8F0304FF4803523F01803C2F879
:10445000F03002230122CDE908450A9212937D2211
:104460001493169318930325082305240026002788
:1044700008A81993CDE91A6713951592179403F0BC
:10448000C3F9034608B172B6FEE7CDE904331F2332
:10449000214602A8CDE906670395029303F04EF882
:1044A00008B172B6FEE7064A136823F0300343F002
:1044B000200313601DB0F0BD00080244000C02444C
:1044C000002002400000000010B5C2B04FF484721A
:1044D000002168465AF0A5FD042301220321CDE9FD
:1044E000113305930C233C20039202910C910D9201
:1044F0000A21179208930822202304900E904FF46B
:1045000040309FED0F7B4FF4C024CDE90F1118927E
:104510004FF4803138923F93042204230B90684675
:104520008DED007BCDE906231594249103F0E4FD85
:1045300008B172B6FEE742B010BD00BFAFF3008015
:104540000320001010000000002400B587B0CDE962
:1045500003440294ADF80440059400F0F5FF0121F6
:104560006FF077432A482B4A059002A8CDE9032330
:10457000ADF8081000F0FCFF4FF4884301A8ADF837
:104580000430254D01F01EF8042000F0CBFF00F0B0
:10459000E7FEFFF737FFFFF797FFFFF7F9FDFFF79C
:1045A000D3FDFFF79FFEFFF719FF00F05BF800F067
:1045B00097F900F0B7FA00F063FE00F04DFC00F050
:1045C00053FD00F095FDFFF78FFD00F041F900F07D
:1045D000EBFC124808F0B6F90421284608F008FB65
:1045E0004FF400622B689A63FFF7DCF940F23F1347
:1045F00040F2DF1221462046FFF78EF92046FFF7F2
:1046000021FB0EF0BFFBFFF70BFD0EF0EFFBFEE70B
:104610000003010000F0FF08CC7D0020807D002019
:104620000C4A0368934207D00B4A934201BF0B4ADE
:10463000136801331360704710B5044600F0B6FEEE
:104640002368054A934200D010BD044A1368013321
:10465000136010BD002000400018004094090020A5
:1046600072B6FEE7002301220821142010B50D4C7C
:10467000C4E90123C4E90523C4E90733C4E90933C4
:10468000C4E90B33C4E90D13E360074B20612046F6
:10469000236009F02DFC00B910BDBDE81040FFF704
:1046A000DFBF00BF187B0020001400472DE9F04158
:1046B00000210446CCB04FF484720AA8CDE904115D
:1046C000CDE9061108915AF0ACFC5A4B22689A4287
:1046D00002D04CB0BDE8F081002202230AA8CDE947
:1046E0000A2303F009FD002840F09A80524B00266F
:1046F000D3F89420032742F48012C3F89420D3F80F
:104700009420092502F480120092009AD3F88C209C
:104710004A4842F00402C3F88C20D3F88C204FF0B2
:10472000060802F004020192019AD3F88C2042F0AC
:104730000102C3F88C20D3F88C2002F0010202920F
:10474000029AD3F88C2042F00202C3F88C20D3F8EE
:104750008C300C2203F0020303930223039904A973
:10476000CDE904230895CDE9066701F057FA402208
:104770000223334804A9CDE90423CDE90667CDF827
:10478000208001F04BFA012202232E4804A9CDE932
:104790000423CDE90667CDF8208001F03FFA4FF4FD
:1047A00080620223274804A9CDE904230895CDE9B6
:1047B0000667032501F032FA10220223214804A9DA
:1047C000CDE904230895CDE9066701F027FA002317
:1047D000012239211C4DC5E90233C5E90433C5E97D
:1047E0000633C5E90832C5E90A23C5E90C33174B7E
:1047F000284669602B6000F077FFB8B9E5641021A6
:104800001148EC6501F0EEF968B9002205214E204F
:1048100000F002FE4E2000F039FE4CB0BDE8F08101
:10482000FFF71EFF62E7FFF71BFFEEE7FFF718FF3A
:10483000E4E700BF00140047000C024400080242F5
:104840000000024200040242A07A0020D000024090
:1048500008B50023054A0648C0E9002306F044FDD8
:1048600000B908BDBDE80840FFF7FABE00080C42D9
:10487000747B00200000000010B50446C4B04FF463
:104880008472002102A85AF0CCFB134B22689A4292
:1048900001D044B010BD9FED0E7B102302A88DED1A
:1048A000027B349303F028FC70B90C4BD3F88C20B6
:1048B00042F48022C3F88C20D3F88C3003F4802398
:1048C0000193019B44B010BDFFF7CAFEEDE700BFA6
:1048D000000000040000000000080C42000C02442C
:1048E00000234FF080427F20FF2110B5254C8EB071
:1048F000CDE90133C4E90433C4E90632C4E908331D
:10490000CDE90833CDE90A33CDE90C33CDE90333E2
:10491000CDE90533079363601B4BA0602046E1603F
:10492000236006F0B3FD00BB0023164807A9CDE9BC
:104930000A3307930C9306F00FFF00BB00230122FC
:10494000104802A9CDE90533ADF808308DF80A30DA
:1049500006F0F8FD80B90D4B01220A4801A9019328
:1049600006F078FE20B90EB010BDFFF779FEDBE748
:10497000FFF776FE0EB010BDFFF772FEEBE7FFF714
:104980006FFEDBE7887B0020007800440101010016
:1049900010B50446C4B04FF48472002102A85AF046
:1049A00040FB174B22689A4201D044B010BD9FEDE6
:1049B000127B4FF4807302A88DED027B3F9303F0CE
:1049C0009BFBA0B90F4BD3F8F02042F40042C3F890
:1049D000F020D3F8A82042F40012C3F8A820D3F89E
:1049E000A83003F400130193019B44B010BDFFF7FE
:1049F00037FEE7E7AFF30080000000020000000090
:104A000000780044000C0244D0B500210446CCB02C
:104A10004FF484720AA8CDE90411CDE9061108917A
:104A20005AF0FFFA3B4B22689A4201D04CB0D0BDFD
:104A30004FF4800200230AA8CDE90A2303F05CFBAF
:104A4000002864D1344B0C24D3F89420012642F47E
:104A50000062C3F89420D3F89420032702F4006284
:104A60000192019AD3F88C202C4842F00402C3F83A
:104A70008C20D3F88C2002F004020292029AD3F820
:104A80008C2042F00802C3F88C20D3F88C304FF40D
:104A9000807203F0080303930223039904A9CDE96C
:104AA0000423CDE90667089401F0B8F84FF460627A
:104AB0000223CDE904230122022304A91748CDE9EA
:104AC0000623089401F0AAF84FF480520223CDE99E
:104AD00004230022032304A91048CDE906230894E7
:104AE00001F09CF80223042204A90D48CDE9042317
:104AF000CDE90667089401F091F8002205214F20C6
:104B000000F08AFC4F2000F0C1FC4CB0D0BDFFF794
:104B1000A7FD97E700800046000C0244000802420F
:104B2000000C024238B507220023164D4FF4C02175
:104B30004FF08060C5E90323C5E90A324FF0804297
:104B4000A9604FF00051C5E905304FF48004C5E974
:104B50000833C5E90E33C5E91233C5E914332B66B2
:104B60006A6300230022E96107492846C5E9162344
:104B70006C60296007F004FA00B938BDBDE8384020
:104B8000FFF76EBDA07C00200038004070B5002407
:104B9000304B026888B09A42CDE90244CDE9044422
:104BA000069401D008B070BD2B4B0546D3F89C206D
:104BB00002A942F48042C3F89C20D3F89C20274EDF
:104BC00002F480420092009AD3F88C2042F0020254
:104BD000C3F88C20D3F88C304FF4204203F002034A
:104BE0000193022301980320CDE9022305230590B8
:104BF0001B48069301F012F801230922C6E9084375
:104C0000C6E90A34174B3046C6E90244C6E90444F3
:104C1000C6E90644C6E90C447260336000F064FDE6
:104C200088B910210D48C5F88060F56500F0DAFFFD
:104C300060B900220521382000F0EEFB382000F09A
:104C400025FC08B070BDFFF70BFDEAE7FFF708FD94
:104C5000EFE700BF00380040000C0244247C002035
:104C6000000402425000024000220F216FF00100B8
:104C700000F0D2BB30B5264B89B0D3F89C20044657
:104C800042F48072C3F89C20D3F89C30694603F448
:104C90008073019302A8019B03F036F9059BE3B9E9
:104CA00003F0D2F80346002263251A495B09A1FBF1
:104CB00003131949DB09013B4B60184B0846C1E956
:104CC00003528A600B6008F035FA054648B17A2035
:104CD00000F0DCFB284609B030BD03F0B5F8430016
:104CE000E1E70D4807F02EFE05460028EFD10F2C16
:104CF00006D901257A2000F0C9FB284609B030BD4D
:104D0000024621467A2000F087FB054B1C60DEE757
:104D1000000C0244C55A7C0A307D0020002000406F
:104D200004010020FEE700BFFEE700BFFEE700BF72
:104D3000FEE700BFFEE700BF704700BF014800F07C
:104D400091BE00BF247C0020014800F08BBE00BF54
:104D5000A07A0020014807F053BB00BFA07C0020D0
:104D6000014808F0F1BB00BFB07E0020014808F008
:104D7000EBBB00BF187E0020014801F061BC00BF02
:104D8000447F0020014809F075B900BF187B00205E
:104D9000014806F0DBBF00BFB87B0020014808F0E7
:104DA00011B800BF807D0020014808F00BB800BF9B
:104DB000307D0020002230B44FF000641F48204BAB
:104DC000D0F8881041F47001C0F88810196801F01B
:104DD000180141F001011960DA611A621D68194970
:104DE0002940196018499A62DA621A6359639A6312
:104DF000D9631A6459649A64196821F4802119608E
:104E000012491A6584608B6903F04043B3F1404F47
:104E100001D030BC7047CB69DB0703D50C4A0D4B82
:104E2000CA60CB60094B30BCDA6942F00202DA6139
:104E3000DA6942F00102DA61704700BF00ED00E07C
:104E4000000C0244FBEAE2EA800201010020024079
:104E50003B2A19087F6E5D4C00234FF47A71802243
:104E600010B51848184C88B020602046C4E90133BA
:104E7000CDE90533CDE9023304930193E160A261EA
:104E80002361079308F056F988B94FF480530E4810
:104E900004A9049307F0AEFE80B900230A4801A9D3
:104EA0000193039308F086FA20B908B010BDFFF70C
:104EB000D7FBEAE7FFF7D4FB08B010BDFFF7D0FB44
:104EC000EBE700BF00180040807D002000B5184AC5
:104ED000036883B0934204D0164A934210D003B0C3
:104EE00000BD154BD3F89C2042F00202C3F89C2071
:104EF000D3F89C3003F002030093009B03B000BD85
:104F00000D4B0022D3F89C00052140F04000C3F86F
:104F10009C00D3F89C30782003F040030193019B60
:104F200000F07AFA782003B05DF804EB00F0AEBA36
:104F30000004004000180040000C02440000000083
:104F4000002310B5144A016888B09142CDE90233BC
:104F5000CDE90433069301D008B010BD9FED0C7B62
:104F600002240E4B0E48D3F88C2002A942F0040212
:104F7000C3F88C20D3F88C308DED027B03F0040352
:104F80000193019B069400F049FE08B010BD00BFDC
:104F9000800000000200000000040040000C0244F9
:104FA0000008024200000000002340F6FF7210B526
:104FB0002B482C4990B0CDE90533C0E90133CDE948
:104FC0000233CDE90933CDE90B33CDE90D3301606F
:104FD000C26004930193089303618361079308F00F
:104FE000A9F828BB4FF480531D4804A9049307F087
:104FF00001FE68BB1A4808F0CFF830BB0023184800
:1050000001A90193039308F0D5F9D8B900239FEDC6
:10501000127B0422124808A98DED087B0A930C9399
:1050200008F044F938B90E48FFF78AFF10B010BDF8
:10503000FFF716FBD6E7FFF713FB0948FFF780FFE2
:1050400010B010BDFFF70CFBE0E7FFF709FBD5E759
:10505000FFF706FBCEE700BF600000000000000085
:10506000CC7D00200004004000234FF4E1310C22ED
:1050700010B51D481D4C20602046C4E90113C4E949
:105080000333C4E90523C4E90733C4E9093308F04D
:1050900029FE70B90021154808F0DEFE88B900210C
:1050A000124808F0FFFEA0B9104808F0B7FEB8B9E2
:1050B00010BDFFF7D5FA00210C4808F0CDFE0028FE
:1050C000EDD0FFF7CDFA0021084808F0EBFE0028EC
:1050D000EAD0FFF7C5FA054808F0A0FE0028E7D09F
:1050E000BDE81040FFF7BCBA00380140B07E002098
:1050F00008B52048204B4FF416510C2203600023C2
:105100004261C0E901131A461946C0E90333C0E9F8
:105110000633C0E90833836208F038FE70B9002115
:10512000144808F099FE88B90021124808F0BAFE28
:10513000A0B9104808F072FEB8B908BDFFF790FAA0
:1051400000210C4808F088FE0028EDD0FFF788FA0F
:105150000021084808F0A6FE0028EAD0FFF780FAF0
:10516000044808F05BFE0028E7D0BDE80840FFF7E0
:1051700077BA00BF187E0020004400400000000005
:1051800010B500243A4A03688AB09342CDE904443A
:10519000CDE90644089404D0364A934230D00AB090
:1051A00010BD354B9FED2E7BD3F8A42004A942F40B
:1051B0008042C3F8A420D3F8A420304802F48042EF
:1051C0000092009AD3F88C2042F00102C3F88C20A0
:1051D000D3F88C308DED047B03F001030193019A29
:1051E000022307220793089200F018FD22460521AA
:1051F0003A2000F011F93A2000F048F90AB010BD49
:105200001D4B9FED197BD3F89C2004A942F400327A
:10521000C3F89C20D3F89C20184802F40032029274
:10522000029AD3F88C2042F00102C3F88C20D3F804
:105230008C308DED047B03F001030393039A02236A
:1052400007220793089200F0E9FC224605213B2043
:1052500000F0E2F83B2000F019F90AB010BD00BFE1
:1052600000060000020000000E0000000200000026
:105270000038014000440040000C0244000002429B
:1052800002230821002210B50848094C206020465E
:10529000E3712171C4F80930C4F80D2001F064F9FC
:1052A00000B910BDBDE81040FFF7DAB90060014059
:1052B000447F0020104B02689A4200D0704700B52E
:1052C00083B002F071F80D4B0022D3F8A400052141
:1052D00040F08070C3F8A400D3F8A4304A2003F053
:1052E00080730193019B00F097F84A2003B05DF8AA
:1052F00004EB00F0CBB800BF00600140000C02449A
:10530000DFF83CD00F4880F30A88002103E00E4B01
:105310005B58435004310D480D4B42189A42F6D366
:105320000C4A02E0002342F8043B0B4B9A42F9D3AB
:10533000FFF740FD59F0DCFEFFF706F9FEE700003D
:1053400000000A2000FC092060D70D0800000020A2
:10535000540200206002002054B10120FEE700004A
:1053600010B5032000F046F802F0C0F803460C4ADE
:105370000C48126A0C4902F00F02825C0420D340F0
:105380000B6000F091F80F20FFF774FC10B10124BE
:10539000204610BD0446FFF767FC204610BD00BF45
:1053A000000C024498320D08FC000020034A044B14
:1053B00011681B780B441360704700BF28820020DF
:1053C00000010020014B1868704700BF28820020B0
:1053D00038B50446FFF7F6FF631C054602D0044BC0
:1053E0001B781C44FFF7EEFF401BA042FAD338BDE8
:1053F000000100204FF6FF0C06490302CA6803F4BF
:10540000E06302EA0C02134343F0BF6343F400334A
:10541000CB60704700ED00E01A4B00B5DB68C3F3CA
:105420000223C3F1070EBEF1040F03F1040C28BFE1
:105430004FF0040EBCF1060F1BD9A3F1030C4FF083
:10544000FF3303FA0CF322EA03024FF0FF3303FAAF
:105450000EF321EA030303FA0CF313431B010028A4
:10546000DBB209DB00F1604000F5614080F80033F9
:1054700000BD00229446E8E7034A00F00F00024412
:10548000137600BD00ED00E0FCEC00E0002807DB37
:10549000012300F01F01034A40098B4042F82030ED
:1054A000704700BF00E100E0042813D8DFE800F0F7
:1054B0002A1A031213004FF0E0210B69184A23F057
:1054C00004030B61D2F8E43023F00C0343F008032B
:1054D000C2F8E43070474FF0E022136943F0040350
:1054E000136170474FF0E0210B690D4A23F004036C
:1054F0000B61D2F8E43023F00C0343F00403C2F84C
:10550000E43070474FF0E0210B69054A23F00403B3
:105510000B61D2F8E43023F00C03C2F8E43070479A
:10552000000C0244BFF35F8F064B40F00100C3F84C
:1055300094005A6A42F480325A62BFF34F8FBFF32D
:105540006F8F704700ED00E0BFF35F8F074B5A6A23
:1055500022F480325A62D3F8942022F00102C3F878
:105560009420BFF34F8FBFF36F8F704700ED00E0C3
:10557000BFF35F8F124A4378C2F89830D2F8A03058
:1055800023F00103C2F8A030436890F80EC0C17B3D
:1055900023F01F0343EA0C0343EAC103417B43EAC0
:1055A0004103C2F89C30836890F800C0017B23F06F
:1055B0001F0343EA0C0343EA4103C2F8A0307047DB
:1055C00000ED00E010B4BFF35F8F4FF0FF0C0378E5
:1055D0004178032B8ABF074C074C043B2268DB0051
:1055E00099400CFA03F322EA03030B4323605DF8AE
:1055F000044B7047C4ED00E0C0ED00E0002836D059
:1056000038B5437F044603F0FF0263B302222379D7
:105610006277F3B92368174A5A619A6822F0180230
:105620009A6062798AB122691A6101219A68656972
:1056300022F060022A439A609A68A56922F08002EB
:105640002A439A606177002038BD4FF0FF321A611B
:10565000EBE72046D4E9021200F00EF808B92368FF
:10566000DFE7012038BD0277FEF754FDCEE70120C9
:10567000704700BFB71DC104CB071AD51E2310B455
:1056800001E0013B17D321FA03FC1CF0010FF8D015
:10569000182A11D8DFE802F01610101010101010A0
:1056A00024101010101010102110101010101010D5
:1056B0001400012070472AB101205DF8044B7047A7
:1056C000062BF9D8046800206161A36823F0180351
:1056D0001343A3605DF8044B7047072BF2D9EBE747
:1056E0000F2BEFD9E8E700BF70B50446FFF76AFE5D
:1056F000002C00F03B810546002094F854102368EC
:1057000001F0FF0284F84C00002900F0D38002224F
:1057100084F854205A6942F006025A6106E0FFF705
:1057200051FE431B052B00F21C8123685A69D207E6
:10573000F5D45A69606922F44302D4E907152A4373
:10574000256901435A61A2692943A0681143226B6C
:10575000E5681043227910438D4A934200F0B080EF
:1057600002F18052934200F0AB8002F1704280322D
:10577000934200F0A58002F18052934200F0A08095
:1057800002F170428032934200F09A8002F180521E
:10579000934200F0958002F170428032934200F013
:1057A0008F8002F18052934200F08A8002F17042B1
:1057B0008032934200F0848002F1805293427FD085
:1057C00002F17042803293427AD002F180529342C9
:1057D00076D002F170428032934271D002F1805251
:1057E00093426DD002F170428032934268D002F150
:1057F0008052934264D002F1704202F548629342B3
:105800005ED002F1805293425AD002F1704280324F
:10581000934255D002F18052934251D002F170422E
:10582000803293424CD002F18052934248D002F130
:1058300070428032934243D002F1805293423FD073
:1058400002F17042803293423AD002F18052934288
:1058500036D002F170428032934231D002F1805250
:1058600093422DD002F170428032934228D002F14F
:105870008052934224D002F17042803293421FD072
:1058800002F1805293421BD01A6CB5F5806F02F082
:10589000802242EA01021A6470D0B5F5007F67D019
:1058A0005A6C3C4D616B2A400A43024300205A6403
:1058B00098644EE0C4E91822C4E91A22226726E758
:1058C000A26AE66A013A120502F07C720A43616A32
:1058D00032430139090101F47C710A43196CB5F5B1
:1058E000806F01F0802142EA01021A6443D0B5F5CD
:1058F000007F3DD05A6C274D616B2A400A4302431A
:1059000000205A64244A986493421FD002F18052C6
:1059100093421BD002F170428032934216D002F1C2
:105920008052934212D002F1704202F578629342A3
:105930000CD002F18052934208D002F170428032C2
:10594000934203D002F18052934202D100225A6561
:105950009A6500200122D867A06584F8542021654B
:1059600070BD10220323A26584F85430012070BD5D
:1059700040F40070BEE740F48060BBE70025616B37
:105980005A6C044E0843324002435A649D64E0E777
:10599000500002400021C03C5003024038B504468C
:1059A000FFF710FD002C34D094F85430022B2BD18B
:1059B0000521236805465A6942F004025A6184F8B9
:1059C000541005E0FFF7FEFC431B052B23D823688A
:1059D0001A699104F6D504254FF4FE4001215A6955
:1059E00042F002025A61226D84F854501206D860C7
:1059F00084F8541003D50022606F01739A64002369
:105A000084F84C30184638BD20220023A26584F863
:105A10004C30012038BD0321A36D226D43F01003EB
:105A20001006A36584F8541002D50122636F1A731F
:105A3000002384F84C30ECE7034628B190F854205A
:105A4000022A03D0202282650120704704211A68AF
:105A500083F854105369002043F400530B435361FF
:105A6000704700BF0121036810B5C3F30B02044661
:105A700023F47F6020F00F00503AC068C2F3C412D4
:105A80009140014200F0A5801A69520509D55A6972
:105A9000500506D54FF48062DA60A26D42F0010233
:105AA000A2651A69110509D55A69120506D54FF480
:105AB0000062DA60A26D42F00202A2651A69D004A7
:105AC00009D55A69D10406D54FF48052DA60A26D27
:105AD00042F00402A2651A69520409D55A695004B9
