:020000040800F2
:1000000000000A2029480008F9410008FD410008C5
:10001000014200080542000809420008854800081E
:10002000000000000000000000000000050A0108B8
:100030000D42000800000000BD09010821ED000884
:10004000854800088548000885480008854800085C
:10005000854800088548000885480008854800084C
:10006000854800088548000885480008854800083C
:10007000854800088548000885480008854800082C
:10008000854800088548000885480008854800081C
:10009000854800088548000885480008854800080C
:1000A0008548000885480008854800081142000876
:1000B0001D4200088548000885480008854800085A
:1000C00085480008854800088548000885480008DC
:1000D00000000000854800088548000885480008A1
:1000E00085480008854800088548000885480008BC
:1000F00085480008854800088548000885480008AC
:10010000854800088548000885480008854800089B
:10011000854800088548000885480008854800088B
:10012000294200088548000835420008414200087D
:10013000854800088548000885480008854800086B
:10014000854800088548000885480008854800085B
:10015000854800088548000885480008854800084B
:1001600085480008854800084D4200088548000879
:100170008548000885480008594200086542000883
:10018000854800088548000885480008854800081B
:10019000854800088548000885480008854800080B
:1001A00085480008854800088548000885480008FB
:1001B00085480008854800088548000885480008EB
:1001C00085480008854800088548000885480008DB
:1001D00085480008854800080000000085480008A0
:1001E0008548000885480008000000000000000065
:1001F0008548000800000000000000008548000855
:10020000854800088548000885480008000000006F
:100210000000000085480008000000008548000834
:1002200071420008854800087D42000885480008A2
:10023000854800088548000885480008854800086A
:0C02400085480008854800088548000833
:1002500010B5054C237833B9044B13B10448AFF300
:1002600000800123237010BD8001002000000000E9
:10027000FCAA050808B5034B1BB103490348AFF3BB
:10028000008008BD0000000084010020FCAA0508D1
:10029000034613F8012B002AFBD1181A01387047C6
:1002A0007BB972B90029BEBF00204FF0004106E0C3
:1002B00008BF00281CBF6FF000414FF0FF3000F076
:1002C000FDB9ADF1080C6DE904CE002909DB002B66
:1002D0001ADB00F04DF8DDF804E0DDE9022304B09C
:1002E0007047404261EB4101002B1BDB00F040F8FE
:1002F000DDF804E0DDE9022304B0404261EB410196
:10030000524263EB43037047524263EB430300F0F6
:100310002FF8DDF804E0DDE9022304B0404261EB90
:1003200041017047524263EB430300F021F8DDF8CE
:1003300004E0DDE9022304B0524263EB430370475B
:1003400053B94AB9002908BF00281CBF4FF0FF313C
:100350004FF0FF3000F0B2B9ADF1080C6DE904CEFA
:1003600000F006F8DDF804E0DDE9022304B0704790
:100370002DE9F04F8C46099E04460F46002B48D1CC
:100380008A4215465ED9B2FA82F33BB1C3F120022C
:100390009F409D409C4020FA02F217434FEA154EC1
:1003A0001FFA85FC220CB7FBFEF10EFB117701FB57
:1003B0000CF042EA0742904207D9AA1801F1FF3730
:1003C00002D2904200F258813946121AA4B2B2FB0E
:1003D000FEF00EFB102200FB0CFC44EA0244A44594
:1003E0000BD92C1900F1FF322CBF01270027A4459F
:1003F00002D9002F00F04381104640EA0140A4EBEF
:100400000C0400211EB1DC400023C6E90043BDE816
:10041000F08F8B4206D90EB1C6E9000100210846D3
:10042000BDE8F08FB3FA83F1002951D16345C0F0E4
:100430001681824240F213810846002EE7D0C6E9B9
:100440000047E4E7002A00F0AF80B2FA82F3002B05
:1004500040F0C2808A1A4FEA154EAFB20121200C3B
:10046000B2FBFEFC0EFB1C2240EA024207FB0CF032
:1004700090420ED9AA180CF1FF382CBF4FF0010999
:100480004FF00009904203D9B9F1000F00F0F0805D
:10049000C446121AA4B2B2FBFEF00EFB102200FBFF
:1004A00007F744EA0244A7420ED92C1900F1FF32A3
:1004B0002CBF4FF0010E4FF0000EA74203D9BEF142
:1004C000000F00F0D2801046E41B40EA0C4099E790
:1004D000C1F120058B400CFA01F400FA01F922FA6F
:1004E00005F72CFA05FC8A401F4320FA05F3380C67
:1004F00023431FFA87FE1C0CBCFBF0F800FB18CC52
:1005000044EA0C4408FB0EFCA4450ED93C1908F142
:10051000FF3A2CBF4FF0010B4FF0000BA44503D95D
:10052000BBF1000F00F0B880D046A4EB0C041FFA1A
:1005300083FCB4FBF0F300FB134403FB0EFE4CEA18
:100540000444A6450ED93C1903F1FF302CBF4FF0EF
:10055000010C4FF0000CA64503D9BCF1000F00F0D0
:100560009F80034643EA0840A4EB0E04A0FB02EC84
:1005700064457346E04602D307D1F14505D2BEEB90
:1005800002036CEB070C0138E0465EB1B9EB0302E5
:1005900064EB080404FA05F522FA01F3CC401D438C
:1005A000C6E90054002132E742082F464B08AC460A
:1005B00042EAC172AE46C407110C92B241EA03414D
:1005C00042EA0142B1FBF5F1B3FBF5F01F23A2EBC8
:1005D0000C0241EA004142E79D40C3F120029940EC
:1005E0009C402CFA02FC4FEA154E20FA02F2AFB200
:1005F000BCFBFEF80A430EFB18CC110C41EA0C417F
:1006000008FB07FC8C4550D9691808F1FF302CBF56
:100610004FF001094FF000098C4502D9B9F1000FE4
:1006200030D0A1EB0C01B1FBFEF808FB07FC0EFB80
:10063000181192B242EA0142624534D2AA1808F176
:10064000FF312CBF4FF001094FF000096245BED2C7
:10065000B9F1000FBBD1A8F102012A44B7E7841A0F
:100660006CEB030201201746E7E62C4402382BE727
:10067000ACF1020C2A440CE702392A44A5E62C44CA
:100680000238BAE6A5EB0C0CA8F102006144B1FBFC
:10069000FEF808FB07FCCAE7A8F102083C4444E75F
:1006A000023B3C445EE7414691E7A1EB0C0140462A
:1006B000B1FBFEF808FB07FCB9E700BF704700BFBD
:1006C0000C4A13680133052B136000D8704710B52E
:1006D000094C82B0206848B100240A234FF4FA7212
:1006E000052100941AF036FF02B010BD01F0C4F9E4
:1006F0002068F1E79C0100202C02002030B500208A
:1007000083B011F071FB244C1221206011F0F8FB32
:100710000020256844F01CFD03468DF80030C3F32B
:100720000721C3F307438DF802308DF801100099BB
:100730000022284618F0ECFA0020256844F008FD55
:1007400003468DF80430C3F30721C3F307438DF844
:1007500006308DF8051000220199284618F0F6FAA7
:10076000206850F063FC0D4D0D49286050F0E6FE06
:10077000002228680025114613F084FB094B4FF432
:10078000FA71094A09481D6047F072FD206803B0FC
:10079000BDE830401BF01AB9A4010020A0010020E0
:1007A0003CAB05089C01002000000020C1060008A9
:1007B00008B545F019F9042802D0092800D008BD71
:1007C000024B1868BDE8084057F080B8D4010020FB
:1007D00008B545F009F9042802D0092800D008BD61
:1007E000024B1868BDE8084057F070B8D0010020EF
:1007F00008B545F0F9F8042802D0092800D008BD52
:10080000024B1868BDE8084057F060B8CC010020E2
:1008100008B545F0E9F8042802D0092800D008BD41
:10082000024B1868BDE8084057F014B8D401002006
:1008300008B545F0D9F8042802D0092800D008BD31
:10084000024B1868BDE8084057F004B8D0010020FA
:1008500008B545F0C9F8042802D0092800D008BD21
:10086000024B1868BDE8084056F0F4BFCC010020E8
:100870002DE9F041514884B046F0A6FB50494F485D
:1008800046F092FE6FF07F4044F062FC0346C3F3F3
:100890000721C3F307428DF80C308DF80E20DFF8E6
:1008A0003C818DF80D100399444846F06DFED8F850
:1008B000000052F095F90446002152F051FA20460A
:1008C000012152F0F7FA20463E4952F095F92021D5
:1008D00000910423D8F800100122204615F024F8D6
:1008E000D8F8000056F066FE374C40F6FF72002143
:1008F000206056F0FBFE00222068042156F08EFE98
:100900002068002156F018FF2068012156F0D0FE23
:100910002068002156F05AFE2068402113F0D8FAD2
:1009200018228021206813F0ADFA206813F0ECFE45
:100930000746D8F800004EF09BF8002506463A46D8
:10094000394613F025FB0095052330462168142213
:1009500014F0EAFF2A463046184918F035F92A46BD
:1009600030461A4918F008FA2B462A4618493046EC
:1009700013F022F8D8F800004EF07AF806463A460E
:10098000394613F005FB6FF004032168304611224D
:10099000009514F0C9FF2A463046084918F014F9AA
:1009A0002A4630460B4918F0E7F92B462A463046CE
:1009B000094904B0BDE8F04112F0FEBFC0010020BB
:1009C000A827060850AB0508D401002060AB050835
:1009D0001108000864AB0508B1070008D801002021
:1009E0002DE9F041514884B046F0EEFA50494F48A5
:1009F00046F0DAFD6FF07F4044F0AAFB0346C3F3F4
:100A00000721C3F307428DF80C308DF80E20DFF874
:100A10003C818DF80D100399444846F0B5FDD8F897
:100A2000000052F0DDF80446002152F099F920460A
:100A3000012152F03FFA20463E4952F0DDF8602194
:100A400000910423D8F800100122204614F06CFF16
:100A5000D8F8000056F0AEFD374C40F6FF7200218A
:100A6000206056F043FE00222068042156F0D6FD97
:100A70002068002156F060FE2068012156F018FE23
:100A80002068002156F0A2FD2068402113F020FAD2
:100A900058228021206813F0F5F9206813F034FE05
:100AA0000746D8F800004DF0E3FF002506463A4619
:100AB000394613F06DFA009505233046216814225B
:100AC00014F032FF2A463046184918F07DF82A46BD
:100AD00030461A4918F050F92B462A461849304634
:100AE00012F06AFFD8F800004DF0C2FF06463A4601
:100AF000394613F04DFA6FF0040321683046112295
:100B0000009514F011FF2A463046084918F05CF8A9
:100B10002A4630460B4918F02FF92B462A46304614
:100B2000094904B0BDE8F04112F046BFB40100200D
:100B3000A827060868AB0508D001002060AB0508AF
:100B40003108000864AB0508D1070008D80100206F
:100B50002DE9F041514884B046F036FA50494F48EB
:100B600046F022FD6FF07F4044F0F2FA0346C3F3F3
:100B70000721C3F307428DF80C308DF80E20DFF803
:100B80003C818DF80D100399444846F0FDFCD8F8DF
:100B9000000052F025F80446002152F0E1F820460A
:100BA000012152F087F920463E4952F025F89E2156
:100BB00000910423D8F800100122204614F0B4FE5E
:100BC000D8F8000056F0F6FC374C40F6FF720021D2
:100BD000206056F08BFD00222068042156F01EFD97
:100BE0002068002156F0A8FD2068012156F060FD24
:100BF0002068002156F0EAFC2068402113F068F9D3
:100C000098228021206813F03DF9206813F07CFDC4
:100C10000746D8F800004DF02BFF002506463A465F
:100C2000394613F0B5F900950523304621681422A2
:100C300014F07AFE2A463046184917F0C5FF2A46B6
:100C400030461A4918F098F82B462A46184930467B
:100C500012F0B2FED8F800004DF00AFF06463A4600
:100C6000394613F095F96FF00403216830461122DC
:100C7000009514F059FE2A463046084917F0A4FFA3
:100C80002A4630460B4918F077F82B462A4630465C
:100C9000094904B0BDE8F04112F08EBEA801002061
:100CA000A827060878AB0508CC01002060AB050832
:100CB0005108000864AB0508F1070008D8010020BE
:100CC00030B5002083B011F08FF81E4C1221206047
:100CD00011F016F90020256844F03AFA03468DF821
:100CE0000030C3F30721C3F307438DF802308DF8BA
:100CF000011000990022284618F00AF80020256803
:100D000044F026FA03468DF80430C3F30721C3F3F9
:100D100007438DF806308DF805100022284601990A
:100D200018F014F8FFF7A4FDFFF75AFEFFF710FFC5
:100D3000206800F001FE206803B0BDE830401AF0E2
:100D400045BE00BFD801002008B544F04DFE042880
:100D500002D0092800D008BD024B1868BDE8084041
:100D600056F0B4BD2402002008B544F03DFE04282E
:100D700002D0092800D008BD024B1868BDE8084021
:100D800056F0A4BD2802002008B544F02DFE04282A
:100D900002D0092800D008BD024B1868BDE8084001
:100DA00056F094BD1C02002008B544F01DFE042836
:100DB00002D0092800D008BD024B1868BDE80840E1
:100DC00056F084BD2002002008B544F00DFE042832
:100DD00002D0092800D008BD024B1868BDE80840C1
:100DE00056F074BD1402002008B544F0FDFD04283F
:100DF00002D0092800D008BD024B1868BDE80840A1
:100E000056F064BD1802002008B544F0EDFD04283A
:100E100002D0092800D008BD024B1868BDE8084080
:100E200056F054BD0C02002008B544F0DDFD042846
:100E300002D0092800D008BD024B1868BDE8084060
:100E400056F044BD1002002008B544F0CDFD042842
:100E500002D0092800D008BD024B1868BDE8084040
:100E600056F0F8BC2402002008B544F0BDFD04286B
:100E700002D0092800D008BD024B1868BDE8084020
:100E800056F0E8BC2802002008B544F0ADFD042867
:100E900002D0092800D008BD024B1868BDE8084000
:100EA00056F0D8BC1C02002008B544F09DFD042873
:100EB00002D0092800D008BD024B1868BDE80840E0
:100EC00056F0C8BC2002002008B544F08DFD04286F
:100ED00002D0092800D008BD024B1868BDE80840C0
:100EE00056F0B8BC1402002008B544F07DFD04287B
:100EF00002D0092800D008BD024B1868BDE80840A0
:100F000056F0A8BC1802002008B544F06DFD042876
:100F100002D0092800D008BD024B1868BDE808407F
:100F200056F098BC0C02002008B544F05DFD042882
:100F300002D0092800D008BD024B1868BDE808405F
:100F400056F088BC1002002010B582B044F04CFD71
:100F50000A2801D002B010BD084C40F21D22084BF7
:100F600008490420009445F05BF91AF07BFE18F064
:100F700059FA02B0BDE8104001F04CBFA4AB05081F
:100F800004E0050888AB050810B582B044F02CFDDC
:100F90000A2801D002B010BD084C40F21122084BC3
:100FA00008490420009445F03BF91AF05BFE18F064
:100FB00039FA02B0BDE8104001F0CCBCA4AB050882
:100FC000F0DF050888AB050810B582B044F00CFDD1
:100FD0000A2801D002B010BD084C40F20522084B8F
:100FE00008490420009445F01BF91AF03BFE18F064
:100FF00019FA02B0BDE81040FFF762BEA4AB0508C5
:10100000DCDF050888AB050810B582B044F0ECFCC5
:101010000A2801D002B010BD084C40F2F912084B6A
:1010200008490420009445F0FBF81AF01BFE18F064
:10103000F9F902B0BDE8104001F0C8BAA4AB050848
:10104000C8DF050888AB05082DE9F041814884B068
:1010500045F0BAFF80497F4846F0A6FA6FF07F401E
:1010600044F076F80346C3F30721C3F307427B4EEF
:101070008DF80C308DF80E208DF80D100399754801
:1010800046F082FA306851F0ABFD0446002151F081
:1010900067FE2046012151F00DFF2046704951F0B6
:1010A000ABFD0A210091002331680222204614F092
:1010B0003BFC306856F07EFA6A4D482200212860D9
:1010C00056F014FB00222868032156F0A7FA28687E
:1010D000002156F031FB2868012156F0E9FA286812
:1010E000002156F073FA2868402112F0F1FE182210
:1010F0005021286812F0C6FE286813F005FB8046D0
:1011000030684DF0B5FC002407464246414612F0D7
:101110003FFF0094052338462968142214F004FC8C
:10112000224638464B4917F04FFD224638464E4975
:1011300017F022FE234622464C49384612F03CFC6A
:1011400030684DF095FC07464246414612F020FFBC
:101150006FF00403296838461122009414F0E4FB70
:10116000224638463B4917F02FFD22463846404973
:1011700017F002FE234622463E49384612F01CFC78
:10118000306856F017FA3C4D21464822286056F048
:10119000ADFA22462868032156F040FA2146286815
:1011A00056F0CAFA2868012156F082FA21462868CA
:1011B00056F00CFA2868402112F08AFE18224FF4EB
:1011C000AF71286812F05EFE286813F09DFA804621
:1011D00030684DF04DFC07464246414612F0D8FEBD
:1011E0000094052338462968142214F09DFB2246FA
:1011F0003846184917F0E8FC224638461A4917F0D5
:10120000BBFD234622461D49384612F0D5FB306807
:101210004DF02EFC06464246414612F0B9FE6FF0F4
:101220000403296830461122009414F07DFB224605
:101230003046084917F0C8FC224630460C4917F0E2
:101240009BFD2346224630460D4904B0BDE8F041DF
:1012500012F0B2BB00020020A82706082C020020D2
:10126000ACAB05082802002060AB0508690E000839
:1012700064AB0508690D000824020020490E00082F
:10128000490D00082DE9F041814884B045F09CFEED
:1012900080497F4846F088F96FF07F4043F058FF5F
:1012A0000346C3F30721C3F307427B4E8DF80C308E
:1012B0008DF80E208DF80D100399754846F064F9ED
:1012C000306851F08DFC0446002151F049FD204664
:1012D000012151F0EFFD2046704951F08DFC4C2268
:1012E0000223009231681A46204614F01DFB306834
:1012F00056F060F96A4D48220021286056F0F6F950
:1013000000222868032156F089F92868002156F048
:1013100013FA2868012156F0CBF92868002156F00D
:1013200055F92868402112F0D3FD58225021286831
:1013300012F0A8FD286813F0E7F9804630684DF0F8
:1013400097FB002407464246414612F021FE0094D6
:10135000052338462968142214F0E6FA2246384656
:101360004B4917F031FC224638464E4917F004FD30
:10137000234622464C49384612F01EFB30684DF099
:1013800077FB07464246414612F002FE6FF0040327
:10139000296838461122009414F0C6FA22463846CD
:1013A0003B4917F011FC22463846404917F0E4FC4F
:1013B000234622463E49384612F0FEFA306856F07F
:1013C000F9F83C4D21464822286056F08FF9224614
:1013D0002868032156F022F92146286856F0ACF916
:1013E0002868012156F064F92146286856F0EEF885
:1013F0002868402112F06CFD58224FF4AF71286824
:1014000012F040FD286813F07FF9804630684DF0F7
:101410002FFB07464246414612F0BAFD00940523D1
:1014200038462968142214F07FFA224638461849B3
:1014300017F0CAFB224638461A4917F09DFC23468E
:1014400022461D49384612F0B7FA30684DF010FBBD
:1014500006464246414612F09BFD6FF004032968A0
:1014600030461122009414F05FFA224630460849B3
:1014700017F0AAFB224630460C4917F07DFC2346A4
:10148000224630460D4904B0BDE8F04112F094BA4E
:10149000F4010020A82706082C020020C0AB050894
:1014A0002002002060AB0508A90E000864AB050807
:1014B000A90D00081C020020890E0008890D0008F3
:1014C0002DE9F041814884B045F07EFD80497F4898
:1014D00046F06AF86FF07F4043F03AFE0346C3F3EC
:1014E0000721C3F307427B4E8DF80C308DF80E2098
:1014F0008DF80D100399754846F046F8306851F0A4
:101500006FFB0446002151F02BFC2046012151F0D5
:10151000D1FC2046704951F06FFB962100910423C5
:1015200031680222204614F0FFF9306856F042F884
:101530006A4D48220021286056F0D8F80022286819
:10154000032156F06BF82868002156F0F5F828685A
:10155000012156F0ADF82868002156F037F82868C8
:10156000402112F0B5FC98225021286812F08AFC24
:10157000286813F0C9F8804630684DF079FA0024E5
:1015800007464246414612F003FD009405233846C3
:101590002968142214F0C8F9224638464B4917F03E
:1015A00013FB224638464E4917F0E6FB23462246F7
:1015B0004C49384612F000FA30684DF059FA0746A7
:1015C0004246414612F0E4FC6FF0040329683846B5
:1015D0001122009414F0A8F9224638463B4917F02E
:1015E000F3FA22463846404917F0C6FB2346224606
:1015F0003E49384612F0E0F9306855F0DBFF3C4DCB
:1016000021464822286056F071F8224628680321B6
:1016100056F004F82146286856F08EF82868012113
:1016200056F046F82146286855F0D0FF286840213A
:1016300012F04EFC98224FF4AF71286812F022FC91
:10164000286813F061F8804630684DF011FA0746BB
:101650004246414612F09CFC009405233846296816
:10166000142214F061F922463846184917F0ACFAF2
:10167000224638461A4917F07FFB234622461D4969
:10168000384612F099F930684DF0F2F906464246B4
:10169000414612F07DFC6FF00403296830461122A8
:1016A000009414F041F922463046084917F08CFAAC
:1016B000224630460C4917F05FFB2346224630464F
:1016C0000D4904B0BDE8F04112F076B9E801002000
:1016D000A82706082C020020D4AB05081802002019
:1016E00060AB0508E90E000864AB0508E90D0008C9
:1016F00014020020C90E0008C90D00082DE9F041B0
:10170000814884B045F060FC80497F4845F04CFF3B
:101710006FF07F4043F01CFD0346C3F30721C3F382
:1017200007427B4E8DF80C308DF80E208DF80D1091
:101730000399754845F028FF306851F051FA044686
:10174000002151F00DFB2046012151F0B3FB204652
:10175000704951F051FAD2210091072331680222D9
:10176000204614F0E1F8306855F024FF6A4D482215
:101770000021286055F0BAFF00222868032155F0A7
:101780004DFF2868002155F0D7FF2868012155F04A
:101790008FFF2868002155F019FF2868402112F0BA
:1017A00097FBD8225021286812F06CFB286812F0B1
:1017B000ABFF804630684DF05BF900240746424697
:1017C000414612F0E5FB00940523384629681422AF
:1017D00014F0AAF8224638464B4917F0F5F922468C
:1017E00038464E4917F0C8FA234622464C49384637
:1017F00012F0E2F830684DF03BF9074642464146A8
:1018000012F0C6FB6FF004032968384611220094D9
:1018100014F08AF8224638463B4917F0D5F922469B
:101820003846404917F0A8FA234622463E49384632
:1018300012F0C2F8306855F0BDFE3C4D21464822FA
:10184000286055F053FF22462868032155F0E6FE34
:101850002146286855F070FF2868012155F028FFBF
:101860002146286855F0B2FE2868402112F030FB6E
:10187000D8224FF4AF71286812F004FB286812F0E8
:1018800043FF804630684DF0F3F807464246414634
:1018900012F07EFB0094052338462968142214F0C8
:1018A00043F822463846184917F08EF92246384642
:1018B0001A4917F061FA234622461D49384612F0AC
:1018C0007BF830684DF0D4F806464246414612F0A7
:1018D0005FFB6FF00403296830461122009414F076
:1018E00023F822463046084917F06EF92246304662
:1018F0000C4917F041FA2346224630460D4904B000
:10190000BDE8F04112F058B8DC010020A827060815
:101910002C020020E8AB05081002002060AB05088F
:10192000290F000864AB0508290E00080C020020EE
:10193000090F0008090E000870B582B004464DF08A
:1019400097F800236FF02F0506461A46404912F01B
:1019500033F814230D2221463046009513F0E4FF9E
:10196000304651F03DF906463A4951F045F93046C6
:1019700014F0D6FB20464DF07BF8002306461A46AD
:10198000354912F019F882230D2221463046009580
:1019900013F0CAFF304651F023F906462F4951F0A3
:1019A0002BF9304614F0BCFB20464DF061F80023C3
:1019B00006461A462A4911F0FFFF00230E2221464F
:1019C0003046009513F0B0FF304651F009F9064655
:1019D000244951F011F9304614F0A2FB20464DF095
:1019E00047F8002306461A461F4911F0E5FF6FF03D
:1019F0008B030F2221463046009513F095FF3046A9
:101A000051F0EEF80646194951F0F6F8304614F058
:101A100087FB20464DF02CF8002306461A46144951
:101A200011F0CAFF6FF03B030F22214630460095AC
:101A300013F07AFF304651F0D3F804460D4951F0C7
:101A4000DBF8204602B0BDE8704014F069BB00BF6F
:101A5000051B000800AC05080910000808AC0508C3
:101A6000C90F000810AC0508890F000814AC050860
:101A7000490F000818AC050830B5002083B010F0FD
:101A8000B3F91F4C1221206010F03AFA00202568AB
:101A900043F05EFB03468DF80030C3F30721C3F328
:101AA00007438DF802308DF8011000990022284676
:101AB00017F02EF90020256843F04AFB03468DF805
:101AC0000430C3F30721C3F307438DF806308DF8C4
:101AD000051000222846019917F038F9FFF7B4FAEB
:101AE000FFF7D0FBFFF70AFEFFF7EAFC2068FFF7DD
:101AF00023FF206803B0BDE8304019F067BF00BF86
:101B00002C02002010B582B043F06EFF0A2801D0ED
:101B100002B010BD084C40F2ED12084B08490420F9
:101B2000009444F07DFB1AF09DF817F07BFC02B0A6
:101B3000BDE81040FFF7A0BFA4AB0508B4DF05085F
:101B400088AB050838B5054643F04EFF04462846E5
:101B500043F048FF232C00D038BD0421BDE83840B5
:101B600010F08ABD38B5054643F03EFF04462846CE
:101B700043F038FF232C00D038BD0421BDE83840A5
:101B800010F07ABD38B5054643F02EFF04462846CE
:101B900043F028FF232C00D038BD0421BDE8384095
:101BA00010F06ABD38B5054643F01EFF04462846CE
:101BB00043F018FF232C00D038BD0421BDE8384085
:101BC00010F05ABD38B5054643F00EFF04462846CE
:101BD00043F008FF232C00D038BD0421BDE8384075
:101BE00010F04ABD38B5054643F0FEFE04462846CF
:101BF00043F0F8FE232C00D038BD0421BDE8384066
:101C000010F03ABD38B5054643F0EEFE04462846CE
:101C100043F0E8FE232C00D038BD0421BDE8384055
:101C200010F02ABD38B5054643F0DEFE04462846CE
:101C300043F0D8FE232C00D038BD0421BDE8384045
:101C400010F01ABD38B5054643F0CEFE04462846CE
:101C500043F0C8FE232C00D038BD0421BDE8384035
:101C600010F00ABDF0B5354885B045F0ADF96FF01C
:101C70007F4043F06DFA0346C3F30721C3F30742E5
:101C80008DF80C302E4D8DF80E208DF80D10039927
:101C90002A4845F079FC286850F0A2FF294C002220
:101CA0002649206016F090FF2068274950F0A4FFD5
:101CB00002220121206812F0E5F8286856F0A4F904
:101CC0000023224C1A462249206011F075FE20683C
:101CD000082110F0AFF82068042110F0A7F91E22A7
:101CE0003021206812F0CEF8286850F079FF0646BF
:101CF00000270022114916F067FF3046154950F0C1
:101D00007BFF0097052321681422304613F00CFE58
:101D1000286850F065FF05463A46084916F054FF1A
:101D200028460D4950F068FF21686FF00403112226
:101D30002846009713F0F8FD05B0F0BD9C02002086
:101D4000D0020020C802002020AC0508CC020020F0
:101D5000451B00082CAC050834AC0508F0B5354827
:101D600085B045F031F96FF07F4043F0F1F903465B
:101D7000C3F30721C3F307428DF80C302E4D8DF8C5
:101D80000E208DF80D1003992A4845F0FDFB2868B8
:101D900050F026FF294C00222649206016F014FF3F
:101DA0002068274950F028FF46220121206812F0C0
:101DB00069F8286856F028F90023224C1A4622496F
:101DC000206011F0F9FD2068082110F033F8206838
:101DD000042110F02BF95E223021206812F052F815
:101DE000286850F0FDFE064600270022114916F033
:101DF000EBFE3046154950F0FFFE009705232168A1
:101E00001422304613F090FD286850F0E9FE054694
:101E10003A46084916F0D8FE28460D4950F0ECFE27
:101E200021686FF0040311222846009713F07CFD0F
:101E300005B0F0BD90020020D0020020C8020020B2
:101E400038AC0508C4020020651B00082CAC05084E
:101E500034AC0508F0B5354885B045F0B5F86FF0FD
:101E60007F4043F075F90346C3F30721C3F30742EC
:101E70008DF80C302E4D8DF80E208DF80D10039935
:101E80002A4845F081FB286850F0AAFE294C002220
:101E90002649206016F098FE2068274950F0ACFED5
:101EA00086220121206811F0EDFF286856F0ACF879
:101EB0000023224C1A462249206011F07DFD206843
:101EC00008210FF0B7FF2068042110F0AFF89E2220
:101ED0003021206811F0D6FF286850F081FE0646B8
:101EE00000270022114916F06FFE3046154950F0C8
:101EF00083FE0097052321681422304613F014FD59
:101F0000286850F06DFE05463A46084916F05CFE1A
:101F100028460D4950F070FE21686FF0040311222D
:101F20002846009713F000FD05B0F0BD84020020A4
:101F3000D0020020C802002040AC0508C0020020EA
:101F4000851B00082CAC050834AC0508F0B53548F5
:101F500085B045F039F86FF07F4043F0F9F803465B
:101F6000C3F30721C3F307428DF80C302E4D8DF8D3
:101F70000E208DF80D1003992A4845F005FB2868BE
:101F800050F02EFE294C00222649206016F01CFE3F
:101F90002068274950F030FEC9220121206811F045
:101FA00071FF286856F030F80023224C1A46224967
:101FB000206011F001FD206808210FF03BFF206830
:101FC000042110F033F8DE223021206811F05AFF8E
:101FD000286850F005FE064600270022114916F039
:101FE000F3FD3046154950F007FE009705232168A0
:101FF0001422304613F098FC286850F0F1FD054695
:102000003A46084916F0E0FD28460D4950F0F4FD27
:1020100021686FF0040311222846009713F084FC16
:1020200005B0F0BD78020020D0020020C8020020D8
:1020300048AC0508BC020020A51B00082CAC050814
:1020400034AC0508F0B5364885B044F0BDFF6FF0FC
:102050007F4043F07DF80346C3F30721C3F30742F3
:102060008DF80C302F4D8DF80E208DF80D10039942
:102070002B4845F089FA286850F0B2FD2A4C00221E
:102080002749206016F0A0FD2068284950F0B4FDD3
:1020900002224FF4A571206811F0F4FE286855F073
:1020A000B3FF0023224C1A462249206011F084FC21
:1020B000206808210FF0BEFE206804210FF0B6FF53
:1020C0001E224FF4B971206811F0DCFE286850F030
:1020D00087FD064600270022114916F075FD30469F
:1020E000154950F089FD00970523216814223046D8
:1020F00013F01AFC286850F073FD05463A4608496B
:1021000016F062FD28460D4950F076FD21686FF00B
:10211000040311222846009713F006FC05B0F0BD19
:102120006C020020D0020020C802002054AC050838
:10213000B8020020C51B00082CAC050834AC05080B
:10214000F0B5364885B044F03FFF6FF07F4042F075
:10215000FFFF0346C3F30721C3F307428DF80C309A
:102160002F4D8DF80E208DF80D1003992B4845F05A
:102170000BFA286850F034FD2A4C002227492060D1
:1021800016F022FD2068284950F036FD46224FF413
:10219000A571206811F076FE286855F035FF002300
:1021A000224C1A462249206011F006FC20680821C2
:1021B0000FF040FE206804210FF038FF5E224FF43C
:1021C000B971206811F05EFE286850F009FD0646DE
:1021D00000270022114916F0F7FC3046154950F04F
:1021E0000BFD0097052321681422304613F09CFB59
:1021F000286850F0F5FC05463A46084916F0E4FC1C
:1022000028460D4950F0F8FC21686FF004031122B4
:102210002846009713F088FB05B0F0BD600200204F
:10222000D0020020C802002064AC0508B4020020DF
:10223000E51B00082CAC050834AC0508F0B53648A1
:1022400085B044F0C1FE6FF07F4042F081FF03464D
:10225000C3F30721C3F307428DF80C302F4D8DF8DF
:102260000E208DF80D1003992B4845F08DF9286844
:1022700050F0B6FC2A4C00222749206016F0A4FC3E
:102280002068284950F0B8FC86224FF4A5712068D8
:1022900011F0F8FD286855F0B7FE0023224C1A46CD
:1022A0002249206011F088FB206808210FF0C2FD50
:1022B000206804210FF0BAFE9E224FF4B971206805
:1022C00011F0E0FD286850F08BFC06460027002244
:1022D000114916F079FC3046154950F08DFC0097F5
:1022E000052321681422304613F01EFB286850F0A5
:1022F00077FC05463A46084916F066FC28460D4923
:1023000050F07AFC21686FF00403112228460097F0
:1023100013F00AFB05B0F0BD54020020D0020020EB
:10232000C80200206CAC0508B0020020051C0008A3
:102330002CAC050834AC0508F0B5364885B044F03F
:1023400043FE6FF07F4042F003FF0346C3F30721D3
:10235000C3F307428DF80C302F4D8DF80E208DF809
:102360000D1003992B4845F00FF9286850F038FC00
:102370002A4C00222749206016F026FC20682849B4
:1023800050F03AFCC9224FF4A571206811F07AFD93
:10239000286855F039FE0023224C1A462249206055
:1023A00011F00AFB206808210FF044FD2068042189
:1023B0000FF03CFEDE224FF4B971206811F062FD8F
:1023C000286850F00DFC064600270022114916F03F
:1023D000FBFB3046154950F00FFC009705232168A0
:1023E0001422304613F0A0FA286850F0F9FB054695
:1023F0003A46084916F0E8FB28460D4950F0FCFB28
:1024000021686FF0040311222846009713F08CFA1C
:1024100005B0F0BD48020020D0020020C802002014
:1024200074AC0508AC020020251C00082CAC050883
:1024300034AC0508F0B5354885B044F0C5FD6FF003
:102440007F4042F085FE0346C3F30721C3F30742F2
:102450008DF80C302E4D8DF80E208DF80D1003994F
:102460002A4845F091F8286850F0BAFB294C002220
:102470002649206016F0A8FB2068274950F0BCFBD5
:102480000222B921206811F0FDFC286855F0BCFD3E
:102490000023224C1A462249206011F08DFA206850
:1024A00008210FF0C7FC206804210FF0BFFD1E2299
:1024B000D521206811F0E6FC286850F091FB064613
:1024C00000270022114916F07FFB3046154950F0D5
:1024D00093FB0097052321681422304613F024FA59
:1024E000286850F07DFB05463A46084916F06CFB1B
:1024F00028460D4950F080FB21686FF0040311223B
:102500002846009713F010FA05B0F0BD3C020020F9
:10251000D0020020C802002080AC0508A8020020DC
:10252000451C00088CAC050894AC050830B5234860
:1025300083B044F049FD0221204844F0EDFF122011
:1025400044F014F90346C3F30721C3F307428DF89F
:1025500004308DF806208DF805100199184D1748A4
:1025600044F0E6FF0121154844F0DCFF286851F0F3
:102570005BFB04460222134951F062FB2046002215
:102580000E4916F021FB04223221204611F07AFC7C
:10259000286851F049FB044602220B4951F050FBD8
:1025A00020460022054916F00FFB04229621204602
:1025B00003B0BDE8304011F065BC00BF3002002020
:1025C000D0020020140000200400002030B50020BC
:1025D00083B00FF009FC254C122120600FF090FC15
:1025E0000020256842F0B4FD03468DF80030C3F3A7
:1025F0000721C3F307438DF802308DF801100099CD
:102600000022284616F084FB0020256842F0A0FD39
:1026100003468DF80430C3F30721C3F307438DF855
:1026200006308DF8051000222846019916F08EFB21
:10263000FFF718FBFFF792FBFFF70CFCFFF786FC98
:10264000FFF774FFFFF7FEFCFFF77AFDFFF7F6FDDB
:10265000FFF772FEFFF7EEFE2068FFF76DF92068C6
:1026600003B0BDE8304019F0B1B900BFD00200207E
:1026700010B582B043F0B8F90A2803D023280BD054
:1026800002B010BD6A22064C0420064B0649009495
:1026900043F0C6FD02B010BD6D22044CF4E700BF4C
:1026A000A4AB05086CE0050898AC0508B0AC0508BB
:1026B00010B582B043F098F90A2803D023280BD034
:1026C00002B010BD5922064C0420064B0649009466
:1026D00043F0A6FD02B010BD5C22044CF4E700BF3D
:1026E000A4AB050858E0050898AC0508C0AC05087F
:1026F00010B582B043F078F90A2803D023280BD014
:1027000002B010BD4822064C0420064B0649009436
:1027100043F086FD02B010BD4B22044CF4E700BF2D
:10272000A4AB050844E0050898AC0508D0AC050842
:1027300010B582B043F058F90A2803D023280BD0F3
:1027400002B010BD3722064C0420064B0649009407
:1027500043F066FD02B010BD3A22044CF4E700BF1E
:10276000A4AB050830E0050898AC0508E0AC050806
:1027700010B582B043F038F90A2801D002B010BD7C
:10278000044CA9220420044B0449009443F048FD62
:1027900002B010BDF0AC050818E0050898AC0508BB
:1027A00038B54A4D4A4C28684CF062F90023494933
:1027B0001A46206011F000F9206808210FF03AFB5A
:1027C00020686FF0404111F0B3FB6FF013036FF01E
:1027D000B3020921206811F073FE206850F000FA5E
:1027E00004463D4950F008FA204613F099FC286849
:1027F0004CF03EF90023394C1A463949206011F05B
:10280000DBF8206808210FF015FB20686FF04041CD
:1028100011F08EFB6FF013036FF03B02092120686B
:1028200011F04EFE206850F0DBF904462D4950F0BF
:10283000E3F9204613F074FC28684CF019F90023E2
:10284000294C1A462949206011F0B6F82068082161
:102850000FF0F0FA20686FF0404111F069FB6FF063
:1028600013033C220921206811F02AFE206850F051
:10287000B7F904461E4950F0BFF9204613F050FC4A
:1028800028684CF0F5F800231A4C1A461A492060C3
:1028900011F092F8206808210FF0CCFA20686FF050
:1028A000404111F045FB6FF01303B4220921206869
:1028B00011F006FE206850F093F904460F4950F0DD
:1028C0009BF92046BDE8384013F02ABCF4020020F2
:1028D000EC0200203127000800AD0508F0020020BE
:1028E000F126000808AD0508E8020020B12600081E
:1028F00010AD0508E40200207126000818AD050897
:10290000104B10B518684CF0B3F800230E4C1A4663
:102910000E49206011F050F820686FF0404111F02E
:1029200007FB01222068114611F0ACFA206850F034
:1029300057F90446064950F05FF92046BDE81040BB
:1029400013F0EEBBF4020020E00200207127000823
:1029500020AD050830B5002087B00FF045FA384C9F
:10296000122120600FF0CCFA0020256842F0F0FB25
:1029700003468DF80C30C3F30721C3F307438DF8EA
:102980000E308DF80D1003990022284616F0C0F97C
:102990000020256842F0DCFB03468DF81030C3F3BD
:1029A0000721C3F307438DF812308DF81110002270
:1029B0000499284616F0CAF9224844F005FB22493A
:1029C000204844F0F1FD6FF07F4042F0C1FB034628
:1029D000C3F307228DF81430C3F307438DF8163084
:1029E0008DF815200599174844F0CEFD206850F069
:1029F000F7F80546002150F0B3F92846012150F0C0
:102A000059FA2846114950F0F7F8284600220D4996
:102A100016F0DAF81E21009100230B2228462168C7
:102A200012F082FFFFF76CFFFFF7BAFE2068FEF797
:102A300083FF206807B0BDE8304018F0C7BF00BF73
:102A4000F4020020D4020020A827060828AD0508BB
:102A500008B542F0C9FF042802D0092800D008BDFB
:102A6000024B1868BDE8084054F030BF1C0300203A
:102A700010B542F0B9FF042802D0092800D010BDDB
:102A80000A4C206854F022FF206854F093FEBDE801
:102A900010400146064A074B82FB012CCA17C2EBC5
:102AA0006C1205481A6000F041BD00BF20030020F1
:102AB0001F85EB512400002038AD050810B542F009
:102AC00093FF042802D0092800D010BD0A4C2068CA
:102AD00054F0C0FE206854F06DFEBDE81040014681
:102AE000064A074B82FB012CCA17C2EB6C12054841
:102AF0001A6000F01BBD00BF200300201F85EB51B2
:102B00002400002038AD050808B542F06DFF042808
:102B100002D0092800D008BD024B1868BDE8084063
:102B200054F098BE1C0300202DE9F041524884B0B7
:102B300044F04AFA5149504844F036FD6FF07F4066
:102B400042F006FB0346C3F30721C3F307428DF8A7
:102B50000C308DF80E20DFF844818DF80D100399AC
:102B6000454844F011FDD8F8000050F039F804460B
:102B7000002150F0F5F82046012150F09BF9204645
:102B80003F4950F039F8182100910223D8F800107D
:102B90000122204612F0C8FED8F8000054F00AFDC9
:102BA000384C42F63A224FF4C851206054F09EFD52
:102BB00003222068052154F031FD2068002154F0E3
:102BC000BBFD20680A2154F073FD2F4B2068196863
:102BD00054F0FCFC2068502111F07AF93022502189
:102BE000206811F04FF9206811F08EFD0746D8F8E3
:102BF00000004BF03DFF002506463A46394611F0ED
:102C0000C7F90095052330462168142212F08CFE86
:102C10002A463046184915F0D7FF2A4630461B4948
:102C200016F0AAF82B462A461949304610F0C4FE81
:102C3000D8F800004BF01CFF06463A46394611F022
:102C4000A7F96FF00403216830461122009512F0B5
:102C50006BFE2A463046084915F0B6FF2A46304634
:102C60000C4916F089F82B462A4630460A4904B02A
:102C7000BDE8F04110F0A0BE04030020A82706081C
:102C80004CAD0508200300202400002060AB05089F
:102C9000BD2A000864AB0508712A0008240300203F
:102CA0002DE9F041524884B044F08EF95149504822
:102CB00044F07AFC6FF07F4042F04AFA0346C3F3D7
:102CC0000721C3F307428DF80C308DF80E20DFF892
:102CD00040818DF80D100399454844F055FCD8F813
:102CE00000004FF07DFF0446002150F039F82046E7
:102CF000012150F0DFF820463F494FF07DFF6C2165
:102D000000910223D8F800100122204612F00CFE98
:102D1000D8F8000054F04EFC384C40F6B8324FF46E
:102D20007A71206054F0E2FC03222068052154F0FF
:102D300075FC2068002154F0FFFC20680A2154F043
:102D4000B7FC20684FF47A7154F040FC20685021A1
:102D500011F0BEF884225021206811F093F8206809
:102D600011F0D2FC0746D8F800004BF081FE002598
:102D700006463A46394611F00BF9009505233046D0
:102D80002168142212F0D0FD2A463046184915F069
:102D90001BFF2A4630461A4915F0EEFF2B462A46FD
:102DA0001849304610F008FED8F800004BF060FEDD
:102DB00006463A46394611F0EBF86FF004032168F5
:102DC00030461122009512F0AFFD2A4630460849E0
:102DD00015F0FAFE2A4630460B4915F0CDFF2B467A
:102DE0002A463046094904B0BDE8F04110F0E4BD80
:102DF000F8020020A827060868AD05081C0300207B
:102E000060AB0508092B000864AB0508512A0008CF
:102E10002403002030B5002087B00EF0E5FF374CCA
:102E2000122120600FF06CF80020256842F090F924
:102E300003468DF80C30C3F30721C3F307438DF825
:102E40000E308DF80D1003990022284615F060FF12
:102E50000020256842F07CF903468DF81030C3F35A
:102E60000721C3F307438DF812308DF811100022AB
:102E70000499284615F06AFF214844F0A5F8214935
:102E80001F4844F091FB6FF07F4042F061F9034628
:102E9000C3F307228DF81430C3F307438DF81630BF
:102EA0008DF815200599164844F06EFB20684FF008
:102EB00097FE054600214FF053FF284601214FF0B1
:102EC000F9FF284610494FF097FE284600220C498A
:102ED00015F07AFE0222009200232846216812F0A3
:102EE00023FDFFF721FEFFF7DBFE2068FEF724FD40
:102EF000206807B0BDE8304018F068BD240300200A
:102F000010030020A827060880AD05080B4670B501
:102F10008AB028220021054668461C4657F0FDFC71
:102F200044F681632D4902225D200B8000F076F883
:102F300010B100200AB070BD294E012231465D203B
:102F400000F086F80028F4D196F900203378002AA2
:102F5000EFDA03F00F032370013B042B0FD900239A
:102F600044F681651D4903225D200D808B7000F0C1
:102F700055F82078003818BF01200AB070BD45F21E
:102F80008103164902225D200B8000F047F80028DB
:102F9000E5D122786946D2005D2002F0F80200F007
:102FA00057F80028DBD12378002BD8D00246A81C84
:102FB000D300DBB26B445E78197841EA062125F82C
:102FC0002210D9789B7843EA012320F82230217817
:102FD0000132D3B29942EBD8C1E700BFF003002021
:102FE00028030020002310B586B00C4601A80DF17F
:102FF0000301CDE90133CDE903330593FFF786FFE4
:1030000038B1BDF80630BDF80420C3F5F073C4E94B
:10301000093284F8200006B010BD00BF844610B508
:103020004FF0FF3482B04FEA4C0C134607480A4673
:1030300000940CF0FE0102F039FB28B10238C0B256
:1030400001288CBF0120022002B010BD887500202D
:10305000844610B54FF0FF3482B04FEA4C0C134653
:1030600007480A4600940CF0FE0102F0DBFB28B191
:103070000238C0B201288CBF0120022002B010BD6E
:103080008875002010B5002282B004464FF48051AC
:103090000C4802F01DF9002240210B4802F018F9FB
:1030A00001230DF107011A4608488DF8074008F082
:1030B000DDF901224FF48051024802B0BDE8104012
:1030C00002F006B90004024200080242E077002044
:1030D00010B5012282B0044640210D4802F0F8F8F4
:1030E00000224FF480510B4802F0F2F801230DF159
:1030F00007011A4608488DF8074008F0B7F9012281
:103100004FF48051034802B0BDE8104002F0E0B82F
:103110000008024200040242E0770020F8B50746AA
:1031200016460D461C462A20FFF7ACFF380AFFF76B
:10313000CFFFF8B2FFF7CCFF300AFFF7C9FFF0B2BC
:10314000FFF7C6FF2B20FFF79DFF280AFFF7C0FF00
:10315000E8B2FFF7BDFF200AFFF7BAFFE0B2FFF7C2
:10316000B7FFBDE8F8402C20FFF78CBF012208B55F
:1031700011460C4802F0ACF8142001F0BDFB00220F
:103180000121084802F0A4F8642001F0B5FB0122F7
:103190000448114602F09CF8BDE80840642001F0A4
:1031A000ABBB00BF000802422DE9F04701EB41062E
:1031B000B6F5167F054600AF3BD20C4601224021F2
:1031C0002F4802F085F800224FF480512D4802F07C
:1031D0007FF82B0AE908EA0003F0F805E31D23F065
:1031E0000703ADEB030DE84601F0FC01D2B2002C61
:1031F00044D0434600200330A0421D7059709A709D
:1032000003F10303F7D3B6FBF4F9A64204FB196AF2
:1032100028D20A2341461FFA8AF21B4808F026F9F1
:1032200001224FF48051174802F052F8BD46BDE824
:10323000F08701224021124802F04AF800224FF4A0
:103240008051104802F044F8E908EA002B0AADF575
:10325000167D4FF41674E84603F0F80501F0FC0102
:10326000D2B2C6E70025A4B20A2322464146064848
:10327000013508F0FBF8A945F6D8CAE7FFDE00BF24
:103280000008024200040242E077002038B5FFF750
:103290006DFF0120FFF7F6FE642001F02DFB2820D2
:1032A000FFF7F0FEF720FFF7EDFEA920FFF710FF74
:1032B0005120FFF70DFF2C20FFF70AFF8220FFF7B8
:1032C00007FFC020FFF7DEFE1120FFF701FF0920F6
:1032D000FFF7FEFEC120FFF7D5FE4120FFF7F8FE05
:1032E000C520FFF7CFFE0020FFF7F2FE0A20FFF710
:1032F000EFFE8020FFF7ECFEB120FFF7C3FEB02009
:10330000FFF7E6FE1120FFF7E3FEB420FFF7BAFE59
:103310000220FFF7DDFEB620FFF7B4FE0220FFF724
:10332000D7FE4220FFF7D4FEB720FFF7ABFEC62042
:10333000FFF7CEFEBE20FFF7A5FE0020FFF7C8FE78
:103340000420FFF7C5FEE920FFF79CFE0020FFF7F1
:10335000BFFE3620FFF796FEE020FFF7B9FE3A20C9
:10336000FFF790FE6620FFF7B3FEE020FFF78AFE2E
:103370000020FFF7ADFE0720FFF7AAFE0F20FFF7A2
:10338000A7FE0D20FFF7A4FE1B20FFF7A1FE0A20D9
:10339000FFF79EFE3C20FFF79BFE7820FFF798FE8C
:1033A0004A20FFF795FE0720FFF792FE0E20FFF759
:1033B0008FFE0920FFF78CFE1B20FFF789FE1E20E1
:1033C000FFF786FE0F20FFF783FEE120FFF75AFE8E
:1033D0000020FFF77DFE2220FFF77AFE2420FFF772
:1033E00077FE0620FFF774FE1220FFF771FE07201C
:1033F000FFF76EFE3620FFF76BFE4720FFF768FEF3
:103400004720FFF765FE0620FFF762FE0A20FFF760
:103410005FFE0720FFF75CFE3020FFF759FE3720E4
:10342000FFF756FE0F20FFF753FE2120FFF72AFE7D
:103430001120FFF727FE782001F05EFA002140F20C
:103440003F13084640F2DF12FFF768FE00210B4DE4
:103450000B4C2A882388084692B29BB2FFF75EFE87
:103460002B8821889BB289B2002003FB01F1FFF772
:103470009BFEBDE838402920FFF704BE280000204D
:103480002A000020002170B504460A4E0A4D3288F9
:103490002B8808469BB292B2FFF740FE33882988FA
:1034A0009BB289B22046BDE8704003FB01F1FFF7F3
:1034B0007BBE00BF280000202A000020F8B5064689
:1034C00008460D46174641F01BFC0446284641F0CD
:1034D0001DFC00FB04F4AB892A89A9882888FFF722
:1034E0001DFE012240210E4801F0F2FE04EB4404CF
:1034F00000224FF480510B4801F0EAFE4FF0FF33F9
:103500003946A2B2084807F0B1FF064801224FF43D
:10351000805101F0DDFE3046BDE8F84017F070BF85
:103520000008024200040242E07700200FB482B09B
:1035300003AB019302B004B0704700BF704700BFF7
:1035400008B50DF099FB094C01F0D0F92368C01AB9
:10355000FA2807D901F0CAF9034604210448236078
:1035600001F0BCFE0A200BF08BFCEDE7D804002034
:103570000004024208B50A200BF082FCFBE700BF02
:1035800010B582B0FFF782FE002140F23F1340F2F7
:10359000DF120846FFF7C2FD4FF47840FFF772FFD5
:1035A0003FF0DCFB4FF4A0714FF4F07017F052FCC9
:1035B000134C0F21206017F0E5FE002000904FF41F
:1035C0006153104A2068104917F0C8FD0F49206860
:1035D00017F0CEFE3AF0ACFA044601213AF012FBA5
:1035E00020460B493AF016FB0A4842F013FEFDF75D
:1035F00085F844F02BFE05200BF042FCF9E700BFF4
:10360000DC040020E0040020203D0020BD34000840
:10361000E52F00083D350008704700BF0022014B30
:103620001A607047D4040020014B1868704700BF2F
:10363000D404002010B519480BF040FC0246184B8A
:1036400018481A600BF03AFC0121174B174A186012
:1036500008460BF08DFC0121154B164A18600846F0
:103660000BF086FC0446144B0021144A14481C60DD
:103670000BF0ACFB0446134B0021134A13481C60AB
:103680000BF0A4FB0446124B0021124A12481C60A6
:103690000BF09CFB114B186010BD00BFB0E005089B
:1036A000C4040020A0E00508C004002090E0050844
:1036B000BC04002080E00508B804002008E10508EB
:1036C00041350008D0040020E4E005087535000805
:1036D000CC040020C0E0050881350008C8040020A3
:1036E000002301220748084910B5C0E905330160ED
:1036F0008380026201F016FA00B910BDBDE81040E7
:1037000000F08CBA60750020003002400A4B02685D
:103710009A4200D07047094B82B0D3F8882042F417
:103720008052C3F88820D3F8883003F48053019383
:10373000019B02B0704700BF00300240000C024401
:1037400000B5104B83B0D3F88800002240F0010090
:10375000C3F88800D3F88830052103F001030193F2
:103760001B20019B01F0ECF81B2001F023F9002243
:1037700005211C2001F0E4F81C2003B05DF804EBE7
:1037800001F018B9000C024470B500248CB0CDE9EA
:103790000644CDE90844474B0A94D3F88C204321D2
:1037A00042F00402C3F88C20D3F88C20424802F087
:1037B00004020192019AD3F88C20012542F0800284
:1037C000C3F88C20D3F88C20022602F080020292EB
:1037D000029AD3F88C2042F00102C3F88C20D3F86F
:1037E0008C2002F001020392039AD3F88C2042F05D
:1037F0000202C3F88C20D3F88C2002F0020204925B
:10380000049AD3F88C2042F00802C3F88C20D3F835
:103810008C30224603F008030593059B01F058FD08
:1038200022460421254801F053FD01224FF4805126
:10383000224801F04DFD4FF40052002306A91E4816
:10384000CDE90623089401F07DFC432306A91A481C
:10385000CDE90635CDE9084601F074FC042306A93C
:103860001648CDE90635CDE9084601F06BFC4FF46A
:103870008053CDE90635032306A91048099308941F
:1038800001F060FC4FF4005306A90D480693CDE902
:10389000085407960A9401F055FC4FF48072094BC6
:1038A000064806A9CDE90623089401F04BFC0CB0AC
:1038B00070BD00BF000C0244000802420004024236
:1038C00000000242000011100023012210B5174829
:1038D000174C1849C4E90232C4E900012046C4E982
:1038E0000433C4E90633236201F086FE50B9002197
:1038F0000F4802F055F868B900210D4802F07AF837
:1039000080B910BD00F08AF90021094802F048F89A
:103910000028F1D000F082F90021054802F06AF891
:103920000028EED0BDE8104000F078B90054004007
:1039300088750020DB3FB000002310B51C4A0168E9
:1039400088B09142CDE90233CDE90433069301D02A
:1039500008B010BD03209FED147B0422154C02A972
:10396000D4F88C3043F00203C4F88C30D4F88C3097
:10397000059003F0020300930F48009B8DED027B3E
:10398000069201F0DFFBD4F89C3043F40013C4F836
:103990009C30D4F89C3003F400130193019B08B0D1
:1039A00010BD00BFAFF30080C00000001200000097
:1039B00000540040000C02440004024208B50020FC
:1039C00002F042F818B902F053F830B908BD00F01F
:1039D00025F902F04DF80028F8D0BDE8084000F0C5
:1039E0001DB900BFD0B59CB05022002108A856F0E8
:1039F00094FF0023CDE90233CDE90433CDE906334A
:103A0000254A136943F030031361136903F030034F
:103A10000193019B53691B07FCD502F04BFF1F4A22
:103A20000520D2F8F0304FF4803123F01803C2F8AB
:103A3000F03002230122CDE908010A920C211293F1
:103A4000149216933C221893032404230026002783
:103A500008A81793CDE91A6719911394159203F0EA
:103A600061F9034608B172B6FEE7CDE904331F23BE
:103A7000052102A8CDE906670394029302F0ECFF4A
:103A800008B172B6FEE7064A136823F0300343F02C
:103A9000200313601CB0D0BD00080244000C024497
:103AA000002002400000000010B5C2B04FF4847244
:103AB0000021684656F031FF012303213C220220F9
:103AC0009FED177B0824CDE90213CDE90D320C914F
:103AD00017930A2136934FF4C023CDE90420202008
:103AE0008DED007B04229FED107BCDE90F11189422
:103AF00040214FF480340B9315930C233F9068467C
:103B00008DED067BCDE9112224943391089303F0C7
:103B100081FD08B172B6FEE742B010BDAFF3008080
:103B20000320400010000000040000000500000019
:103B3000002300B587B0CDE903330293ADF804301C
:103B4000059300F095FF4FF0010C6FF0774220498C
:103B5000204B02A8CDE90312ADF808C0059300F090
:103B60009BFF4FF4884301A8ADF8043000F0BEFF7E
:103B7000042000F06BFF00F087FEFFF733FFFFF734
:103B800093FFFFF701FEFFF7DBFDFFF79DFEFFF759
:103B900015FF00F045F800F083F900F015FA00F089
:103BA0006BFC00F001FE00F0C1FB00F0F1FC00F046
:103BB00033FDFFF795FD00F02BF9074808F062F898
:103BC0000BF0BCF8FFF736FD0BF0DAF8FEE700BFAC
:103BD00000F0FF0800030100C07800200C4A0368D1
:103BE000934207D00B4A934201BF0B4A136801333B
:103BF0001360704710B5044600F06CFE2368054A58
:103C0000934200D010BD044A13680133136010BD05
:103C10000020004000180040D404002072B6FEE7E7
:103C2000002301220821142010B50D4CC4E9012302
:103C3000C4E90523C4E90733C4E90933C4E90B33F4
:103C4000C4E90D13E360074B20612046236009F0AF
:103C500053FA00B910BDBDE81040FFF7DFBF00BF49
:103C600058760020001400472DE9F0410021044659
:103C7000CCB04FF484720AA8CDE90411CDE9061145
:103C8000089156F04AFE5B4B22689A4202D04CB033
:103C9000BDE8F0810022022301210AA8CDE90A2310
:103CA000409103F0B7FC002840F09A80524B002668
:103CB000D3F89420032742F48012C3F89420D3F859
:103CC0009420092502F480120092009AD3F88C20E7
:103CD0004A4842F00402C3F88C20D3F88C204FF0FD
:103CE000060802F004020192019AD3F88C2042F0F7
:103CF0000102C3F88C20D3F88C2002F0010202925A
:103D0000029AD3F88C2042F00202C3F88C20D3F838
:103D10008C300C2203F0020303930223039904A9BD
:103D2000CDE904230895CDE9066701F00BFA40229E
:103D30000223334804A9CDE90423CDE90667CDF871
:103D4000208001F0FFF9012202232E4804A9CDE9C9
:103D50000423CDE90667CDF8208001F0F3F94FF494
:103D600080620223274804A9CDE904230895CDE900
:103D70000667032501F0E6F910220223214804A971
:103D8000CDE904230895CDE9066701F0DBF90023AE
:103D9000012239211C4DC5E90233C5E90433C5E9C7
:103DA0000633C5E90832C5E90A23C5E90C33174BC8
:103DB000284669602B6000F02BFFB8B9E56410213C
:103DC0001148EC6501F0A2F968B9002205214E20E6
:103DD00000F0B6FD4E2000F0EDFD4CB0BDE8F081E6
:103DE000FFF71CFF62E7FFF719FFEEE7FFF716FF8B
:103DF000E4E700BF00140047000C02440008024240
:103E00000000024200040242E0750020D00002409F
:103E100008B50023054A0648C0E9002306F0F2FC75
:103E200000B908BDBDE80840FFF7F8BE00080C4225
:103E3000B47600200000000010B50446C4B04FF472
:103E40008472002102A856F068FD134B22689A4242
:103E500001D044B010BD9FED0E7B102302A88DED64
:103E6000027B349303F0D6FB70B90C4BD3F88C2053
:103E700042F48022C3F88C20D3F88C3003F48023E2
:103E80000193019B44B010BDFFF7C8FEEDE700BFF2
:103E9000000000040000000000080C42000C024476
:103EA00000234FF080427F20FF2110B5254C8EB0BB
:103EB000CDE90133C4E90433C4E90632C4E9083367
:103EC000CDE90833CDE90A33CDE90C33CDE903332D
:103ED000CDE90533079363601B4BA0602046E1608A
:103EE000236006F061FD00BB0023164807A9CDE959
:103EF0000A3307930C9306F0BDFE00BB002301229A
:103F0000104802A9CDE90533ADF808308DF80A3024
:103F100006F0A6FD80B90D4B01220A4801A90193C4
:103F200006F026FE20B90EB010BDFFF777FEDBE7E6
:103F3000FFF774FE0EB010BDFFF770FEEBE7FFF762
:103F40006DFEDBE7C8760020007800440101010027
:103F500010B50446C4B04FF48472002102A856F094
:103F6000DCFC174B22689A4201D044B010BD9FED93
:103F7000127B4FF4807302A88DED027B3F9303F018
:103F800049FBA0B90F4BD3F8F02042F40042C3F82C
:103F9000F020D3F8A82042F40012C3F8A820D3F8E8
:103FA000A83003F400130193019B44B010BDFFF748
:103FB00035FEE7E7AFF300800000000200000000DC
:103FC00000780044000C024438B507220023164D47
:103FD0004FF4C0214FF08060C5E90323C5E90A32E0
:103FE0004FF08042A9604FF08051C5E905304FF491
:103FF0008004C5E90833C5E90E33C5E91233C5E9C4
:1040000014332B666A6300230022E96107492846BE
:10401000C5E916236C60296007F050F900B938BD76
:10402000BDE83840FFF7FABDE077002000380040D7
:1040300030B500210446CBB04FF4847208A8CDE916
:104040000211CDE90411069156F067FC364B226847
:104050009A4201D04BB030BD4FF08052002308A8E7
:10406000CDE9082303F0D6FA00284FD12F4B0020CA
:10407000D3F89C20032142F48042C3F89C20D3F85B
:104080009C209FED277B02F480420092009AD3F897
:104090008C20274D42F00202C3F88C20D3F88C30DC
:1040A000CDE9040103F002030193019B052321489C
:1040B00002A906938DED027B01F044F80023012252
:1040C0000921C5E90233C5E90433C5E90633C5E969
:1040D0000832C5E90A23C5E90C33174B2846696045
:1040E0002B6000F095FDB8B910211148C4F880503C
:1040F000EC6501F00BF860B900220521382000F0D2
:104100001FFC382000F056FC4BB030BDFFF786FD99
:10411000ACE7FFF783FDEFE7FFF780FDE4E700BFC3
:1041200000A000000200000000380040000C024423
:1041300068770020000402425000024000220F2154
:104140006FF0010000F0FCBB30B5264B89B0D3F80E
:104150009C20044642F48072C3F89C20D3F89C3023
:10416000694603F48073019302A8019B03F05AF996
:10417000059BE3B903F0F6F80346002263251A49CC
:104180005B09A1FB03131949DB09013B4B60184B89
:104190000846C1E903528A600B6008F079F80546C9
:1041A00048B17A2000F006FC284609B030BD03F083
:1041B000D9F84300E1E70D4807F064FD0546002803
:1041C000EFD10F2C06D901257A2000F0F3FB284609
:1041D00009B030BD024621467A2000F0B1FB054B04
:1041E0001C60DEE7000C0244C55A7C0A707800208F
:1041F0000020004034000020FEE700BFFEE700BFC3
:10420000FEE700BFFEE700BFFEE700BF704700BF4C
:10421000014800F0BBBE00BF68770020014800F0F5
:10422000B5BE00BFE0750020014807F089BA00BFA5
:10423000E0770020014808F08BBA00BFF879002031
:10424000014808F085BA00BF60790020014801F0FC
:1042500085BC00BF8C7A0020014809F00FB800BF70
:1042600058760020014806F00FBF00BFF876002006
:10427000014807F055BE00BFC0780020014807F094
:104280004FBE00BF70780020002230B44FF00064B1
:104290001F48204BD0F8881041F47001C0F88810F6
:1042A000196801F0180141F001011960DA611A6220
:1042B0001D6819492940196018499A62DA621A631F
:1042C00059639A63D9631A6459649A64196821F42A
:1042D0008021196012491A6584608B6903F040439C
:1042E000B3F1404F01D030BC7047CB69DB0703D539
:1042F0000C4A0D4BCA60CB60094B30BCDA6942F006
:104300000202DA61DA6942F00102DA61704700BF45
:1043100000ED00E0000C0244FBEAE2EA8002010149
:10432000002002403B2A19087F6E5D4C00234FF4A9
:104330007A71802210B51848184C88B02060204649
:10434000C4E90133CDE90533CDE902330493019388
:10435000E160A2612361079307F09AFF88B94FF4E7
:1043600080530E4804A9049307F0F2FC80B900239F
:104370000A4801A90193039308F0CAF820B908B0CC
:1043800010BDFFF74BFCEAE7FFF748FC08B010BD93
:10439000FFF744FCEBE700BF00180040C0780020A6
:1043A00000B5184A036883B0934204D0164A93427A
:1043B00010D003B000BD154BD3F8A42042F4006226
:1043C000C3F8A420D3F8A43003F400630093009B47
:1043D00003B000BD0D4B0022D3F89C00052140F036
:1043E0004000C3F89C00D3F89C30782003F04003D1
:1043F0000193019B00F0A4FA782003B05DF804EB70
:1044000000F0D8BA002C014000180040000C024413
:10441000002310B5144A016888B09142CDE90233F7
:10442000CDE90433069301D008B010BD0124022069
:104430009FED0B7B0D4B02A9D3F88C202243C3F8D0
:104440008C20D3F88C3005902340019308488DEDE3
:10445000027B019B069400F075FE08B010BD00BF02
:104460000001000002000000002C0140000C02448A
:10447000000002420000000010B500249CB034226D
:1044800021460FA8CDE90544CDE90144CDE9094411
:10449000CDE90B44CDE90D440494009408940794AD
:1044A00056F03BFA40F6FF73374AD360374B10465D
:1044B000C2E90144C2E904449461136007F0E8FED4
:1044C000002845D14FF480532F4804A9049307F0E6
:1044D0003FFC00284FD12C4807F00CFF002847D1A3
:1044E000002000220023029069462748CDE90023DE
:1044F00008F00EF8002838D1002260239FED207BC1
:10450000214808A98DED0C7BCDE90832CDE90A22BE
:104510000E9207F079FF28BB00234FF400544FF0B0
:10452000007219480FA9CDE90F33CDE91133CDE958
:104530001334CDE91533CDE91732CDE919331B9387
:1045400008F064F838B91048FFF762FF1CB010BDDE
:10455000FFF764FBB6E7FFF761FB0B48FFF758FF77
:104560001CB010BDFFF75AFBD6E7FFF757FBC3E7B8
:10457000FFF754FBB4E7FFF751FBACE7AFF3008064
:10458000000000000000000010790020002C014015
:1045900000234FF4E1310C2210B51D481D4C206062
:1045A0002046C4E90113C4E90333C4E90523C4E97F
:1045B0000733C4E9093308F099FC70B900211548A4
:1045C00008F04EFD88B90021124808F06FFDA0B92F
:1045D000104808F027FDB8B910BDFFF71FFB0021F8
:1045E0000C4808F03DFD0028EDD0FFF717FB002137
:1045F000084808F05BFD0028EAD0FFF70FFB0548EC
:1046000008F010FD0028E7D0BDE81040FFF706BB1A
:1046100000380140F879002008B52048204B4FF4BD
:1046200016510C22036000234261C0E901131A46AF
:104630001946C0E90333C0E90633C0E90833836291
:1046400008F0A8FC70B90021144808F009FD88B9E9
:104650000021124808F02AFDA0B9104808F0E2FC39
:10466000B8B908BDFFF7DAFA00210C4808F0F8FCE9
:104670000028EDD0FFF7D2FA0021084808F016FD17
:104680000028EAD0FFF7CAFA044808F0CBFC00285B
:10469000E7D0BDE80840FFF7C1BA00BF607900204D
:1046A000004400400000000010B500243A4A0368AE
:1046B0008AB09342CDE90444CDE90644089404D07D
:1046C000364A934230D00AB010BD354B9FED2E7B59
:1046D000D3F8A42004A942F48042C3F8A420D3F85C
:1046E000A420304802F480420092009AD3F88C2033
:1046F00042F00102C3F88C20D3F88C308DED047B9E
:1047000003F001030193019A022307220793089201
:1047100000F018FD224605213A2000F011F93A2058
:1047200000F048F90AB010BD1D4B9FED197BD3F87E
:104730009C2004A942F40032C3F89C20D3F89C20AA
:10474000184802F400320292029AD3F88C2042F008
:104750000102C3F88C20D3F88C308DED047B03F07C
:1047600001030393039A022307220793089200F0A0
:10477000E9FC224605213B2000F0E2F83B2000F056
:1047800019F90AB010BD00BF0006000002000000C9
:104790000E0000000200000000380140004400400C
:1047A000000C02440000024202230821002210B53E
:1047B0000848094C20602046E3712171C4F8093093
:1047C000C4F80D2001F05EF900B910BDBDE810403D
:1047D000FFF724BA006001408C7A0020104B026879
:1047E0009A4200D0704700B583B002F06BF80D4BD1
:1047F0000022D3F8A400052140F08070C3F8A40083
:10480000D3F8A4304A2003F080730193019B00F099
:1048100097F84A2003B05DF804EB00F0CBB800BF76
:1048200000600140000C0244DFF83CD00F4880F3E8
:104830000A88002103E00E4B5B58435004310D48B9
:104840000D4B42189A42F6D30C4A02E0002342F87C
:10485000043B0B4B9A42F9D3FFF716FD56F0C4F810
:10486000FFF766F9FEE7000000000A2000FC0920BF
:10487000A4810608000000208001002080010020A3
:10488000C4A70120FEE7000010B5032000F046F8A1
:1048900002F0BAF803460C4A0C48126A0C4902F0BE
:1048A0000F02825C0420D3400B6000F091F80F20CF
:1048B000FFF74AFC10B10124204610BD0446FFF763
:1048C0003DFC204610BD00BF000C024434E1050849
:1048D0002C000020034A044B11681B780B44136022
:1048E000704700BF707D002030000020014B186829
:1048F000704700BF707D002038B50446FFF7F6FF13
:10490000631C054602D0044B1B781C44FFF7EEFFE6
:10491000401BA042FAD338BD300000204FF6FF0CF8
:1049200006490302CA6803F4E06302EA0C02134377
:1049300043F0BF6343F40033CB60704700ED00E009
:104940001A4B00B5DB68C3F30223C3F1070EBEF1B7
:10495000040F03F1040C28BF4FF0040EBCF1060F46
:104960001BD9A3F1030C4FF0FF3303FA0CF322EA37
:1049700003024FF0FF3303FA0EF321EA030303FAB5
:104980000CF313431B010028DBB209DB00F160408C
:1049900000F5614080F8003300BD00229446E8E74E
:1049A000034A00F00F000244137600BD00ED00E062
:1049B000FCEC00E0002807DB012300F01F01034AA4
:1049C00040098B4042F82030704700BF00E100E012
:1049D000042813D8DFE800F02A1A031213004FF05E
:1049E000E0210B69184A23F004030B61D2F8E4308C
:1049F00023F00C0343F00803C2F8E43070474FF093
:104A0000E022136943F00403136170474FF0E02183
:104A10000B690D4A23F004030B61D2F8E43023F054
:104A20000C0343F00403C2F8E43070474FF0E02178
:104A30000B69054A23F004030B61D2F8E43023F03C
:104A40000C03C2F8E4307047000C0244BFF35F8FE0
:104A5000064B40F00100C3F894005A6A42F48032D9
:104A60005A62BFF34F8FBFF36F8F704700ED00E0C6
:104A7000BFF35F8F074B5A6A22F480325A62D3F831
:104A8000942022F00102C3F89420BFF34F8FBFF3AC
:104A90006F8F704700ED00E0BFF35F8F124A4378DD
:104AA000C2F89830D2F8A03023F00103C2F8A03049
:104AB000436890F80EC0C17B23F01F0343EA0C0348
:104AC00043EAC103417B43EA4103C2F89C30836857
:104AD00090F800C0017B23F01F0343EA0C0343EA74
:104AE0004103C2F8A030704700ED00E010B4BFF3FE
:104AF0005F8F4FF0FF0C03784178032B8ABF074C80
:104B0000074C043B2268DB0099400CFA03F322EACD
:104B100003030B4323605DF8044B7047C4ED00E0D2
:104B2000C0ED00E0002836D038B5437F044603F0DE
:104B3000FF0263B3022223796277F3B92368174A2D
:104B40005A619A6822F018029A6062798AB12269E1
:104B50001A6101219A68656922F060022A439A600D
:104B60009A68A56922F080022A439A606177002042
:104B700038BD4FF0FF321A61EBE72046D4E902124C
:104B800000F00EF808B92368DFE7012038BD02778E
:104B9000FEF7BCFDCEE70120704700BFB71DC10482
:104BA000CB071AD51E2310B401E0013B17D321FA1D
:104BB00003FC1CF0010FF8D0182A11D8DFE802F02E
:104BC00016101010101010102410101010101010CB
:104BD00021101010101010101400012070472AB17D
:104BE00001205DF8044B7047062BF9D804680020BB
:104BF0006161A36823F018031343A3605DF8044BBD
:104C00007047072BF2D9EBE70F2BEFD9E8E700BF8E
:104C100070B50446FFF76AFE002C00F03B810546A4
:104C2000002094F85410236801F0FF0284F84C002F
:104C3000002900F0D380022284F854205A6942F0FF
:104C400006025A6106E0FFF751FE431B052B00F2F6
:104C50001C8123685A69D207F5D45A69606922F425
:104C60004302D4E907152A43256901435A61A26921
:104C70002943A0681143226BE56810432279104351
:104C80008D4A934200F0B08002F18052934200F0CE
:104C9000AB8002F170428032934200F0A58002F1B5
:104CA0008052934200F0A08002F170428032934221
:104CB00000F09A8002F18052934200F0958002F158
:104CC00070428032934200F08F8002F18052934212
:104CD00000F08A8002F170428032934200F08480BA
:104CE00002F1805293427FD002F1704280329342AF
:104CF0007AD002F18052934276D002F17042803233
:104D0000934271D002F1805293426DD002F1704211
:104D10008032934268D002F18052934264D002F113
:104D2000704202F5486293425ED002F18052934293
:104D30005AD002F170428032934255D002F1805233
:104D4000934251D002F17042803293424CD002F132
:104D50008052934248D002F170428032934243D055
:104D600002F1805293423FD002F17042803293426E
:104D70003AD002F18052934236D002F17042803232
:104D8000934231D002F1805293422DD002F1704211
:104D90008032934228D002F18052934224D002F113
:104DA0007042803293421FD002F1805293421BD056
:104DB0001A6CB5F5806F02F0802242EA01021A6493
:104DC00070D0B5F5007F67D05A6C3C4D616B2A40BE
:104DD0000A43024300205A6498644EE0C4E9182252
:104DE000C4E91A22226726E7A26AE66A013A120596
:104DF00002F07C720A43616A32430139090101F40D
:104E00007C710A43196CB5F5806F01F0802142EA8C
:104E100001021A6443D0B5F5007F3DD05A6C274D8E
:104E2000616B2A400A43024300205A64244A986472
:104E300093421FD002F1805293421BD002F1704284
:104E40008032934216D002F18052934212D002F186
:104E5000704202F5786293420CD002F18052934284
:104E600008D002F170428032934203D002F18052A6
:104E7000934202D100225A659A6500200122D86728
:104E8000A06584F85420216570BD10220323A2651B
:104E900084F85430012070BD40F40070BEE740F447
:104EA0008060BBE70025616B5A6C044E08433240BA
:104EB00002435A649D64E0E7500002400021C03C78
:104EC0005003024038B50446FFF710FD002C34D0E3
:104ED00094F85430022B2BD10521236805465A69DA
:104EE00042F004025A6184F8541005E0FFF7FEFC1A
:104EF000431B052B23D823681A699104F6D5042592
:104F00004FF4FE4001215A6942F002025A61226DBB
:104F100084F854501206D86084F8541003D5002247
:104F2000606F01739A64002384F84C30184638BDD2
:104F300020220023A26584F84C30012038BD0321D3
:104F4000A36D226D43F010031006A36584F854107E
:104F500002D50122636F1A73002384F84C30ECE70A
:104F6000034628B190F85420022A03D020228265FB
:104F70000120704704211A6883F8541053690020F7
:104F800043F400530B435361704700BF0121036892
:104F900010B5C3F30B02044623F47F6020F00F002A
:104FA000503AC068C2F3C4129140014200F0A5809B
:104FB0001A69520509D55A69500506D54FF4806221
:104FC000DA60A26D42F00102A2651A69110509D5E5
:104FD0005A69120506D54FF40062DA60A26D42F0FC
:104FE0000202A2651A69D00409D55A69D10406D50E
:104FF0004FF48052DA60A26D42F00402A2651A6991
:10500000520409D55A69500406D54FF48042DA603B
:10501000A26D42F00802A2651A6991050AD55A6983
:10502000920507D54FF40071626ED96012B1204627
:10503000904723681A69900411D55A6991040ED5D6
:105040004FF40052DA6094F85420042A3DD0052130
:10505000226F84F8541012B12046904723681A69D1
:10506000D00518D55A69D10515D5226D120645D53A
:10507000DA6F32B99A6C22B90122616F84F8542038
:105080000A734FF440700021226ED86084F84C10EF
:105090000AB120469047A36D002B2ED02268012133
:1050A0005369206D43F0020353610022030648BF99
:1050B000636F84F8541048BF1973A36E84F84C20B2
:1050C000DBB12046BDE81040184701215A69206D28
:1050D00022F400525A615A6942F002025A610206F1
:1050E00084F8541003D50022606F01739A64002283
:1050F000E36E84F84C20002BE3D110BD9A6C002A9B
:10510000BFD1012284F85420BBE700BFC0B1CB0659
:1051100014D54FF0010C036801F01101C3F30B0229
:10512000503A6FF30B031129C2F3C41259680CFAF9
:1051300002F20CBF0A4321EA02025A6000207047C3
:10514000012070472DE9F04F0D6885B0002D00F06B
:10515000B8805D4A002302EA90224FF0010BDFF88D
:105160006CA1039201915BE0D0F800E00CF1FF3CF0
:105170000EEA060E08FA07F14EEA010EBCF1010F25
:10518000C0F800E040F28580019AB8F1030F926800
:1051900001D1012A04D0BA40C7683E403243C26000
:1051A000E20039D50F2123F0030606F1884603F00B
:1051B000030206F50836D200376E01FA02FC0399A5
:1051C00027EA0C0701FA02F23A4332666FEA09064F
:1051D000DAF80020E70254BF324049EA0202CAF876
:1051E0000020DAF80420A10254BF324049EA02024A
:1051F000CAF80420DAF88420A70354BF324049EAF1
:105200000202CAF88420DAF88020E10354BF324059
:1052100049EA0202CAF88020013335FA03F250D07D
:105220000BFA03F212EA0509F6D001995F004C6807
:10523000032124F0100C04EA010801FA07F6BCF17E
:10524000020F08FA07F16FEA060602918CD1019964
:105250004FEAD308096903F0070C01F00F0E0F2184
:1052600000EB88084FEA8C0C0EFA0CFE01FA0CFCDD
:10527000D8F8201021EA0C0C4EEA0C0EC8F820E0F9
:10528000D0F800C002990CEA060C4CEA010CC0F8F8
:1052900000C00199D0F808E0C9680EEA060E01FACC
:1052A00007FC4CEA0E0CC0F808C0D0F804C0019905
:1052B0002CEA020C22099A4042EA0C0242608A68F7
:1052C00069E705B0BDE8F08F7F7F2F000020024422
:1052D0000AB1816170478162704700BF436901EA8A
:1052E000030221EA030141EA02418161704700BFE4
:1052F00003682DE9F0419C69074614F0100C50D06A
:105300000024154610220E46A046DA619A699106DD
:105310007AD4B8F1000F06D1721C4DD19A69950666
:10532000FCD52022DA61012044F0040C9A69D505ED
:1053300002F4806102F400742BD54FF480724CF0BB
:10534000010CDA6121B14FF480624CF0080CDA6193
:1053500024B14FF400724CF0020CDA619A699107A3
:1053600044BF00229A629A69D2071CD55A6828491C
:1053700020240A4000215A607B6C87F8401043EAE1
:105380000C037B6487F8414087F842100120BDE898
:10539000F0810029D7D1002CDBD10028DED1BDE877
:1053A000F0816046C2E79A6942F001029A61DDE746
:1053B00046B19A699006B4D4FFF798FA401BB04200
:1053C0003B68F5D9586897F842209969D2B2090428
:1053D0000BD5410409D4202A07D05A6842F48042F0
:1053E0005A60FFF783FA05463B689A6990068DD4A8
:1053F000FFF77CFAA0EB050CBCF1190F3B68F4D960
:1054000020244FF0010881E7B8F1000F8BD188E725
:1054100000E800FE70B5036804460D46164608E035
:10542000324629462046FFF763FFE8B96A1C05D1DA
:1054300023689B699B07F3D5002070BDFFF756FAE0
:10544000801BA842236801D8002DF2D19A6912F07E
:105450000202EED12021636C84F840200B43636488
:1054600084F8411084F84220012070BD2DE9F843F2
:10547000DDF820901E46054688461746036808E07A
:105480004A4631462846FFF733FF48BB731C0BD111
:105490002B689C6938EA04040CBF01230023BB423B
:1054A000EED00020BDE8F883FFF720FAA0EB09005A
:1054B000B0422B6801D8002EEBD19A6938EA02027B
:1054C0000CBF01220022BA42E3D1202100226B6CE2
:1054D00085F840200B436B6485F8411085F8422025
:1054E0000120BDE8F88300BF03689B699B0629D4AF
:1054F00070B505460C4616460DE0FFF7F7F9801B20
:10550000A042296800D81CB98B6913F020030DD084
:105510008B699B0608D4324621462846FFF7E8FEF1
:105520000028EAD0012070BD002070BD20216A6CE7
:1055300001200A436A6485F8403085F8411085F8F7
:105540004230F0E700207047036870B59B690D4654
:1055500059070446164637D4324629462046FFF7F7
:10556000C7FE2368E8B99A69920623D59A699A69B1
:1055700012F010021DD0202104221026DE61626488
:10558000D9615A681B4D2A405A6084F8411084F84A
:10559000400084F84200FFF7A9F923689B690120C5
:1055A00070BD9B699906F6D4FFF7A0F923689B6943
:1055B000F5E76264FFF79AF9801B854206D32DB1A7
:1055C00023689B695A07C7D5002070BD226893697C
:1055D00013F0040309D12020616C84F840300143AA
:1055E000616484F841009369D9E793695B07B3D597
:1055F000EAE700BF00E800FE002855D038B590F873
:105600004130044603F0FF02002B48D0D4E90032B9
:10561000242184F84110196822F0706221F0010100
:10562000E568A06819601A619A68012D22F40042A9
:105630009A6009D040F40440022D986007D15A685E
:1056400042F400625A6006E040F4004098605A68F4
:1056500022F400625A6000214FF0200C5A6842F098
:10566000007242F400425A60DA6822F40042DA60C2
:10567000D4E904200243A06942EA0022DA60D4E9B6
:10568000072002431A601A68084642F001021A60B5
:10569000616484F841C0216384F8421038BD80F809
:1056A0004020FEF749F9B1E7012070472DE9F047A6
:1056B000984690F8413082B0202B0A9E40F08F80AF
:1056C00090F840300446012B00F089804FF0010A29
:1056D00080F840A00F469146FFF708F905461923C8
:1056E0004FF40041524620460095FFF7BFFE0028C8
:1056F00071D1212384F84130102384F84230606452
:10570000A4F82A80638D22689BB2FF2BC4F82490F2
:105710006063C7F3090766D8638D3F4851689BB241
:105720002385DBB247EA034301400B4343F0007398
:1057300043F400535360638D2A469BB231462046A2
:10574000002B37D0FFF766FE002844D1616A23683A
:1057500011F8010B228D9862638D013A013B9BB2D7
:105760006385638D92B29BB261622285002BE2D089
:10577000002AE0D13346802120460095FFF776FECF
:1057800003462648024633BB638D21689BB2FF2B3C
:1057900035D9FF2323854B682A4603403B4343F01A
:1057A000FF7343F480334B60638D31469BB22046D8
:1057B000002BC7D1FFF798FE68B920212368184D48
:1057C000D9615A682A405A6084F8411084F8400030
:1057D00084F8420000E0012002B0BDE8F08702201A
:1057E00002B0BDE8F087FF230B49238553680B40C7
:1057F0003B4343F0FF7343F4903353609BE7638D67
:1058000048689BB22385DBB247EA03430240134357
:1058100043F000734B608EE7009800FC009C00FC96
:1058200000E800FE2DE9F047984690F8413082B03C
:10583000202B0A9E40F0908090F840300446012BC7
:1058400000F08A804FF0010A80F840A00F46914690
:10585000FFF74CF8054619234FF400415246204605
:105860000095FFF703FE002872D1222384F841300F
:10587000102384F842306064A4F82A80638D226883
:105880009BB2FF2BC4F824906063C7F3090767D865
:10589000638D404851689BB22385DBB247EA0343DE
:1058A00001400B4343F0007343F410535360638D86
:1058B0002A469BB231462046002B38D0FFF744FEE3
:1058C000002845D12268636A526A1A70638D228D5E
:1058D000013B9BB26385616A638D013A92B20131EB
:1058E0009BB261622285002BE1D0002ADFD13346D2
:1058F000802120460095FFF7B9FD03462648024661
:1059000033BB638D21689BB2FF2B35D9FF232385E1
:105910004B682A4603403B4343F0FF7343F4803314
:105920004B60638D31469BB22046002BC6D1FFF7FA
:10593000DBFD68B920212368184DD9615A682A40D7
:105940005A6084F8411084F8400084F8420000E076
:10595000012002B0BDE8F087022002B0BDE8F08768
:10596000FF230C49238553680B403B4343F0FF73EF
:1059700043F4923353609AE7638D48689BB2238562
:10598000DBB247EA03430240134343F000734B602A
:105990008DE700BF009800FC009C00FC00E800FEC2
:1059A00090F84120202A22D15FFA82FC90F8402012
:1059B0000346012A1BD0242000B54FF0000E1A68C0
:1059C00083F84100106820F001001060106820F496
:1059D000805010601068014311601168704641F0FA
:1059E0000101116083F841C083F840E000BD02204E
:1059F000704700BF90F84120202A21D100B55FFAFE
:105A000082FE90F840200346012A1BD024204FF04C
:105A1000000C1A6883F84100106820F00100106043
:105A2000106820F4706040EA01211160116860463E
:105A300041F00101116083F841E083F840C000BDEE
:105A400002207047022000BD08490B6813F00103D3
:105A50000AD1024610B40C68184624F0040313431C
:105A60005DF8044B0B607047012070470004034051
:105A7000034A0020136843F001031360704700BF1E
:105A80000004034070B582B0C8B190F89532044666
:105A900003F0FF02002B58D00323206884F89532CE
:105AA00007F058FD237C251D8DF80030206895E80F
:105AB0000E0007F037FD30B1022384F8953201253E
:105AC000284602B070BD0146206807F04DFD002851
:105AD000F2D126790EB3234622464FF0010C01463F
