:020000040800F2
:1000000000000A20F1490008194400081D440008B6
:100010002144000825440008294400084D4A0008EE
:10002000000000000000000000000000010D0108B9
:100030002D44000800000000B90C01081DF0000864
:100040004D4A00084D4A00084D4A00084D4A000834
:100050004D4A00084D4A00084D4A00084D4A000824
:100060004D4A00084D4A00084D4A00084D4A000814
:100070004D4A00084D4A00084D4A00084D4A000804
:100080004D4A00084D4A00084D4A00084D4A0008F4
:100090004D4A00084D4A00084D4A00084D4A0008E4
:1000A0004D4A00084D4A00084D4A000831440008F6
:1000B0003D4400084D4A00084D4A00084D4A0008DA
:1000C0004D4A00084D4A00084D4A00084D4A0008B4
:1000D000000000004D4A00084D4A00084D4A000843
:1000E0004D4A00084D4A00084D4A00084D4A000894
:1000F0004D4A00084D4A00084D4A00084D4A000884
:100100004D4A00084D4A00084D4A00084D4A000873
:100110004D4A00084D4A00084D4A00084D4A000863
:10012000494400084D4A000855440008614400084D
:100130004D4A00084D4A00084D4A00084D4A000843
:100140004D4A00084D4A00084D4A00084D4A000833
:100150004D4A00084D4A00084D4A00084D4A000823
:100160004D4A00084D4A00086D4400084D4A0008F9
:100170004D4A00084D4A00087944000885440008AB
:100180004D4A00084D4A00084D4A00084D4A0008F3
:100190004D4A00084D4A00084D4A00084D4A0008E3
:1001A0004D4A00084D4A00084D4A00084D4A0008D3
:1001B0004D4A00084D4A00084D4A00084D4A0008C3
:1001C0004D4A00084D4A00084D4A00084D4A0008B3
:1001D0004D4A00084D4A0008000000004D4A000842
:1001E0004D4A00084D4A00080000000000000000D1
:1001F0004D4A000800000000000000004D4A0008C1
:100200004D4A00084D4A00084D4A00080000000011
:10021000000000004D4A0008000000004D4A0008A0
:10022000914400084D4A00089D4400084D4A0008CA
:100230004D4A00084D4A00084D4A00084D4A000842
:0C0240004D4A00084D4A00084D4A0008D5
:1002500010B5054C237833B9044B13B10448AFF300
:1002600000800123237010BD600200200000000008
:10027000FCAD050808B5034B1BB103490348AFF3B8
:10028000008008BD0000000064020020FCAD0508ED
:10029000034613F8012B002AFBD1181A01387047C6
:1002A0007BB972B90029BEBF00204FF0004106E0C3
:1002B00008BF00281CBF6FF000414FF0FF3000F076
:1002C000FDB9ADF1080C6DE904CE002909DB002B66
:1002D0001ADB00F04DF8DDF804E0DDE9022304B09C
:1002E0007047404261EB4101002B1BDB00F040F8FE
:1002F000DDF804E0DDE9022304B0404261EB410196
:10030000524263EB43037047524263EB430300F0F6
:100310002FF8DDF804E0DDE9022304B0404261EB90
:1003200041017047524263EB430300F021F8DDF8CE
:1003300004E0DDE9022304B0524263EB430370475B
:1003400053B94AB9002908BF00281CBF4FF0FF313C
:100350004FF0FF3000F0B2B9ADF1080C6DE904CEFA
:1003600000F006F8DDF804E0DDE9022304B0704790
:100370002DE9F04F8C46099E04460F46002B48D1CC
:100380008A4215465ED9B2FA82F33BB1C3F120022C
:100390009F409D409C4020FA02F217434FEA154EC1
:1003A0001FFA85FC220CB7FBFEF10EFB117701FB57
:1003B0000CF042EA0742904207D9AA1801F1FF3730
:1003C00002D2904200F258813946121AA4B2B2FB0E
:1003D000FEF00EFB102200FB0CFC44EA0244A44594
:1003E0000BD92C1900F1FF322CBF01270027A4459F
:1003F00002D9002F00F04381104640EA0140A4EBEF
:100400000C0400211EB1DC400023C6E90043BDE816
:10041000F08F8B4206D90EB1C6E9000100210846D3
:10042000BDE8F08FB3FA83F1002951D16345C0F0E4
:100430001681824240F213810846002EE7D0C6E9B9
:100440000047E4E7002A00F0AF80B2FA82F3002B05
:1004500040F0C2808A1A4FEA154EAFB20121200C3B
:10046000B2FBFEFC0EFB1C2240EA024207FB0CF032
:1004700090420ED9AA180CF1FF382CBF4FF0010999
:100480004FF00009904203D9B9F1000F00F0F0805D
:10049000C446121AA4B2B2FBFEF00EFB102200FBFF
:1004A00007F744EA0244A7420ED92C1900F1FF32A3
:1004B0002CBF4FF0010E4FF0000EA74203D9BEF142
:1004C000000F00F0D2801046E41B40EA0C4099E790
:1004D000C1F120058B400CFA01F400FA01F922FA6F
:1004E00005F72CFA05FC8A401F4320FA05F3380C67
:1004F00023431FFA87FE1C0CBCFBF0F800FB18CC52
:1005000044EA0C4408FB0EFCA4450ED93C1908F142
:10051000FF3A2CBF4FF0010B4FF0000BA44503D95D
:10052000BBF1000F00F0B880D046A4EB0C041FFA1A
:1005300083FCB4FBF0F300FB134403FB0EFE4CEA18
:100540000444A6450ED93C1903F1FF302CBF4FF0EF
:10055000010C4FF0000CA64503D9BCF1000F00F0D0
:100560009F80034643EA0840A4EB0E04A0FB02EC84
:1005700064457346E04602D307D1F14505D2BEEB90
:1005800002036CEB070C0138E0465EB1B9EB0302E5
:1005900064EB080404FA05F522FA01F3CC401D438C
:1005A000C6E90054002132E742082F464B08AC460A
:1005B00042EAC172AE46C407110C92B241EA03414D
:1005C00042EA0142B1FBF5F1B3FBF5F01F23A2EBC8
:1005D0000C0241EA004142E79D40C3F120029940EC
:1005E0009C402CFA02FC4FEA154E20FA02F2AFB200
:1005F000BCFBFEF80A430EFB18CC110C41EA0C417F
:1006000008FB07FC8C4550D9691808F1FF302CBF56
:100610004FF001094FF000098C4502D9B9F1000FE4
:1006200030D0A1EB0C01B1FBFEF808FB07FC0EFB80
:10063000181192B242EA0142624534D2AA1808F176
:10064000FF312CBF4FF001094FF000096245BED2C7
:10065000B9F1000FBBD1A8F102012A44B7E7841A0F
:100660006CEB030201201746E7E62C4402382BE727
:10067000ACF1020C2A440CE702392A44A5E62C44CA
:100680000238BAE6A5EB0C0CA8F102006144B1FBFC
:10069000FEF808FB07FCCAE7A8F102083C4444E75F
:1006A000023B3C445EE7414691E7A1EB0C0140462A
:1006B000B1FBFEF808FB07FCB9E700BF704700BFBD
:1006C0000C4A13680133052B136000D8704710B52E
:1006D000094C82B0206848B100240A234FF4FA7212
:1006E000052100941BF0B6F802B010BD01F0C4F96A
:1006F0002068F1E77C0200200C03002030B50020C8
:1007000083B011F0EFFC244C1221206011F076FD33
:100710000020256844F09CFE03468DF80030C3F3AA
:100720000721C3F307438DF802308DF801100099BB
:100730000022284618F06CFC0020256844F088FE52
:1007400003468DF80430C3F30721C3F307438DF844
:1007500006308DF8051000220199284618F076FC25
:10076000206850F0E3FD0D4D0D49286051F066F80A
:10077000002228680025114613F002FD094B4FF4B2
:10078000FA71094A09481D6047F0F2FE206803B07B
:10079000BDE830401BF09ABA84020020800200209D
:1007A0003CAE05087C02002000000020C1060008C5
:1007B00008B545F099FA042802D0092800D008BDF0
:1007C000024B1868BDE8084057F000BAB402002098
:1007D00008B545F089FA042802D0092800D008BDE0
:1007E000024B1868BDE8084057F0F0B9B00200208D
:1007F00008B545F079FA042802D0092800D008BDD0
:10080000024B1868BDE8084057F0E0B9AC02002080
:1008100008B545F069FA042802D0092800D008BDBF
:10082000024B1868BDE8084057F094B9B4020020A4
:1008300008B545F059FA042802D0092800D008BDAF
:10084000024B1868BDE8084057F084B9B002002098
:1008500008B545F049FA042802D0092800D008BD9F
:10086000024B1868BDE8084057F074B9AC0200208C
:100870002DE9F041514884B046F026FD50494F48DB
:1008800047F012F86FF07F4044F0E2FD0346C3F3F7
:100890000721C3F307428DF80C308DF80E20DFF8E6
:1008A0003C818DF80D100399444846F0EDFFD8F8CF
:1008B000000052F015FB0446002152F0D1FB204607
:1008C000012152F077FC20463E4952F015FB2021D1
:1008D00000910423D8F800100122204615F0A4F955
:1008E000D8F8000056F0E6FF374C40F6FF720021C2
:1008F000206057F07BF800222068042157F00EF8A2
:100900002068002157F098F82068012157F050F82E
:100910002068002156F0DAFF2068402113F056FCD1
:1009200018228021206813F02BFC206814F06CF84A
:100930000746D8F800004EF01BFA002506463A4656
:10094000394613F0A3FC0095052330462168142294
:1009500015F06AF92A463046184918F0B5FA2A46C1
:1009600030461A4918F088FB2B462A46184930466B
:1009700013F0A0F9D8F800004EF0FAF906463A460E
:10098000394613F083FC6FF00403216830461122CE
:10099000009515F049F92A463046084918F094FAAE
:1009A0002A4630460B4918F067FB2B462A4630464C
:1009B000094904B0BDE8F04113F07CB9A002002061
:1009C000B0320D0858B60C08B402002068B60C0806
:1009D000110800086CB60C08B1070008B802002026
:1009E0002DE9F041514884B046F06EFC50494F4823
:1009F00046F05AFF6FF07F4044F02AFD0346C3F3F0
:100A00000721C3F307428DF80C308DF80E20DFF874
:100A10003C818DF80D100399444846F035FFD8F815
:100A2000000052F05DFA0446002152F019FB204606
:100A3000012152F0BFFB20463E4952F05DFA602191
:100A400000910423D8F800100122204615F0ECF89C
:100A5000D8F8000056F02EFF374C40F6FF72002108
:100A6000206056F0C3FF00222068042156F056FF94
:100A70002068002156F0E0FF2068012156F098FF21
:100A80002068002156F022FF2068402113F09EFBD1
:100A900058228021206813F073FB206813F0B4FF04
:100AA0000746D8F800004EF063F9002506463A469E
:100AB000394613F0EBFB00950523304621681422DC
:100AC00015F0B2F82A463046184918F0FDF92A46C2
:100AD00030461A4918F0D0FA2B462A4618493046B3
:100AE00013F0E8F8D8F800004EF042F906463A460E
:100AF000394613F0CBFB6FF0040321683046112216
:100B0000009515F091F82A463046084918F0DCF9AE
:100B10002A4630460B4918F0AFFA2B462A46304693
:100B2000094904B0BDE8F04113F0C4B894020020B4
:100B3000B0320D0870B60C08B002002068B60C0880
:100B4000310800086CB60C08D1070008B802002074
:100B50002DE9F041514884B046F0B6FB50494F486A
:100B600046F0A2FE6FF07F4044F072FC0346C3F3F0
:100B70000721C3F307428DF80C308DF80E20DFF803
:100B80003C818DF80D100399444846F07DFED8F85D
:100B9000000052F0A5F90446002152F061FA204607
:100BA000012152F007FB20463E4952F0A5F99E2153
:100BB00000910423D8F800100122204615F034F8E3
:100BC000D8F8000056F076FE374C40F6FF72002150
:100BD000206056F00BFF00222068042156F09EFE94
:100BE0002068002156F028FF2068012156F0E0FE21
:100BF0002068002156F06AFE2068402113F0E6FAD2
:100C000098228021206813F0BBFA206813F0FCFEC4
:100C10000746D8F800004EF0ABF8002506463A46E5
:100C2000394613F033FB0095052330462168142222
:100C300014F0FAFF2A463046184918F045F92A46BA
:100C400030461A4918F018FA2B462A4618493046F9
:100C500013F030F8D8F800004EF08AF806463A460D
:100C6000394613F013FB6FF004032168304611225C
:100C7000009514F0D9FF2A463046084918F024F9A7
:100C80002A4630460B4918F0F7F92B462A463046DB
:100C9000094904B0BDE8F04113F00CB88802002007
:100CA000B0320D0880B60C08AC02002068B60C0803
:100CB000510800086CB60C08F1070008B8020020C3
:100CC00030B5002083B011F00DFA1E4C12212060C7
:100CD00011F094FA0020256844F0BAFB03468DF821
:100CE0000030C3F30721C3F307438DF802308DF8BA
:100CF000011000990022284618F08AF90020256882
:100D000044F0A6FB03468DF80430C3F30721C3F378
:100D100007438DF806308DF805100022284601990A
:100D200018F094F9FFF7A4FDFFF75AFEFFF710FF44
:100D3000206800F001FE206803B0BDE830401AF0E2
:100D4000C5BF00BFB802002008B544F0CDFF04289D
:100D500002D0092800D008BD024B1868BDE8084041
:100D600056F034BF0403002008B544F0BDFF04284A
:100D700002D0092800D008BD024B1868BDE8084021
:100D800056F024BF0803002008B544F0ADFF042846
:100D900002D0092800D008BD024B1868BDE8084001
:100DA00056F014BFFC02002008B544F09DFF042853
:100DB00002D0092800D008BD024B1868BDE80840E1
:100DC00056F004BF0003002008B544F08DFF04284E
:100DD00002D0092800D008BD024B1868BDE80840C1
:100DE00056F0F4BEF402002008B544F07DFF04285C
:100DF00002D0092800D008BD024B1868BDE80840A1
:100E000056F0E4BEF802002008B544F06DFF042857
:100E100002D0092800D008BD024B1868BDE8084080
:100E200056F0D4BEEC02002008B544F05DFF042863
:100E300002D0092800D008BD024B1868BDE8084060
:100E400056F0C4BEF002002008B544F04DFF04285F
:100E500002D0092800D008BD024B1868BDE8084040
:100E600056F078BE0403002008B544F03DFF042886
:100E700002D0092800D008BD024B1868BDE8084020
:100E800056F068BE0803002008B544F02DFF042882
:100E900002D0092800D008BD024B1868BDE8084000
:100EA00056F058BEFC02002008B544F01DFF04288F
:100EB00002D0092800D008BD024B1868BDE80840E0
:100EC00056F048BE0003002008B544F00DFF04288A
:100ED00002D0092800D008BD024B1868BDE80840C0
:100EE00056F038BEF402002008B544F0FDFE042898
:100EF00002D0092800D008BD024B1868BDE80840A0
:100F000056F028BEF802002008B544F0EDFE042893
:100F100002D0092800D008BD024B1868BDE808407F
:100F200056F018BEEC02002008B544F0DDFE04289F
:100F300002D0092800D008BD024B1868BDE808405F
:100F400056F008BEF002002010B582B044F0CCFE8E
:100F50000A2801D002B010BD084C40F21D22084BF7
:100F600008490420009445F0DBFA1AF0FBFF18F062
:100F7000D9FB02B0BDE8104001F04CBFACB60C0884
:100F80000CEB0C0890B60C0810B582B044F0ACFE27
:100F90000A2801D002B010BD084C40F21122084BC3
:100FA00008490420009445F0BBFA1AF0DBFF18F062
:100FB000B9FB02B0BDE8104001F0CCBCACB60C08E7
:100FC000F8EA0C0890B60C0810B582B044F08CFE1C
:100FD0000A2801D002B010BD084C40F20522084B8F
:100FE00008490420009445F09BFA1AF0BBFF18F062
:100FF00099FB02B0BDE81040FFF762BEACB60C082A
:10100000E4EA0C0890B60C0810B582B044F06CFE0F
:101010000A2801D002B010BD084C40F2F912084B6A
:1010200008490420009445F07BFA1AF09BFF18F061
:1010300079FB02B0BDE8104001F0C8BAACB60C08AC
:10104000D0EA0C0890B60C082DE9F041814884B034
:1010500046F03AF980497F4846F026FC6FF07F4021
:1010600044F0F6F90346C3F30721C3F307427B4E6E
:101070008DF80C308DF80E208DF80D100399754801
:1010800046F002FC306851F02BFF0446002151F07D
:10109000E7FF2046012152F08DF82046704951F0BB
:1010A0002BFF0A210091002331680222204614F010
:1010B000BBFD306856F0FEFB6A4D482200212860D7
:1010C00056F094FC00222868032156F027FC28687B
:1010D000002156F0B1FC2868012156F069FC28680F
:1010E000002156F0F3FB2868402113F06FF8182216
:1010F0005021286813F044F8286813F085FC8046D6
:1011000030684DF035FE002407464246414613F054
:10111000BDF80094052338462968142214F084FD94
:10112000224638464B4917F0CFFE224638464E49F4
:1011300017F0A2FF234622464C49384612F0BAFD6A
:1011400030684DF015FE07464246414613F09EF8C2
:101150006FF00403296838461122009414F064FDEE
:10116000224638463B4917F0AFFE224638464049F2
:1011700017F082FF234622463E49384612F09AFD78
:10118000306856F097FB3C4D21464822286056F0C7
:101190002DFC22462868032156F0C0FB2146286812
:1011A00056F04AFC2868012156F002FC21462868C6
:1011B00056F08CFB2868402113F008F818224FF4F1
:1011C000AF71286812F0DCFF286813F01DFC804620
:1011D00030684DF0CDFD07464246414613F056F8C3
:1011E0000094052338462968142214F01DFD224678
:1011F0003846184917F068FE224638461A4917F053
:101200003BFF234622461D49384612F053FD306805
:101210004DF0AEFD06464246414613F037F86FF0FA
:101220000403296830461122009414F0FDFC224684
:101230003046084917F048FE224630460C4917F060
:101240001BFF2346224630460D4904B0BDE8F0415D
:1012500012F030BDE0020020B0320D080C03002077
:10126000B4B60C080803002068B60C08690E000824
:101270006CB60C08690D000804030020490E000834
:10128000490D00082DE9F041814884B046F01CF872
:1012900080497F4846F008FB6FF07F4044F0D8F863
:1012A0000346C3F30721C3F307427B4E8DF80C308E
:1012B0008DF80E208DF80D100399754846F0E4FA6C
:1012C000306851F00DFE0446002151F0C9FE204661
:1012D000012151F06FFF2046704951F00DFE4C2264
:1012E0000223009231681A46204614F09DFC3068B3
:1012F00056F0E0FA6A4D48220021286056F076FB4D
:1013000000222868032156F009FB2868002156F0C6
:1013100093FB2868012156F04BFB2868002156F00A
:10132000D5FA2868402112F051FF58225021286830
:1013300012F026FF286813F067FB804630684DF0F6
:1013400017FD002407464246414612F09FFF0094D5
:10135000052338462968142214F066FC22463846D4
:101360004B4917F0B1FD224638464E4917F084FE2E
:10137000234622464C49384612F09CFC30684DF01A
:10138000F7FC07464246414612F080FF6FF0040327
:10139000296838461122009414F046FC224638464B
:1013A0003B4917F091FD22463846404917F064FE4C
:1013B000234622463E49384612F07CFC306856F0FF
:1013C00079FA3C4D21464822286056F00FFB224610
:1013D0002868032156F0A2FA2146286856F02CFB13
:1013E0002868012156F0E4FA2146286856F06EFA82
:1013F0002868402112F0EAFE58224FF4AF712868A5
:1014000012F0BEFE286813F0FFFA804630684DF0F7
:10141000AFFC07464246414612F038FF00940523D0
:1014200038462968142214F0FFFB22463846184932
:1014300017F04AFD224638461A4917F01DFE23468A
:1014400022461D49384612F035FC30684DF090FCBC
:1014500006464246414612F019FF6FF00403296820
:1014600030461122009414F0DFFB22463046084932
:1014700017F02AFD224630460C4917F0FDFD2346A1
:10148000224630460D4904B0BDE8F04112F012BCCE
:10149000D4020020B0320D080C030020C8B60C089E
:1014A0000003002068B60C08A90E00086CB60C08F2
:1014B000A90D0008FC020020890E0008890D000813
:1014C0002DE9F041814884B045F0FEFE80497F4817
:1014D00046F0EAF96FF07F4043F0BAFF0346C3F3EA
:1014E0000721C3F307427B4E8DF80C308DF80E2098
:1014F0008DF80D100399754846F0C6F9306851F023
:10150000EFFC0446002151F0ABFD2046012151F0D3
:1015100051FE2046704951F0EFFC962100910423C2
:1015200031680222204614F07FFB306856F0C2F981
:101530006A4D48220021286056F058FA0022286897
:10154000032156F0EBF92868002156F075FA286857
:10155000012156F02DFA2868002156F0B7F92868C5
:10156000402112F033FE98225021286812F008FE24
:10157000286813F049FA804630684DF0F9FB0024E2
:1015800007464246414612F081FE00940523384644
:101590002968142214F048FB224638464B4917F0BC
:1015A00093FC224638464E4917F066FD23462246F4
:1015B0004C49384612F07EFB30684DF0D9FB0746A7
:1015C0004246414612F062FE6FF004032968384635
:1015D0001122009414F028FB224638463B4917F0AC
:1015E00073FC22463846404917F046FD2346224602
:1015F0003E49384612F05EFB306856F05BF93C4DD0
:1016000021464822286056F0F1F922462868032135
:1016100056F084F92146286856F00EFA2868012110
:1016200056F0C6F92146286856F050F9286840213E
:1016300012F0CCFD98224FF4AF71286812F0A0FD93
:10164000286813F0E1F9804630684DF091FB0746B9
:101650004246414612F01AFE009405233846296896
:10166000142214F0E1FA22463846184917F02CFCEF
:10167000224638461A4917F0FFFC234622461D49E8
:10168000384612F017FB30684DF072FB06464246B2
:10169000414612F0FBFD6FF0040329683046112229
:1016A000009414F0C1FA22463046084917F00CFCA9
:1016B000224630460C4917F0DFFC234622463046CE
:1016C0000D4904B0BDE8F04112F0F4BAC8020020A0
:1016D000B0320D080C030020DCB60C08F802002024
:1016E00068B60C08E90E00086CB60C08E90D000895
:1016F000F4020020C90E0008C90D00082DE9F041D0
:10170000814884B045F0E0FD80497F4846F0CCF840
:101710006FF07F4043F09CFE0346C3F30721C3F301
:1017200007427B4E8DF80C308DF80E208DF80D1091
:101730000399754846F0A8F8306851F0D1FB04468B
:10174000002151F08DFC2046012151F033FD20464F
:10175000704951F0D1FBD221009107233168022258
:10176000204614F061FA306856F0A4F86A4D482219
:101770000021286056F03AF900222868032156F02B
:10178000CDF82868002156F057F92868012156F055
:101790000FF92868002156F099F82868402112F0C6
:1017A00015FDD8225021286812F0EAFC286813F0B1
:1017B0002BF9804630684DF0DBFA0024074642469C
:1017C000414612F063FD009405233846296814222F
:1017D00014F02AFA224638464B4917F075FB224688
:1017E00038464E4917F048FC234622464C493846B5
:1017F00012F060FA30684DF0BBFA074642464146A7
:1018000012F044FD6FF00403296838461122009459
:1018100014F00AFA224638463B4917F055FB224697
:101820003846404917F028FC234622463E493846B0
:1018300012F040FA306856F03DF83C4D21464822FF
:10184000286056F0D3F822462868032156F066F83F
:101850002146286856F0F0F82868012156F0A8F8CB
:101860002146286856F032F82868402112F0AEFC74
:10187000D8224FF4AF71286812F082FC286813F068
:10188000C3F8804630684DF073FA07464246414639
:1018900012F0FCFC0094052338462968142214F049
:1018A000C3F922463846184917F00EFB224638463F
:1018B0001A4917F0E1FB234622461D49384612F02B
:1018C000F9F930684DF054FA06464246414612F0A6
:1018D000DDFC6FF00403296830461122009414F0F7
:1018E000A3F922463046084917F0EEFA2246304660
:1018F0000C4917F0C1FB2346224630460D4904B07F
:10190000BDE8F04112F0D6B9BC020020B0320D089B
:101910000C030020F0B60C08F002002068B60C089A
:10192000290F00086CB60C08290E0008EC020020F4
:10193000090F0008090E000870B582B004464DF08A
:1019400017FA00236FF02F0506461A46404912F099
:10195000B1F914230D2221463046009514F064F9A4
:10196000304651F0BDFA06463A4951F0C5FA3046C4
:1019700014F056FD20464DF0FBF9002306461A46AA
:10198000354912F097F982230D2221463046009501
:1019900014F04AF9304651F0A3FA06462F4951F0A7
:1019A000ABFA304614F03CFD20464DF0E1F900233F
:1019B00006461A462A4912F07DF900230E222146D6
:1019C0003046009514F030F9304651F089FA064659
:1019D000244951F091FA304614F022FD20464DF092
:1019E000C7F9002306461A461F4912F063F96FF043
:1019F0008B030F2221463046009514F015F930462E
:101A000051F06EFA0646194951F076FA304614F054
:101A100007FD20464DF0ACF9002306461A4614494E
:101A200012F048F96FF03B030F2221463046009533
:101A300014F0FAF8304651F053FA04460D4951F0CB
:101A40005BFA204602B0BDE8704014F0E9BC00BF6C
:101A5000051B000808B70C080910000810B70C088F
:101A6000C90F000818B70C08890F00081CB70C082C
:101A7000490F000820B70C0830B5002083B010F0E3
:101A800031FB1F4C1221206010F0B8FB00202568AC
:101A900043F0DEFC03468DF80030C3F30721C3F3A7
:101AA00007438DF802308DF8011000990022284676
:101AB00017F0AEFA0020256843F0CAFC03468DF803
:101AC0000430C3F30721C3F307438DF806308DF8C4
:101AD000051000222846019917F0B8FAFFF7B4FA6A
:101AE000FFF7D0FBFFF70AFEFFF7EAFC2068FFF7DD
:101AF00023FF206803B0BDE830401AF0E7B800BF0C
:101B00000C03002010B582B044F0EEF80A2801D092
:101B100002B010BD084C40F2ED12084B08490420F9
:101B2000009444F0FDFC1AF01DFA17F0FBFD02B022
:101B3000BDE81040FFF7A0BFACB60C08BCEA0C082B
:101B400090B60C0838B5054644F0CEF80446284651
:101B500044F0C8F8232C00D038BD0421BDE838403B
:101B600010F008BF38B5054644F0BEF804462846D4
:101B700044F0B8F8232C00D038BD0421BDE838402B
:101B800010F0F8BE38B5054644F0AEF804462846D5
:101B900044F0A8F8232C00D038BD0421BDE838401B
:101BA00010F0E8BE38B5054644F09EF804462846D5
:101BB00044F098F8232C00D038BD0421BDE838400B
:101BC00010F0D8BE38B5054644F08EF804462846D5
:101BD00044F088F8232C00D038BD0421BDE83840FB
:101BE00010F0C8BE38B5054644F07EF804462846D5
:101BF00044F078F8232C00D038BD0421BDE83840EB
:101C000010F0B8BE38B5054644F06EF804462846D4
:101C100044F068F8232C00D038BD0421BDE83840DA
:101C200010F0A8BE38B5054644F05EF804462846D4
:101C300044F058F8232C00D038BD0421BDE83840CA
:101C400010F098BE38B5054644F04EF804462846D4
:101C500044F048F8232C00D038BD0421BDE83840BA
:101C600010F088BEF0B5354885B045F02DFB6FF01B
:101C70007F4043F0EDFB0346C3F30721C3F3074264
:101C80008DF80C302E4D8DF80E208DF80D10039927
:101C90002A4845F0F9FD286851F022F9294C002224
:101CA0002649206017F010F92068274951F024F9DF
:101CB00002220121206812F063FA286856F024FB02
:101CC0000023224C1A462249206011F0F3FF2068BD
:101CD000082110F02DFA2068042110F025FB1E22A7
:101CE0003021206812F04CFA286851F0F9F80646C5
:101CF00000270022114917F0E7F83046154951F046
:101D0000FBF80097052321681422304613F08CFF5E
:101D1000286851F0E5F805463A46084917F0D4F826
:101D200028460D4951F0E8F821686FF004031122AC
:101D30002846009713F078FF05B0F0BD7C03002023
:101D4000B0030020A803002028B70C08AC03002033
:101D5000451B000834B70C083CB70C08F0B53548F3
:101D600085B045F0B1FA6FF07F4043F071FB034658
:101D7000C3F30721C3F307428DF80C302E4D8DF8C5
:101D80000E208DF80D1003992A4845F07DFD286836
:101D900051F0A6F8294C00222649206017F094F84B
:101DA0002068274951F0A8F846220121206812F046
:101DB000E7F9286856F0A8FA0023224C1A4622496F
:101DC000206011F077FF2068082110F0B1F9206839
:101DD000042110F0A9FA5E223021206812F0D0F917
:101DE000286851F07DF8064600270022114917F0B7
:101DF0006BF83046154951F07FF8009705232168AC
:101E00001422304613F010FF286851F069F8054697
:101E10003A46084917F058F828460D4951F06CF831
:101E200021686FF0040311222846009713F0FCFE8E
:101E300005B0F0BD70030020B0030020A80300200F
:101E400040B70C08A4030020651B000834B70C0839
:101E50003CB70C08F0B5354885B045F035FA6FF061
:101E60007F4043F0F5FA0346C3F30721C3F307426B
:101E70008DF80C302E4D8DF80E208DF80D10039935
:101E80002A4845F001FD286851F02AF8294C002223
:101E90002649206017F018F82068274951F02CF8DF
:101EA00086220121206812F06BF9286856F02CFA7E
:101EB0000023224C1A462249206011F0FBFE2068C4
:101EC000082110F035F92068042110F02DFA9E2227
:101ED0003021206812F054F9286851F001F80646C4
:101EE00000270022114916F0EFFF3046154951F046
:101EF00003F80097052321681422304613F094FE5E
:101F0000286850F0EDFF05463A46084916F0DCFF18
:101F100028460D4950F0F0FF21686FF004031122AC
:101F20002846009713F080FE05B0F0BD6403002042
:101F3000B0030020A803002048B70C08A00300202D
:101F4000851B000834B70C083CB70C08F0B53548C1
:101F500085B045F0B9F96FF07F4043F079FA034658
:101F6000C3F30721C3F307428DF80C302E4D8DF8D3
:101F70000E208DF80D1003992A4845F085FC28683D
:101F800050F0AEFF294C00222649206016F09CFF3D
:101F90002068274950F0B0FFC9220121206812F0C3
:101FA000EFF8286856F0B0F90023224C1A4622496F
:101FB000206011F07FFE2068082110F0B9F8206839
:101FC000042110F0B1F9DE223021206812F0D8F897
:101FD000286850F085FF064600270022114916F0B8
:101FE00073FF3046154950F087FF0097052321689D
:101FF0001422304613F018FE286850F071FF054691
:102000003A46084916F060FF28460D4950F074FF23
:1020100021686FF0040311222846009713F004FE94
:1020200005B0F0BD58030020B0030020A803002035
:1020300050B70C089C030020A51B000834B70C08FF
:102040003CB70C08F0B5364885B045F03DF96FF067
:102050007F4043F0FDF90346C3F30721C3F3074272
:102060008DF80C302F4D8DF80E208DF80D10039942
:102070002B4845F009FC286850F032FF2A4C00221A
:102080002749206016F020FF2068284950F034FFCF
:1020900002224FF4A571206812F072F8286856F0F9
:1020A00033F90023224C1A462249206011F002FE27
:1020B0002068082110F03CF82068042110F034F961
:1020C0001E224FF4B971206812F05AF8286850F0B7
:1020D00007FF064600270022114916F0F5FE30469C
:1020E000154950F009FF0097052321681422304656
:1020F00013F09AFD286850F0F3FE05463A46084969
:1021000016F0E2FE28460D4950F0F6FE21686FF009
:10211000040311222846009713F086FD05B0F0BD98
:102120004C030020B0030020A80300205CB70C087B
:1021300098030020C51B000834B70C083CB70C08F6
:10214000F0B5364885B045F0BFF86FF07F4043F0FA
:102150007FF90346C3F30721C3F307428DF80C3020
:102160002F4D8DF80E208DF80D1003992B4845F05A
:102170008BFB286850F0B4FE2A4C002227492060CF
:1021800016F0A2FE2068284950F0B6FE46224FF411
:10219000A571206811F0F4FF286856F0B5F8002307
:1021A000224C1A462249206011F084FD2068082143
:1021B0000FF0BEFF2068042110F0B6F85E224FF445
:1021C000B971206811F0DCFF286850F089FE0646DE
:1021D00000270022114916F077FE3046154950F0CD
:1021E0008BFE0097052321681422304613F01CFD56
:1021F000286850F075FE05463A46084916F064FE18
:1022000028460D4950F078FE21686FF00403112232
:102210002846009713F008FD05B0F0BD40030020EC
:10222000B0030020A80300206CB70C089403002022
:10223000E51B000834B70C083CB70C08F0B536486D
:1022400085B045F041F86FF07F4043F001F9034657
:10225000C3F30721C3F307428DF80C302F4D8DF8DF
:102260000E208DF80D1003992B4845F00DFB2868C2
:1022700050F036FE2A4C00222749206016F024FE3A
:102280002068284950F038FE86224FF4A571206856
:1022900011F076FF286856F037F80023224C1A46D2
:1022A0002249206011F006FD206808210FF040FF50
:1022B0002068042110F038F89E224FF4B97120688C
:1022C00011F05EFF286850F00BFE06460027002242
:1022D000114916F0F9FD3046154950F00DFE0097F2
:1022E000052321681422304613F09EFC286850F024
:1022F000F7FD05463A46084916F0E6FD28460D4921
:1023000050F0FAFD21686FF004031122284600976F
:1023100013F08AFC05B0F0BD34030020B0030020A8
:10232000A803002074B70C0890030020051C0008C7
:1023300034B70C083CB70C08F0B5364885B044F00B
:10234000C3FF6FF07F4043F083F80346C3F30721D8
:10235000C3F307428DF80C302F4D8DF80E208DF809
:102360000D1003992B4845F08FFA286850F0B8FDFE
:102370002A4C00222749206016F0A6FD2068284933
:1023800050F0BAFDC9224FF4A571206811F0F8FE93
:10239000286855F0B9FF0023224C1A4622492060D4
:1023A00011F088FC206808210FF0C2FE206804218B
:1023B0000FF0BAFFDE224FF4B971206811F0E0FE91
:1023C000286850F08DFD064600270022114916F0BE
:1023D0007BFD3046154950F08FFD0097052321689D
:1023E0001422304613F020FC286850F079FD054691
:1023F0003A46084916F068FD28460D4950F07CFD24
:1024000021686FF0040311222846009713F00CFC9A
:1024100005B0F0BD28030020B0030020A803002071
:102420007CB70C088C030020251C000834B70C086E
:102430003CB70C08F0B5354885B044F045FF6FF067
:102440007F4043F005F80346C3F30721C3F3074277
:102450008DF80C302E4D8DF80E208DF80D1003994F
:102460002A4845F011FA286850F03AFD294C00221C
:102470002649206016F028FD2068274950F03CFDD1
:102480000222B921206811F07BFE286855F03CFF3C
:102490000023224C1A462249206011F00BFC2068D0
:1024A00008210FF045FE206804210FF03DFF1E2299
:1024B000D521206811F064FE286850F011FD064611
:1024C00000270022114916F0FFFC3046154950F054
:1024D00013FD0097052321681422304613F0A4FB56
:1024E000286850F0FDFC05463A46084916F0ECFC19
:1024F00028460D4950F000FD21686FF004031122B9
:102500002846009713F090FB05B0F0BD1C03002097
:10251000B0030020A803002088B70C08880300201F
:10252000451C000894B70C089CB70C0830B523482C
:1025300083B044F0C9FE0221204845F06DF9122015
:1025400044F094FA0346C3F30721C3F307428DF81E
:1025500004308DF806208DF805100199184D1748A4
:1025600045F066F90121154845F05CF9286851F0FD
:10257000DBFC04460222134951F0E2FC2046002213
:102580000E4916F0A1FC04223221204611F0F8FD7C
:10259000286851F0C9FC044602220B4951F0D0FCD6
:1025A00020460022054916F08FFC04229621204681
:1025B00003B0BDE8304011F0E3BD00BF10030020C0
:1025C000B0030020140000200400002030B50020DB
:1025D00083B00FF087FD254C122120600FF00EFE16
:1025E0000020256842F034FF03468DF80030C3F325
:1025F0000721C3F307438DF802308DF801100099CD
:102600000022284616F004FD0020256842F020FF35
:1026100003468DF80430C3F30721C3F307438DF855
:1026200006308DF8051000222846019916F00EFD9F
:10263000FFF718FBFFF792FBFFF70CFCFFF786FC98
:10264000FFF774FFFFF7FEFCFFF77AFDFFF7F6FDDB
:10265000FFF772FEFFF7EEFE2068FFF76DF92068C6
:1026600003B0BDE8304019F031BB00BFB00300201B
:1026700010B582B043F038FB0A2803D023280BD0D2
:1026800002B010BD6A22064C0420064B0649009495
:1026900043F046FF02B010BD6D22044CF4E700BFCA
:1026A000ACB60C0874EB0C08A0B70C08B8B70C0853
:1026B00010B582B043F018FB0A2803D023280BD0B2
:1026C00002B010BD5922064C0420064B0649009466
:1026D00043F026FF02B010BD5C22044CF4E700BFBB
:1026E000ACB60C0860EB0C08A0B70C08C8B70C0817
:1026F00010B582B043F0F8FA0A2803D023280BD093
:1027000002B010BD4822064C0420064B0649009436
:1027100043F006FF02B010BD4B22044CF4E700BFAB
:10272000ACB60C084CEB0C08A0B70C08D8B70C08DA
:1027300010B582B043F0D8FA0A2803D023280BD072
:1027400002B010BD3722064C0420064B0649009407
:1027500043F0E6FE02B010BD3A22044CF4E700BF9D
:10276000ACB60C0838EB0C08A0B70C08E8B70C089E
:1027700010B582B043F0B8FA0A2801D002B010BDFB
:10278000044CA9220420044B0449009443F0C8FEE1
:1027900002B010BDF8B70C0820EB0C08A0B70C086D
:1027A00038B54A4D4A4C28684CF0E2FA00234949B2
:1027B0001A46206011F07EFA206808210FF0B8FC5C
:1027C00020686FF0404111F031FD6FF013036FF09E
:1027D000B3020921206811F0F3FF206850F080FB5C
:1027E00004463D4950F088FB204613F019FE286846
:1027F0004CF0BEFA0023394C1A463949206011F0DA
:1028000059FA206808210FF093FC20686FF04041CE
:1028100011F00CFD6FF013036FF03B0209212068EB
:1028200011F0CEFF206850F05BFB04462D4950F0BC
:1028300063FB204613F0F4FD28684CF099FA00235E
:10284000294C1A462949206011F034FA20680821E1
:102850000FF06EFC20686FF0404111F0E7FC6FF064
:1028600013033C220921206811F0AAFF206850F0D0
:1028700037FB04461E4950F03FFB204613F0D0FDC5
:1028800028684CF075FA00231A4C1A461A49206041
:1028900011F010FA206808210FF04AFC20686FF050
:1028A000404111F0C3FC6FF01303B42209212068EA
:1028B00011F086FF206850F013FB04460F4950F0DA
:1028C0001BFB2046BDE8384013F0AABDD40300200E
:1028D000CC0300203127000808B80C08D0030020E2
:1028E000F126000810B80C08C8030020B126000823
:1028F00018B80C08C40300207126000820B80C0882
:10290000104B10B518684CF033FA00230E4C1A46E1
:102910000E49206011F0CEF920686FF0404111F0AF
:1029200085FC01222068114611F02AFC206850F035
:10293000D7FA0446064950F0DFFA2046BDE81040B9
:1029400013F06EBDD4030020C003002071270008DF
:1029500028B80C0830B5002087B00FF0C3FB384C06
:10296000122120600FF04AFC0020256842F070FD23
:1029700003468DF80C30C3F30721C3F307438DF8EA
:102980000E308DF80D1003990022284616F040FBFA
:102990000020256842F05CFD03468DF81030C3F33B
:1029A0000721C3F307438DF812308DF81110002270
:1029B0000499284616F04AFB224844F085FC224937
:1029C000204844F071FF6FF07F4042F041FD034624
:1029D000C3F307228DF81430C3F307438DF8163084
:1029E0008DF815200599174844F04EFF206850F0E7
:1029F00077FA0546002150F033FB2846012150F0BC
:102A0000D9FB2846114950F077FA284600220D4993
:102A100016F05AFA1E21009100230B222846216845
:102A200013F002F9FFF76CFFFFF7BAFE2068FEF71C
:102A300083FF206807B0BDE8304019F047B900BFF8
:102A4000D4030020B4030020B0320D0830B80C08C5
:102A500008B543F049F9042802D0092800D008BD80
:102A6000024B1868BDE8084055F0B0B8FC030020E0
:102A700010B543F039F9042802D0092800D010BD60
:102A80000A4C206855F0A2F8206855F013F8BDE80C
:102A900010400146064A074B82FB012CCA17C2EBC5
:102AA0006C1205481A6000F029BE00BF0004002027
:102AB0001F85EB512400002040B80C0810B543F0EE
:102AC00013F9042802D0092800D010BD0A4C206850
:102AD00055F040F8206854F0EDFFBDE81040014685
:102AE000064A074B82FB012CCA17C2EB6C12054841
:102AF0001A6000F003BE00BF000400201F85EB51E8
:102B00002400002040B80C0808B543F0EDF8042874
:102B100002D0092800D008BD024B1868BDE8084063
:102B200055F018B8FC0300202DE9F041524884B05C
:102B300044F0CAFB5149504844F0B6FE6FF07F4064
:102B400042F086FC0346C3F30721C3F307428DF826
:102B50000C308DF80E20DFF844818DF80D100399AC
:102B6000454844F091FED8F8000050F0B9F9044609
:102B7000002150F075FA2046012150F01BFB204641
:102B80003F4950F0B9F9182100910223D8F80010FC
:102B90000122204613F048F8D8F8000054F08AFECD
:102BA000384C42F63A224FF4C851206054F01EFFD0
:102BB00003222068052154F0B1FE2068002154F062
:102BC0003BFF20680A2154F0F3FE2F4B2068196860
:102BD00054F07CFE2068502111F0F8FA3022502188
:102BE000206811F0CDFA206811F00EFF0746D8F8E2
:102BF00000004CF0BDF8002506463A46394611F073
:102C000045FB0095052330462168142213F00CF88B
:102C10002A463046184916F057F92A4630461B49CD
:102C200016F02AFA2B462A461949304611F042F886
:102C3000D8F800004CF09CF806463A46394611F0A8
:102C400025FB6FF00403216830461122009512F035
:102C5000EBFF2A463046084916F036F92A46304638
:102C60000C4916F009FA2B462A4630460A4904B0A8
:102C7000BDE8F04111F01EB8E4030020B0320D08A9
:102C800054B80C08000400202400002068B60C088A
:102C9000BD2A00086CB60C08712A00080404002044
:102CA0002DE9F041524884B044F00EFB51495048A0
:102CB00044F0FAFD6FF07F4042F0CAFB0346C3F3D5
:102CC0000721C3F307428DF80C308DF80E20DFF892
:102CD00040818DF80D100399454844F0D5FDD8F892
:102CE000000050F0FDF80446002150F0B9F92046EC
:102CF000012150F05FFA20463F4950F0FDF86C2169
:102D000000910223D8F800100122204612F08CFF17
:102D1000D8F8000054F0CEFD384C40F6B8324FF4ED
:102D20007A71206054F062FE03222068052154F07D
:102D3000F5FD2068002154F07FFE20680A2154F040
:102D400037FE20684FF47A7154F0C0FD206850219E
:102D500011F03CFA84225021206811F011FA206809
:102D600011F052FE0746D8F800004CF001F800259B
:102D700006463A46394611F089FA00950523304651
:102D80002168142212F050FF2A463046184916F0E6
:102D90009BF82A4630461A4916F06EF92B462A4609
:102DA0001849304610F086FFD8F800004BF0E0FFDD
:102DB00006463A46394611F069FA6FF00403216875
:102DC00030461122009512F02FFF2A46304608495E
:102DD00016F07AF82A4630460B4916F04DF92B4684
:102DE0002A463046094904B0BDE8F04110F062BF00
:102DF000D8030020B0320D0870B80C08FC03002086
:102E000068B60C08092B00086CB60C08512A00089B
:102E10000404002030B5002087B00FF063F9374C70
:102E2000122120600FF0EAF90020256842F010FB23
:102E300003468DF80C30C3F30721C3F307438DF825
:102E40000E308DF80D1003990022284616F0E0F898
:102E50000020256842F0FCFA03468DF81030C3F3D9
:102E60000721C3F307438DF812308DF811100022AB
:102E70000499284616F0EAF8214844F025FA214939
:102E80001F4844F011FD6FF07F4042F0E1FA034625
:102E9000C3F307228DF81430C3F307438DF81630BF
:102EA0008DF815200599164844F0EEFC206850F086
:102EB00017F80546002150F0D3F82846012150F0BC
:102EC00079F92846104950F017F8284600220C4995
:102ED00015F0FAFF0222009200232846216812F022
:102EE000A3FEFFF721FEFFF7DBFE2068FEF724FDBF
:102EF000206807B0BDE8304018F0E8BE04040020A8
:102F0000F0030020B0320D0888B80C08034670B5F5
:102F10000E460E4914465BBA02225D200B8000F07B
:102F200073F92546044608B1204670BD2A465D2047
:102F3000074900F083F904460028F5D12A463046B7
:102F4000034957F0F7FE204670BD00BF6C06002015
:102F5000A405002030B585B004AB03E9070000F0FC
:102F60003BF900220221444802F096FA00224FF475
:102F70008071424802F090FA0A2000F043F90022E2
:102F800002213D4802F088FA022000F03BF90122BC
:102F90000221394802F080FA0A2000F033F900F0EB
:102FA00009F9642000F02EF944F281033449022229
:102FB0005D200B8000F028F908B105B030BD314C20
:102FC000042221465D2000F039F90028F5D121685E
:102FD0002D4B0222196048F244102C49FFF796FF4E
:102FE0000028EAD12A4B03F1B80113F8012F10444D
:102FF0009942C0B2F9D14FF48F432649404281F83B
:10300000B8002548BA22851E20F8023C57F092FEEF
:10301000BC225D20294600F0F7F80028CDD14FF4FE
:10302000814C102303225D202946A5F800C0AB7017
:1030300000F0EAF80028C0D1C8200CF09FF88123E6
:10304000022229465D202B8000F0DEF80028B4D152
:1030500001225D200B4900F0F1F80028ADD1BA2221
:1030600048F247000D4B24780D491C7005B0BDE8AF
:103070003040FFF74BBF00BF00080242000402428D
:103080006C060020A405002098050020D004002034
:103090002F000020300000206E06002028000020B5
:1030A000080400200B4670B58AB02822002105468E
:1030B00068461C4657F0B1FD44F681632D49022253
:1030C0005D200B8000F0A0F810B100200AB070BDA8
:1030D000294E012231465D2000F0B0F80028F4D1DD
:1030E00096F900203378002AEFDA03F00F032370FB
:1030F000013B042B0FD9002344F681651D490322AF
:103100005D200D808B7000F07FF82078003818BFAC
:1031100001200AB070BD45F28103164902225D20EC
:103120000B8000F071F80028E5D122786946D200C2
:103130005D2002F0F80200F081F80028DBD123784E
:10314000002BD8D00246A81CD300DBB26B445E78BB
:10315000197841EA062125F82210D9789B7843EAAC
:10316000012320F8223021780132D3B29942EBD8E2
:10317000C1E700BF6C060020A4050020002310B5A5
:1031800086B00C4601A80DF10301CDE90133CDE96C
:1031900003330593FFF786FF38B1BDF80630BDF85D
:1031A0000420C3F5F073C4E9093284F8200006B0A6
:1031B00010BD00BF00234FF4807200B587B00548F2
:1031C00001A9CDE90123CDE90333059302F09EF86F
:1031D00007B000BD0004024200239FED077B00B54D
:1031E00087B0694606488DED007BCDE90233049334
:1031F00002F08CF807B000BD0001000001000000E3
:103200000004024201F05CBC844610B54FF0FF346C
:1032100082B04FEA4C0C134607480A4600940CF063
:10322000FE0102F027FB28B10238C0B201288CBF92
:103230000120022002B010BD08780020844610B59D
:103240004FF0FF3482B04FEA4C0C134607480A4651
:1032500000940CF0FE0102F0C9FB28B10238C0B2A4
:1032600001288CBF0120022002B010BD0878002088
:1032700010B5002282B004464FF480510C4802F091
:103280000BF9002240210B4802F006F901230DF151
:1032900007011A4608488DF8074008F0CBF90122CB
:1032A0004FF48051024802B0BDE8104002F0F4B87B
:1032B0000004024200080242607A002010B5012298
:1032C00082B0044640210D4802F0E6F800224FF497
:1032D00080510B4802F0E0F801230DF107011A4676
:1032E00008488DF8074008F0A5F901224FF48051F5
:1032F000034802B0BDE8104002F0CEB80008024218
:1033000000040242607A0020F8B5074616460D46D2
:103310001C462A20FFF7ACFF380AFFF7CFFFF8B2B0
:10332000FFF7CCFF300AFFF7C9FFF0B2FFF7C6FF87
:103330002B20FFF79DFF280AFFF7C0FFE8B2FFF739
:10334000BDFF200AFFF7BAFFE0B2FFF7B7FFBDE805
:10335000F8402C20FFF78CBF012208B511460C481D
:1033600002F09AF8142001F0ABFB0022012108487A
:1033700002F092F8642001F0A3FB012204481146F8
:1033800002F08AF8BDE80840642001F099BB00BF54
:103390000008024208B5FFF7DFFF0120FFF768FFD2
:1033A000642001F08DFB2820FFF762FFF720FFF774
:1033B0005FFFA920FFF782FF5120FFF77FFF2C203E
:1033C000FFF77CFF8220FFF779FFC020FFF750FF57
:1033D0001120FFF773FF0920FFF770FFC120FFF7EF
:1033E00047FF4120FFF76AFFC520FFF741FF00209C
:1033F000FFF764FF0A20FFF761FF8020FFF75EFF01
:10340000B120FFF735FFB020FFF758FF1120FFF77D
:1034100055FFB420FFF72CFF0220FFF74FFFB62027
:10342000FFF726FF0220FFF749FF4220FFF746FF84
:10343000B720FFF71DFFC620FFF740FFBE20FFF7B4
:1034400017FF0020FFF73AFF0420FFF737FFE920BE
:10345000FFF70EFF0020FFF731FF3620FFF708FFD0
:10346000E020FFF72BFF3A20FFF702FF6620FFF76F
:1034700025FFE020FFF7FCFE0020FFF71FFF0720DD
:10348000FFF71CFF0F20FFF719FF0D20FFF716FFB6
:103490001B20FFF713FF0A20FFF710FF3C20FFF768
:1034A0000DFF7820FFF70AFF4A20FFF707FF0720EC
:1034B000FFF704FF0E20FFF701FF0920FFF7FEFED4
:1034C0001B20FFF7FBFE1E20FFF7F8FE0F20FFF783
:1034D000F5FEE120FFF7CCFE0020FFF7EFFE2220F3
:1034E000FFF7ECFE2420FFF7E9FE0620FFF7E6FEDB
:1034F0001220FFF7E3FE0720FFF7E0FE3620FFF77C
:10350000DDFE4720FFF7DAFE4720FFF7D7FE062053
:10351000FFF7D4FE0A20FFF7D1FE0720FFF7CEFE0B
:103520003020FFF7CBFE3720FFF7C8FE0F20FFF754
:10353000C5FE2120FFF79CFE1120FFF799FE7820A1
:1035400001F0BEFABDE808402920FFF791BE00BF98
:103550002DE9F04701EB4106B6F5167F054600AFB1
:103560003BD20C46012240212F4801F095FF00225A
:103570004FF480512D4801F08FFF2B0AE908EA0033
:1035800003F0F805E31D23F00703ADEB030DE84658
:1035900001F0FC01D2B2002C44D04346002003309D
:1035A000A0421D7059709A7003F10303F7D3B6FB64
:1035B000F4F9A64204FB196A28D20A2341461FFAED
:1035C0008AF21B4808F036F801224FF48051174860
:1035D00001F062FFBD46BDE8F0870122402112489C
:1035E00001F05AFF00224FF48051104801F054FFBF
:1035F000E908EA002B0AADF5167D4FF41674E8468B
:1036000003F0F80501F0FC01D2B2C6E70025A4B230
:103610000A23224641460648013508F00BF8A94521
:10362000F6D8CAE7FFDE00BF0008024200040242EB
:10363000607A0020002170B504460A4E0A4D328897
:103640002B8808469BB292B2FFF75EFE338829882A
:103650009BB289B22046BDE8704003FB01F1FFF741
:1036600077BF00BFEA000020EC000020F8B5064656
:1036700008460D46174641F0C3FC0446284641F073
:10368000C5FC00FB04F4AB892A89A9882888FFF7C8
:103690003BFE012240210E4801F0FEFE04EB4404F3
:1036A00000224FF480510B4801F0F6FE4FF0FF333B
:1036B0003946A2B2084807F0BDFF064801224FF480
:1036C000805101F0E9FE3046BDE8F84018F018B826
:1036D0000008024200040242607A002010B504464D
:1036E000012205484FF4805101F0D6FE2046BDE886
:1036F000104018F005B800BF000402420FB482B0B9
:1037000003AB019302B004B0704700BF704700BF25
:1037100008B50DF02FFC094C01F0CCF92368C01A54
:10372000FA2807D901F0C6F90346042104482360AA
:1037300001F0B8FE0A200BF021FDEDE75407002050
:103740000004024208B50A200BF018FDFBE700BF99
:1037500010B51C4B82B093E80700FFF7FBFB3FF06E
:103760007DFC4FF4A0714FF4F07017F0F3FC164C91
:103770000F21206017F086FF002000904FF4615366
:10378000124A2068124917F069FE2068114917F0A3
:103790006FFF0F21206817F075FF3AF049FB0446D0
:1037A00001213AF0AFFB20460B493AF0B3FB0B483E
:1037B00042F0B0FEFCF7A2FF44F0C8FE05200BF07B
:1037C000DDFCF9E7F000002058070020600700202A
:1037D000A03F00206D3600087D3100080D3700083D
:1037E000704700BF0022014B1A607047500700204D
:1037F000014B1868704700BF5007002010B51948EA
:103800000BF0DAFC0246184B18481A600BF0D4FC97
:103810000121174B174A186008460BF027FD0121BC
:10382000154B164A186008460BF020FD0446144B51
:103830000021144A14481C600BF046FC0446134B4C
:103840000021134A13481C600BF03EFC0446124B47
:103850000021124A12481C600BF036FC114B186014
:1038600010BD00BFB8EB0C0840070020A8EB0C0807
:103870003C07002098EB0C083807002088EB0C0868
:103880003407002010EC0C08113700084C0700200A
:10389000ECEB0C084537000848070020C8EB0C0883
:1038A0005137000844070020044B02689A4200D0B8
:1038B0007047034B1868FFF711BF00BF0038004086
:1038C00058070020002301220748084910B5C0E925
:1038D000053301608380026201F008FA00B910BD6F
:1038E000BDE8104000F0ACBAE077002000300240A4
:1038F0000A4B02689A4200D07047094B82B0D3F855
:10390000882042F48052C3F88820D3F8883003F42A
:1039100080530193019B02B0704700BF003002400A
:10392000000C024400B5104B83B0D3F8880000228D
:1039300040F00100C3F88800D3F88830052103F077
:10394000010301931B20019B01F0DEF81B2001F015
:1039500015F9002205211C2001F0D6F81C2003B027
:103960005DF804EB01F00AB9000C024470B50024C4
:103970008CB0CDE90644CDE908444C4B0A94D3F809
:103980008C20432142F00402C3F88C20D3F88C2011
:10399000474802F004020192019AD3F88C200125D5
:1039A00042F08002C3F88C20D3F88C20022602F06B
:1039B00080020292029AD3F88C2042F00102C3F8EE
:1039C0008C20D3F88C2002F001020392039AD3F8E2
:1039D0008C2042F00202C3F88C20D3F88C2002F035
:1039E00002020492049AD3F88C2042F00802C3F831
:1039F0008C20D3F88C30224603F008030593059BF6
:103A000001F04AFD224604212A4801F045FD012229
:103A10004FF48051274801F03FFD4FF4005200233E
:103A200006A92348CDE90623089401F06FFC43233F
:103A300006A91F48CDE90635CDE9084601F066FC28
:103A4000042306A91B48CDE90635CDE9084601F057
:103A50005DFC4FF48053CDE90635032306A91548D4
:103A60000993089401F052FC4FF48072002306A9D8
:103A70001148CDE90623089501F048FC4FF40053A6
:103A800006A90D480693CDE909440796089501F06B
:103A90003DFC4FF48072094B064806A9CDE9062388
:103AA000089401F033FC0CB070BD00BF000C024460
:103AB000000802420004024200000242000011100D
:103AC0000023012210B51748174C1849C4E90232E7
:103AD000C4E900012046C4E90433C4E90633236283
:103AE00001F06EFE50B900210F4802F03DF868B9B0
:103AF00000210D4802F062F880B910BD00F0A0F975
:103B00000021094802F030F80028F1D000F098F9BF
:103B10000021054802F052F80028EED0BDE8104020
:103B200000F08EB90054004008780020DB3FB00060
:103B3000002310B51C4A016888B09142CDE90233D8
:103B4000CDE90433069301D008B010BD03209FEDEA
:103B5000147B0422154C02A9D4F88C3043F00203E4
:103B6000C4F88C30D4F88C30059003F00203009335
:103B70000F48009B8DED027B069201F0C7FBD4F845
:103B80009C3043F40013C4F89C30D4F89C3003F408
:103B900000130193019B08B010BD00BFAFF300807C
:103BA000C00000001200000000540040000C02445D
:103BB0000004024208B5002002F02AF818B902F009
:103BC0003BF830B908BD00F03BF902F035F80028A9
:103BD000F8D0BDE8084000F033B900BFD0B59CB0C4
:103BE0005022002108A857F018F80023CDE902332D
:103BF000CDE90433CDE90633254A136943F0300398
:103C00001361136903F030030193019B53691B0790
:103C1000FCD502F033FF1F4A0520D2F8F0304FF4F4
:103C2000803123F01803C2F8F03002230122CDE9DD
:103C300008010A920C211293149216933C221893B5
:103C4000032404230026002708A81793CDE91A6748
:103C500019911394159203F049F9034608B172B60D
:103C6000FEE7CDE904331F23052102A8CDE906674D
:103C70000394029302F0D4FF08B172B6FEE7064A3D
:103C8000136823F0300343F0200313601CB0D0BD51
:103C900000080244000C0244002002400000000022
:103CA00010B5C2B04FF484720021684656F0B5FFDB
:103CB000012303223C2102209FED177BCDE9022343
:103CC000CDE904100C920D930A2217930E91042350
:103CD0004FF4C0214FF480308DED007B08249FED20
:103CE000107BCDE90F22CDE9113320220C230B915B
:103CF00015914021249068468DED067B18943391F0
:103D00003F92089303F06AFD08B172B6FEE742B035
:103D100010BD00BFAFF30080032040001000000082
:103D20000400000005000000002400B587B0CDE9C4
:103D300003440294ADF80440059400F07DFF012196
:103D40006FF077432A482B4A059002A8CDE9032358
:103D5000ADF8081000F084FF4FF4884301A8ADF8D7
:103D60000430254D00F0A6FF042000F053FF00F0C2
:103D70006FFEFFF733FFFFF793FFFFF7F7FDFFF746
:103D8000D1FDFFF79DFEFFF715FF00F05BF800F097
:103D900097F900F029FA00F0EBFD00F0D7FB00F0F6
:103DA000DBFC00F01DFDFFF78DFD00F041F900F098
:103DB00073FC124808F048F80421284608F09AF9E4
:103DC00040F6FF722B689A63FFF7E4FA40F23F1364
:103DD00040F2DF1221462046FFF796FA2046FFF711
:103DE00029FC0BF029F9FFF709FD0BF047F9FEE775
:103DF0000003010000F0FF088C7B0020407B0020C6
:103E00000C4A0368934207D00B4A934201BF0B4A06
:103E1000136801331360704710B5044600F03EFE8E
:103E20002368054A934200D010BD044A1368013349
:103E3000136010BD00200040001800405007002013
:103E400072B6FEE7002301220821142010B50D4CA4
:103E5000C4E90123C4E90523C4E90733C4E90933EC
:103E6000C4E90B33C4E90D13E360074B206120461E
:103E7000236009F0BFFA00B910BDBDE81040FFF79C
:103E8000DFBF00BFD8780020001400472DE9F041C3
:103E900000210446CCB04FF484720AA8CDE9041185
:103EA000CDE90611089156F0B8FE5A4B22689A42A5
:103EB00002D04CB0BDE8F081002202230AA8CDE96F
:103EC0000A2303F08BFC002840F09A80524B002616
:103ED000D3F89420032742F48012C3F89420D3F837
:103EE0009420092502F480120092009AD3F88C20C5
:103EF0004A4842F00402C3F88C20D3F88C204FF0DB
:103F0000060802F004020192019AD3F88C2042F0D4
:103F10000102C3F88C20D3F88C2002F00102029237
:103F2000029AD3F88C2042F00202C3F88C20D3F816
:103F30008C300C2203F0020303930223039904A99B
:103F4000CDE904230895CDE9066701F0DFF94022A9
:103F50000223334804A9CDE90423CDE90667CDF84F
:103F6000208001F0D3F9012202232E4804A9CDE9D3
:103F70000423CDE90667CDF8208001F0C7F94FF49E
:103F800080620223274804A9CDE904230895CDE9DE
:103F90000667032501F0BAF910220223214804A97B
:103FA000CDE904230895CDE9066701F0AFF90023B8
:103FB000012239211C4DC5E90233C5E90433C5E9A5
:103FC0000633C5E90832C5E90A23C5E90C33174BA6
:103FD000284669602B6000F0FFFEB8B9E564102147
:103FE0001148EC6501F076F968B9002205214E20F0
:103FF00000F08AFD4E2000F0C1FD4CB0BDE8F0811C
:10400000FFF71EFF62E7FFF71BFFEEE7FFF718FF62
:10401000E4E700BF00140047000C0244000802421D
:10402000000002420004024260780020D0000240FA
:1040300008B50023054A0648C0E9002306F0C6FC7F
:1040400000B908BDBDE80840FFF7FABE00080C4201
:10405000347900200000000010B50446C4B04FF4CD
:104060008472002102A856F0D8FD134B22689A42B0
:1040700001D044B010BD9FED0E7B102302A88DED42
:10408000027B349303F0AAFB70B90C4BD3F88C205D
:1040900042F48022C3F88C20D3F88C3003F48023C0
:1040A0000193019B44B010BDFFF7CAFEEDE700BFCE
:1040B000000000040000000000080C42000C024454
:1040C00000234FF080427F20FF2110B5254C8EB099
:1040D000CDE90133C4E90433C4E90632C4E9083345
:1040E000CDE90833CDE90A33CDE90C33CDE903330B
:1040F000CDE90533079363601B4BA0602046E16068
:10410000236006F035FD00BB0023164807A9CDE962
:104110000A3307930C9306F091FE00BB00230122A3
:10412000104802A9CDE90533ADF808308DF80A3002
:1041300006F07AFD80B90D4B01220A4801A90193CE
:1041400006F0FAFD20B90EB010BDFFF779FEDBE7EF
:10415000FFF776FE0EB010BDFFF772FEEBE7FFF73C
:104160006FFEDBE748790020007800440101010080
:1041700010B50446C4B04FF48472002102A856F072
:104180004CFD174B22689A4201D044B010BD9FED00
:10419000127B4FF4807302A88DED027B3F9303F0F6
:1041A0001DFBA0B90F4BD3F8F02042F40042C3F836
:1041B000F020D3F8A82042F40012C3F8A820D3F8C6
:1041C000A83003F400130193019B44B010BDFFF726
:1041D00037FEE7E7AFF300800000000200000000B8
:1041E00000780044000C024438B507220023164D25
:1041F0004FF4C0214FF08060C5E90323C5E90A32BE
:104200004FF08042A9604FF00051C5E905304FF4EE
:104210008004C5E90833C5E90E33C5E91233C5E9A1
:1042200014332B666A6300230022E961074928469C
:10423000C5E916236C60296007F024F900B938BD80
:10424000BDE83840FFF7FCBD607A00200038004030
:1042500030B500210446CBB04FF4847208A8CDE9F4
:104260000211CDE90411069156F0D7FC364B2268B5
:104270009A4201D04BB030BD4FF08052002308A8C5
:10428000CDE9082303F0AAFA00284FD12F4B0020D4
:10429000D3F89C20032142F48042C3F89C20D3F839
:1042A0009C209FED277B02F480420092009AD3F875
:1042B0008C20274D42F00202C3F88C20D3F88C30BA
:1042C000CDE9040103F002030193019B052321487A
:1042D00002A906938DED027B01F018F8002301225C
:1042E0000921C5E90233C5E90433C5E90633C5E947
:1042F0000832C5E90A23C5E90C33174B2846696023
:104300002B6000F069FDB8B910211148C4F8805045
:10431000EC6500F0DFFF60B900220521382000F0D5
:10432000F3FB382000F02AFC4BB030BDFFF788FDCE
:10433000ACE7FFF785FDEFE7FFF782FDE4E700BF9D
:1043400000A000000200000000380040000C024401
:10435000E8790020000402425000024000220F21B0
:104360006FF0010000F0D0BB30B5264B89B0D3F818
:104370009C20044642F48072C3F89C20D3F89C3001
:10438000694603F48073019302A8019B03F02EF9A0
:10439000059BE3B903F0CAF80346002263251A49D6
:1043A0005B09A1FB03131949DB09013B4B60184B67
:1043B0000846C1E903528A600B6008F03DF90546E2
:1043C00048B17A2000F0DAFB284609B030BD03F08E
:1043D000ADF84300E1E70D4807F036FD054600283B
:1043E000EFD10F2C06D901257A2000F0C7FB284613
:1043F00009B030BD024621467A2000F085FB054B0E
:104400001C60DEE7000C0244C55A7C0AF07A0020EA
:104410000020004004010020FEE700BFFEE700BFCF
:10442000FEE700BFFEE700BFFEE700BF704700BF2A
:10443000014800F08FBE00BFE8790020014800F07D
:1044400089BE00BF60780020014807F05BBA00BF5A
:10445000607A0020014808F0F9BA00BF707C0020A3
:10446000014808F0F3BA00BFD87B0020014801F0F2
:1044700059BC00BF047D0020014809F07DB800BF91
:10448000D8780020014806F0E3BE00BF787900200C
:10449000014807F019BF00BF407B0020014807F02A
:1044A00013BF00BFF07A0020002230B44FF0006448
:1044B0001F48204BD0F8881041F47001C0F88810D4
:1044C000196801F0180141F001011960DA611A62FE
:1044D0001D6819492940196018499A62DA621A63FD
:1044E00059639A63D9631A6459649A64196821F408
:1044F0008021196012491A6584608B6903F040437A
:10450000B3F1404F01D030BC7047CB69DB0703D516
:104510000C4A0D4BCA60CB60094B30BCDA6942F0E3
:104520000202DA61DA6942F00102DA61704700BF23
:1045300000ED00E0000C0244FBEAE2EA8002010127
:10454000002002403B2A19087F6E5D4C00234FF487
:104550007A71802210B51848184C88B02060204627
:10456000C4E90133CDE90533CDE902330493019366
:10457000E160A2612361079308F05EF888B94FF407
:1045800080530E4804A9049307F0B6FD80B90023B8
:104590000A4801A90193039308F08EF920B908B0E5
:1045A00010BDFFF74DFCEAE7FFF74AFC08B010BD6D
:1045B000FFF746FCEBE700BF00180040407B0020FF
:1045C00000B5184A036883B0934204D0164A934258
:1045D00010D003B000BD154BD3F89C2042F002026E
:1045E000C3F89C20D3F89C3003F002030093009B97
:1045F00003B000BD0D4B0022D3F89C00052140F014
:104600004000C3F89C00D3F89C30782003F04003AE
:104610000193019B00F078FA782003B05DF804EB79
:1046200000F0ACBA0004004000180040000C024446
:10463000002310B5144A016888B09142CDE90233D5
:10464000CDE90433069301D008B010BD9FED0C7B7B
:1046500002240E4B0E48D3F88C2002A942F004022B
:10466000C3F88C20D3F88C308DED027B03F004036B
:104670000193019B069400F049FE08B010BD00BFF5
:10468000800000000200000000040040000C024412
:104690000008024200000000002340F6FF7210B53F
:1046A0002B482C4990B0CDE90533C0E90133CDE961
:1046B0000233CDE90933CDE90B33CDE90D33016088
:1046C000C26004930193089303618361079307F029
:1046D000B3FF28BB4FF480531D4804A9049307F08F
:1046E0000BFD68BB1A4807F0D9FF30BB0023184800
:1046F00001A90193039308F0DFF8D8B900239FEDD7
:10470000127B0422124808A98DED087B0A930C93B2
:1047100008F04EF838B90E48FFF78AFF10B010BD08
:10472000FFF78EFBD6E7FFF78BFB0948FFF780FF0B
:1047300010B010BDFFF784FBE0E7FFF781FBD5E782
:10474000FFF77EFBCEE700BF600000000000000026
:104750008C7B00200004004000234FF4E1310C2248
:1047600010B51D481D4C20602046C4E90113C4E962
:104770000333C4E90523C4E90733C4E9093308F066
:1047800033FD70B90021154808F0E8FD88B9002113
:10479000124808F009FEA0B9104808F0C1FDB8B9E8
:1047A00010BDFFF74DFB00210C4808F0D7FD002895
:1047B000EDD0FFF745FB0021084808F0F5FD002883
:1047C000EAD0FFF73DFB054808F0AAFD0028E7D036
:1047D000BDE81040FFF734BB00380140707C00207A
:1047E00008B52048204B4FF416510C2203600023DB
:1047F0004261C0E901131A461946C0E90333C0E912
:104800000633C0E90833836208F042FD70B9002125
:10481000144808F0A3FD88B90021124808F0C4FD2F
:10482000A0B9104808F07CFDB8B908BDFFF708FB37
:1048300000210C4808F092FD0028EDD0FFF700FBA6
:104840000021084808F0B0FD0028EAD0FFF7F8FA88
:10485000044808F065FD0028E7D0BDE80840FFF7F0
:10486000EFBA00BFD87B00200044004000000000E9
:1048700010B500243A4A03688AB09342CDE9044453
:10488000CDE90644089404D0364A934230D00AB0A9
:1048900010BD354B9FED2E7BD3F8A42004A942F424
:1048A0008042C3F8A420D3F8A420304802F4804208
:1048B0000092009AD3F88C2042F00102C3F88C20B9
:1048C000D3F88C308DED047B03F001030193019A42
:1048D000022307220793089200F018FD22460521C3
:1048E0003A2000F011F93A2000F048F90AB010BD62
:1048F0001D4B9FED197BD3F89C2004A942F4003294
:10490000C3F89C20D3F89C20184802F4003202928D
:10491000029AD3F88C2042F00102C3F88C20D3F81D
:104920008C308DED047B03F001030393039A022383
:1049300007220793089200F0E9FC224605213B205C
:1049400000F0E2F83B2000F019F90AB010BD00BFFA
:1049500000060000020000000E000000020000003F
:104960000038014000440040000C024400000242B4
:1049700002230821002210B50848094C2060204677
:10498000E3712171C4F80930C4F80D2001F05EF91B
:1049900000B910BDBDE81040FFF752BA00600140F9
:1049A000047D0020104B02689A4200D0704700B589
:1049B00083B002F06BF80D4B0022D3F8A400052160
:1049C00040F08070C3F8A400D3F8A4304A2003F06C
:1049D00080730193019B00F097F84A2003B05DF8C3
:1049E00004EB00F0CBB800BF00600140000C0244B3
:1049F000DFF83CD00F4880F30A88002103E00E4B1B
:104A00005B58435004310D480D4B42189A42F6D37F
:104A10000C4A02E0002342F8043B0B4B9A42F9D3C4
:104A2000FFF742FD56F060F9FFF77EF9FEE7000060
:104A300000000A2000FC0920AC8C0D0800000020BA
:104A400050020020600200203CAA0120FEE7000086
:104A500010B5032000F046F802F0BAF803460C4AFD
:104A60000C48126A0C4902F00F02825C0420D34009
:104A70000B6000F091F80F20FFF776FC10B10124D5
:104A8000204610BD0446FFF769FC204610BD00BF5C
:104A9000000C02443CEC0C08FC000020034A044BD0
:104AA00011681B780B441360704700BFE87F00203B
:104AB00000010020014B1868704700BFE87F00200C
:104AC00038B50446FFF7F6FF631C054602D0044BD9
:104AD0001B781C44FFF7EEFF401BA042FAD338BD01
:104AE000000100204FF6FF0C06490302CA6803F4D8
:104AF000E06302EA0C02134343F0BF6343F4003364
:104B0000CB60704700ED00E01A4B00B5DB68C3F3E3
:104B10000223C3F1070EBEF1040F03F1040C28BFFA
:104B20004FF0040EBCF1060F1BD9A3F1030C4FF09C
:104B3000FF3303FA0CF322EA03024FF0FF3303FAC8
:104B40000EF321EA030303FA0CF313431B010028BD
:104B5000DBB209DB00F1604000F5614080F8003312
:104B600000BD00229446E8E7034A00F00F0002442B
:104B7000137600BD00ED00E0FCEC00E0002807DB50
:104B8000012300F01F01034A40098B4042F8203006
:104B9000704700BF00E100E0042813D8DFE800F010
:104BA0002A1A031213004FF0E0210B69184A23F070
:104BB00004030B61D2F8E43023F00C0343F0080344
:104BC000C2F8E43070474FF0E022136943F0040369
:104BD000136170474FF0E0210B690D4A23F0040385
:104BE0000B61D2F8E43023F00C0343F00403C2F865
:104BF000E43070474FF0E0210B69054A23F00403CD
:104C00000B61D2F8E43023F00C03C2F8E4307047B3
:104C1000000C0244BFF35F8F064B40F00100C3F865
:104C200094005A6A42F480325A62BFF34F8FBFF346
:104C30006F8F704700ED00E0BFF35F8F074B5A6A3C
:104C400022F480325A62D3F8942022F00102C3F891
:104C50009420BFF34F8FBFF36F8F704700ED00E0DC
:104C6000BFF35F8F124A4378C2F89830D2F8A03071
:104C700023F00103C2F8A030436890F80EC0C17B56
:104C800023F01F0343EA0C0343EAC103417B43EAD9
:104C90004103C2F89C30836890F800C0017B23F088
:104CA0001F0343EA0C0343EA4103C2F8A0307047F4
:104CB00000ED00E010B4BFF35F8F4FF0FF0C0378FE
:104CC0004178032B8ABF074C074C043B2268DB006A
:104CD00099400CFA03F322EA03030B4323605DF8C7
:104CE000044B7047C4ED00E0C0ED00E0002836D072
:104CF00038B5437F044603F0FF0263B302222379F1
:104D00006277F3B92368174A5A619A6822F0180249
:104D10009A6062798AB122691A6101219A6865698B
:104D200022F060022A439A609A68A56922F0800204
:104D30002A439A606177002038BD4FF0FF321A6134
:104D4000EBE72046D4E9021200F00EF808B9236818
:104D5000DFE7012038BD0277FEF7CAFDCEE701206C
:104D6000704700BFB71DC104CB071AD51E2310B46E
:104D700001E0013B17D321FA03FC1CF0010FF8D02E
:104D8000182A11D8DFE802F01610101010101010B9
:104D900024101010101010102110101010101010EE
:104DA0001400012070472AB101205DF8044B7047C0
:104DB000062BF9D8046800206161A36823F018036A
:104DC0001343A3605DF8044B7047072BF2D9EBE760
:104DD0000F2BEFD9E8E700BF70B50446FFF76AFE76
:104DE000002C00F03B810546002094F85410236805
:104DF00001F0FF0284F84C00002900F0D380022269
:104E000084F854205A6942F006025A6106E0FFF71E
:104E100051FE431B052B00F21C8123685A69D207FF
:104E2000F5D45A69606922F44302D4E907152A438C
:104E3000256901435A61A2692943A0681143226B85
:104E4000E5681043227910438D4A934200F0B08008
:104E500002F18052934200F0AB8002F17042803246
:104E6000934200F0A58002F18052934200F0A080AE
:104E700002F170428032934200F09A8002F1805237
:104E8000934200F0958002F170428032934200F02C
:104E90008F8002F18052934200F08A8002F17042CA
:104EA0008032934200F0848002F1805293427FD09E
:104EB00002F17042803293427AD002F180529342E2
:104EC00076D002F170428032934271D002F180526A
:104ED00093426DD002F170428032934268D002F169
:104EE0008052934264D002F1704202F548629342CC
:104EF0005ED002F1805293425AD002F17042803269
:104F0000934255D002F18052934251D002F1704247
:104F1000803293424CD002F18052934248D002F149
:104F200070428032934243D002F1805293423FD08C
:104F300002F17042803293423AD002F180529342A1
:104F400036D002F170428032934231D002F1805269
:104F500093422DD002F170428032934228D002F168
:104F60008052934224D002F17042803293421FD08B
:104F700002F1805293421BD01A6CB5F5806F02F09B
:104F8000802242EA01021A6470D0B5F5007F67D032
:104F90005A6C3C4D616B2A400A43024300205A641C
:104FA00098644EE0C4E91822C4E91A22226726E771
:104FB000A26AE66A013A120502F07C720A43616A4B
:104FC00032430139090101F47C710A43196CB5F5CA
:104FD000806F01F0802142EA01021A6443D0B5F5E6
:104FE000007F3DD05A6C274D616B2A400A43024333
:104FF00000205A64244A986493421FD002F18052E0
:1050000093421BD002F170428032934216D002F1DB
:105010008052934212D002F1704202F578629342BC
:105020000CD002F18052934208D002F170428032DB
:10503000934203D002F18052934202D100225A657A
:105040009A6500200122D867A06584F85420216564
:1050500070BD10220323A26584F85430012070BD76
:1050600040F40070BEE740F48060BBE70025616B50
:105070005A6C044E0843324002435A649D64E0E790
:10508000500002400021C03C5003024038B50446A5
:10509000FFF710FD002C34D094F85430022B2BD1A4
:1050A0000521236805465A6942F004025A6184F8D2
:1050B000541005E0FFF7FEFC431B052B23D82368A3
:1050C0001A699104F6D504254FF4FE4001215A696E
:1050D00042F002025A61226D84F854501206D860E0
:1050E00084F8541003D50022606F01739A64002382
:1050F00084F84C30184638BD20220023A26584F87D
:105100004C30012038BD0321A36D226D43F0100304
:105110001006A36584F8541002D50122636F1A7338
:10512000002384F84C30ECE7034628B190F8542073
:10513000022A03D0202282650120704704211A68C8
:1051400083F854105369002043F400530B43536118
:10515000704700BF0121036810B5C3F30B0204467A
:1051600023F47F6020F00F00503AC068C2F3C412ED
:105170009140014200F0A5801A69520509D55A698B
:10518000500506D54FF48062DA60A26D42F001024C
:10519000A2651A69110509D55A69120506D54FF499
:1051A0000062DA60A26D42F00202A2651A69D004C0
:1051B00009D55A69D10406D54FF48052DA60A26D40
:1051C00042F00402A2651A69520409D55A695004D2
:1051D00006D54FF48042DA60A26D42F00802A26563
:1051E0001A6991050AD55A69920507D54FF40071DD
:1051F000626ED96012B12046904723681A69900404
:1052000011D55A6991040ED54FF40052DA6094F822
:105210005420042A3DD00521226F84F8541012B185
:105220002046904723681A69D00518D55A69D105D8
:1052300015D5226D120645D5DA6F32B99A6C22B9AE
:105240000122616F84F854200A734FF440700021EA
:10525000226ED86084F84C100AB120469047A36DA6
:10526000002B2ED0226801215369206D43F00203E8
:1052700053610022030648BF636F84F8541048BF8F
:105280001973A36E84F84C20DBB12046BDE81040B2
:10529000184701215A69206D22F400525A615A6957
:1052A00042F002025A61020684F8541003D500222B
:1052B000606F01739A640022E36E84F84C20002B27
:1052C000E3D110BD9A6C002ABFD1012284F854208A
:1052D000BBE700BFC0B1CB0614D54FF0010C03688B
:1052E00001F01101C3F30B02503A6FF30B031129C4
:1052F000C2F3C41259680CFA02F20CBF0A4321EA45
:1053000002025A6000207047012070472DE9F04FDB
:105310000D6885B0002D00F0B8805D4A002302EAD8
:1053200090224FF0010BDFF86CA1039201915BE03A
:10533000D0F800E00CF1FF3C0EEA060E08FA07F187
:105340004EEA010EBCF1010FC0F800E040F285808A
:10535000019AB8F1030F926801D1012A04D0BA4032
:10536000C7683E403243C260E20039D50F2123F0C6
:10537000030606F1884603F0030206F50836D2005C
:10538000376E01FA02FC039927EA0C0701FA02F2D0
:105390003A4332666FEA0906DAF80020E70254BFA2
:1053A000324049EA0202CAF80020DAF80420A102D9
:1053B00054BF324049EA0202CAF80420DAF88420D5
:1053C000A70354BF324049EA0202CAF88420DAF83F
:1053D0008020E10354BF324049EA0202CAF880202B
:1053E000013335FA03F250D00BFA03F212EA050941
:1053F000F6D001995F004C68032124F0100C04EAF8
:10540000010801FA07F6BCF1020F08FA07F16FEA8A
:10541000060602918CD101994FEAD308096903F07D
:10542000070C01F00F0E0F2100EB88084FEA8C0CDF
:105430000EFA0CFE01FA0CFCD8F8201021EA0C0C34
:105440004EEA0C0EC8F820E0D0F800C002990CEA31
:10545000060C4CEA010CC0F800C00199D0F808E035
:10546000C9680EEA060E01FA07FC4CEA0E0CC0F8F9
:1054700008C0D0F804C001992CEA020C22099A4015
:1054800042EA0C0242608A6869E705B0BDE8F08F25
:105490007F7F2F00002002440AB181617047816242
:1054A000704700BF436901EA030221EA030141EAB0
:1054B00002418161704700BF03682DE9F0419C699A
:1054C000074614F0100C50D00024154610220E464A
:1054D000A046DA619A6991067AD4B8F1000F06D134
:1054E000721C4DD19A699506FCD52022DA61012003
:1054F00044F0040C9A69D50502F4806102F400744A
:105500002BD54FF480724CF0010CDA6121B14FF4CD
:1055100080624CF0080CDA6124B14FF400724CF058
:10552000020CDA619A69910744BF00229A629A6973
:10553000D2071CD55A68284920240A4000215A6005
:105540007B6C87F8401043EA0C037B6487F841408A
:1055500087F842100120BDE8F0810029D7D1002C46
:10556000DBD10028DED1BDE8F0816046C2E79A6950
:1055700042F001029A61DDE746B19A699006B4D41F
:10558000FFF798FA401BB0423B68F5D9586897F886
:1055900042209969D2B209040BD5410409D4202ACA
:1055A00007D05A6842F480425A60FFF783FA0546F2
:1055B0003B689A6990068DD4FFF77CFAA0EB050C46
:1055C000BCF1190F3B68F4D920244FF0010881E7A2
:1055D000B8F1000F8BD188E700E800FE70B50368D2
:1055E00004460D46164608E0324629462046FFF797
:1055F00063FFE8B96A1C05D123689B699B07F3D553
:10560000002070BDFFF756FA801BA842236801D81E
:10561000002DF2D19A6912F00202EED12021636CC2
:1056200084F840200B43636484F8411084F84220DE
:10563000012070BD2DE9F843DDF820901E46054697
:1056400088461746036808E04A4631462846FFF771
:1056500033FF48BB731C0BD12B689C6938EA0404E8
:105660000CBF01230023BB42EED00020BDE8F8832D
:10567000FFF720FAA0EB0900B0422B6801D8002EFA
:10568000EBD19A6938EA02020CBF01220022BA4229
:10569000E3D1202100226B6C85F840200B436B6422
:1056A00085F8411085F842200120BDE8F88300BF4D
:1056B00003689B699B0629D470B505460C461646BF
:1056C0000DE0FFF7F7F9801BA042296800D81CB94C
:1056D0008B6913F020030DD08B699B0608D43246EA
:1056E00021462846FFF7E8FE0028EAD0012070BDD9
:1056F000002070BD20216A6C01200A436A6485F88D
:10570000403085F8411085F84230F0E700207047BE
:10571000036870B59B690D4659070446164637D491
:10572000324629462046FFF7C7FE2368E8B99A6942
:10573000920623D59A699A6912F010021DD0202191
:1057400004221026DE616264D9615A681B4D2A402A
:105750005A6084F8411084F8400084F84200FFF752
:10576000A9F923689B69012070BD9B699906F6D44D
:10577000FFF7A0F923689B69F5E76264FFF79AF9E0
:10578000801B854206D32DB123689B695A07C7D574
:10579000002070BD2268936913F0040309D1202012
:1057A000616C84F840300143616484F8410093697E
:1057B000D9E793695B07B3D5EAE700BF00E800FECD
:1057C000002855D038B590F84130044603F0FF0268
:1057D000002B48D0D4E90032242184F84110196804
:1057E00022F0706221F00101E568A06819601A6179
:1057F0009A68012D22F400429A6009D040F40440D6
:10580000022D986007D15A6842F400625A6006E09F
:1058100040F4004098605A6822F400625A60002107
:105820004FF0200C5A6842F0007242F400425A6075
:10583000DA6822F40042DA60D4E904200243A06965
:1058400042EA0022DA60D4E9072002431A601A68AB
:10585000084642F001021A60616484F841C0216385
:1058600084F8421038BD80F84020FEF761F9B1E7B6
:10587000012070472DE9F047984690F8413082B0FA
:10588000202B0A9E40F08F8090F840300446012B78
:1058900000F089804FF0010A80F840A00F46914641
:1058A000FFF708F9054619234FF4004152462046F8
:1058B0000095FFF7BFFE002871D1212384F8413005
:1058C000102384F842306064A4F82A80638D226833
:1058D0009BB2FF2BC4F824906063C7F3090766D816
:1058E000638D3F4851689BB22385DBB247EA03438F
:1058F00001400B4343F0007343F400535360638D46
:105900002A469BB231462046002B37D0FFF766FE71
:10591000002844D1616A236811F8010B228D986236
:10592000638D013A013B9BB26385638D92B29BB25A
:1059300061622285002BE2D0002AE0D1334680212B
:1059400020460095FFF776FE03462648024633BB05
:10595000638D21689BB2FF2B35D9FF2323854B68CC
:105960002A4603403B4343F0FF7343F480334B60CC
:10597000638D31469BB22046002BC7D1FFF798FEBE
:1059800068B920212368184DD9615A682A405A60A5
:1059900084F8411084F8400084F8420000E00120BF
:1059A00002B0BDE8F087022002B0BDE8F087FF2317
:1059B0000B49238553680B403B4343F0FF7343F48B
:1059C000903353609BE7638D48689BB22385DBB2BD
:1059D00047EA03430240134343F000734B608EE7F2
:1059E000009800FC009C00FC00E800FE2DE9F04758
:1059F000984690F8413082B0202B0A9E40F090806B
:105A000090F840300446012B00F08A804FF0010AE4
:105A100080F840A00F469146FFF74CF80546192341
:105A20004FF40041524620460095FFF703FE002840
:105A300072D1222384F84130102384F8423060640C
:105A4000A4F82A80638D22689BB2FF2BC4F82490AF
:105A50006063C7F3090767D8638D404851689BB2FC
:105A60002385DBB247EA034301400B4343F0007355
:105A700043F410535360638D2A469BB2314620464F
:105A8000002B38D0FFF744FE002845D12268636A16
:105A9000526A1A70638D228D013B9BB26385616AE5
:105AA000638D013A92B201319BB261622285002B73
:105AB000E1D0002ADFD13346802120460095FFF750
:105AC000B9FD03462648024633BB638D21689BB26D
:105AD000FF2B35D9FF2323854B682A4603403B43E0
